{
	"contracts/MyToken.sol": {
		"MyToken": {
			"abi": [
				{
					"inputs": [],
					"stateMutability": "nonpayable",
					"type": "constructor"
				},
				{
					"anonymous": false,
					"inputs": [
						{
							"indexed": true,
							"internalType": "address",
							"name": "owner",
							"type": "address"
						},
						{
							"indexed": true,
							"internalType": "address",
							"name": "approved",
							"type": "address"
						},
						{
							"indexed": true,
							"internalType": "uint256",
							"name": "tokenId",
							"type": "uint256"
						}
					],
					"name": "Approval",
					"type": "event"
				},
				{
					"anonymous": false,
					"inputs": [
						{
							"indexed": true,
							"internalType": "address",
							"name": "owner",
							"type": "address"
						},
						{
							"indexed": true,
							"internalType": "address",
							"name": "operator",
							"type": "address"
						},
						{
							"indexed": false,
							"internalType": "bool",
							"name": "approved",
							"type": "bool"
						}
					],
					"name": "ApprovalForAll",
					"type": "event"
				},
				{
					"anonymous": false,
					"inputs": [
						{
							"indexed": true,
							"internalType": "address",
							"name": "previousOwner",
							"type": "address"
						},
						{
							"indexed": true,
							"internalType": "address",
							"name": "newOwner",
							"type": "address"
						}
					],
					"name": "OwnershipTransferred",
					"type": "event"
				},
				{
					"anonymous": false,
					"inputs": [
						{
							"indexed": true,
							"internalType": "address",
							"name": "from",
							"type": "address"
						},
						{
							"indexed": true,
							"internalType": "address",
							"name": "to",
							"type": "address"
						},
						{
							"indexed": true,
							"internalType": "uint256",
							"name": "tokenId",
							"type": "uint256"
						}
					],
					"name": "Transfer",
					"type": "event"
				},
				{
					"inputs": [],
					"name": "_tokenId",
					"outputs": [
						{
							"internalType": "uint256",
							"name": "",
							"type": "uint256"
						}
					],
					"stateMutability": "view",
					"type": "function"
				},
				{
					"inputs": [
						{
							"internalType": "address",
							"name": "to",
							"type": "address"
						},
						{
							"internalType": "uint256",
							"name": "tokenId",
							"type": "uint256"
						}
					],
					"name": "approve",
					"outputs": [],
					"stateMutability": "nonpayable",
					"type": "function"
				},
				{
					"inputs": [
						{
							"internalType": "address",
							"name": "owner",
							"type": "address"
						}
					],
					"name": "balanceOf",
					"outputs": [
						{
							"internalType": "uint256",
							"name": "",
							"type": "uint256"
						}
					],
					"stateMutability": "view",
					"type": "function"
				},
				{
					"inputs": [],
					"name": "baseURI",
					"outputs": [
						{
							"internalType": "string",
							"name": "",
							"type": "string"
						}
					],
					"stateMutability": "view",
					"type": "function"
				},
				{
					"inputs": [
						{
							"internalType": "uint256",
							"name": "tokenId",
							"type": "uint256"
						}
					],
					"name": "getApproved",
					"outputs": [
						{
							"internalType": "address",
							"name": "",
							"type": "address"
						}
					],
					"stateMutability": "view",
					"type": "function"
				},
				{
					"inputs": [
						{
							"internalType": "address",
							"name": "owner",
							"type": "address"
						},
						{
							"internalType": "address",
							"name": "operator",
							"type": "address"
						}
					],
					"name": "isApprovedForAll",
					"outputs": [
						{
							"internalType": "bool",
							"name": "",
							"type": "bool"
						}
					],
					"stateMutability": "view",
					"type": "function"
				},
				{
					"inputs": [],
					"name": "mint",
					"outputs": [],
					"stateMutability": "nonpayable",
					"type": "function"
				},
				{
					"inputs": [],
					"name": "name",
					"outputs": [
						{
							"internalType": "string",
							"name": "",
							"type": "string"
						}
					],
					"stateMutability": "view",
					"type": "function"
				},
				{
					"inputs": [],
					"name": "owner",
					"outputs": [
						{
							"internalType": "address",
							"name": "",
							"type": "address"
						}
					],
					"stateMutability": "view",
					"type": "function"
				},
				{
					"inputs": [
						{
							"internalType": "uint256",
							"name": "tokenId",
							"type": "uint256"
						}
					],
					"name": "ownerOf",
					"outputs": [
						{
							"internalType": "address",
							"name": "",
							"type": "address"
						}
					],
					"stateMutability": "view",
					"type": "function"
				},
				{
					"inputs": [],
					"name": "renounceOwnership",
					"outputs": [],
					"stateMutability": "nonpayable",
					"type": "function"
				},
				{
					"inputs": [
						{
							"internalType": "address",
							"name": "to",
							"type": "address"
						},
						{
							"internalType": "uint256",
							"name": "tokenId",
							"type": "uint256"
						}
					],
					"name": "safeMint",
					"outputs": [],
					"stateMutability": "nonpayable",
					"type": "function"
				},
				{
					"inputs": [
						{
							"internalType": "address",
							"name": "from",
							"type": "address"
						},
						{
							"internalType": "address",
							"name": "to",
							"type": "address"
						},
						{
							"internalType": "uint256",
							"name": "tokenId",
							"type": "uint256"
						}
					],
					"name": "safeTransferFrom",
					"outputs": [],
					"stateMutability": "nonpayable",
					"type": "function"
				},
				{
					"inputs": [
						{
							"internalType": "address",
							"name": "from",
							"type": "address"
						},
						{
							"internalType": "address",
							"name": "to",
							"type": "address"
						},
						{
							"internalType": "uint256",
							"name": "tokenId",
							"type": "uint256"
						},
						{
							"internalType": "bytes",
							"name": "data",
							"type": "bytes"
						}
					],
					"name": "safeTransferFrom",
					"outputs": [],
					"stateMutability": "nonpayable",
					"type": "function"
				},
				{
					"inputs": [
						{
							"internalType": "address",
							"name": "operator",
							"type": "address"
						},
						{
							"internalType": "bool",
							"name": "approved",
							"type": "bool"
						}
					],
					"name": "setApprovalForAll",
					"outputs": [],
					"stateMutability": "nonpayable",
					"type": "function"
				},
				{
					"inputs": [
						{
							"internalType": "string",
							"name": "uri",
							"type": "string"
						}
					],
					"name": "setURI",
					"outputs": [],
					"stateMutability": "nonpayable",
					"type": "function"
				},
				{
					"inputs": [
						{
							"internalType": "bytes4",
							"name": "interfaceId",
							"type": "bytes4"
						}
					],
					"name": "supportsInterface",
					"outputs": [
						{
							"internalType": "bool",
							"name": "",
							"type": "bool"
						}
					],
					"stateMutability": "view",
					"type": "function"
				},
				{
					"inputs": [],
					"name": "symbol",
					"outputs": [
						{
							"internalType": "string",
							"name": "",
							"type": "string"
						}
					],
					"stateMutability": "view",
					"type": "function"
				},
				{
					"inputs": [
						{
							"internalType": "uint256",
							"name": "tokenId",
							"type": "uint256"
						}
					],
					"name": "tokenURI",
					"outputs": [
						{
							"internalType": "string",
							"name": "",
							"type": "string"
						}
					],
					"stateMutability": "view",
					"type": "function"
				},
				{
					"inputs": [
						{
							"internalType": "address",
							"name": "from",
							"type": "address"
						},
						{
							"internalType": "address",
							"name": "to",
							"type": "address"
						},
						{
							"internalType": "uint256",
							"name": "tokenId",
							"type": "uint256"
						}
					],
					"name": "transferFrom",
					"outputs": [],
					"stateMutability": "nonpayable",
					"type": "function"
				},
				{
					"inputs": [
						{
							"internalType": "address",
							"name": "newOwner",
							"type": "address"
						}
					],
					"name": "transferOwnership",
					"outputs": [],
					"stateMutability": "nonpayable",
					"type": "function"
				}
			],
			"devdoc": {
				"kind": "dev",
				"methods": {
					"approve(address,uint256)": {
						"details": "See {IERC721-approve}."
					},
					"balanceOf(address)": {
						"details": "See {IERC721-balanceOf}."
					},
					"getApproved(uint256)": {
						"details": "See {IERC721-getApproved}."
					},
					"isApprovedForAll(address,address)": {
						"details": "See {IERC721-isApprovedForAll}."
					},
					"name()": {
						"details": "See {IERC721Metadata-name}."
					},
					"owner()": {
						"details": "Returns the address of the current owner."
					},
					"ownerOf(uint256)": {
						"details": "See {IERC721-ownerOf}."
					},
					"renounceOwnership()": {
						"details": "Leaves the contract without owner. It will not be possible to call `onlyOwner` functions anymore. Can only be called by the current owner. NOTE: Renouncing ownership will leave the contract without an owner, thereby removing any functionality that is only available to the owner."
					},
					"safeTransferFrom(address,address,uint256)": {
						"details": "See {IERC721-safeTransferFrom}."
					},
					"safeTransferFrom(address,address,uint256,bytes)": {
						"details": "See {IERC721-safeTransferFrom}."
					},
					"setApprovalForAll(address,bool)": {
						"details": "See {IERC721-setApprovalForAll}."
					},
					"supportsInterface(bytes4)": {
						"details": "See {IERC165-supportsInterface}."
					},
					"symbol()": {
						"details": "See {IERC721Metadata-symbol}."
					},
					"tokenURI(uint256)": {
						"details": "See {IERC721Metadata-tokenURI}."
					},
					"transferFrom(address,address,uint256)": {
						"details": "See {IERC721-transferFrom}."
					},
					"transferOwnership(address)": {
						"details": "Transfers ownership of the contract to a new account (`newOwner`). Can only be called by the current owner."
					}
				},
				"version": 1
			},
			"evm": {
				"assembly": "    /* \"contracts/MyToken.sol\":169:877  contract MyToken is ERC721, Ownable {... */\n  mstore(0x40, 0x80)\n    /* \"contracts/MyToken.sol\":262:293  string public baseURI=\"ipfs://\" */\n  mload(0x40)\n  dup1\n  0x40\n  add\n  0x40\n  mstore\n  dup1\n  0x07\n  dup2\n  mstore\n  0x20\n  add\n  0x697066733a2f2f00000000000000000000000000000000000000000000000000\n  dup2\n  mstore\n  pop\n  0x07\n  swap1\n  dup1\n  mload\n  swap1\n  0x20\n  add\n  swap1\n  tag_1\n  swap3\n  swap2\n  swap1\n  tag_2\n  jump\t// in\ntag_1:\n  pop\n    /* \"contracts/MyToken.sol\":211:256  constructor() ERC721(\"Rich's NFT\", \"Rich\") {} */\n  callvalue\n  dup1\n  iszero\n  tag_3\n  jumpi\n  0x00\n  dup1\n  revert\ntag_3:\n  pop\n    /* \"@openzeppelin/contracts/token/ERC721/ERC721.sol\":1390:1503  constructor(string memory name_, string memory symbol_) {... */\n  mload(0x40)\n  dup1\n  0x40\n  add\n  0x40\n  mstore\n  dup1\n  0x0a\n  dup2\n  mstore\n  0x20\n  add\n  0x526963682773204e465400000000000000000000000000000000000000000000\n  dup2\n  mstore\n  pop\n  mload(0x40)\n  dup1\n  0x40\n  add\n  0x40\n  mstore\n  dup1\n  0x04\n  dup2\n  mstore\n  0x20\n  add\n  0x5269636800000000000000000000000000000000000000000000000000000000\n  dup2\n  mstore\n  pop\n    /* \"@openzeppelin/contracts/token/ERC721/ERC721.sol\":1464:1469  name_ */\n  dup2\n    /* \"@openzeppelin/contracts/token/ERC721/ERC721.sol\":1456:1461  _name */\n  0x00\n    /* \"@openzeppelin/contracts/token/ERC721/ERC721.sol\":1456:1469  _name = name_ */\n  swap1\n  dup1\n  mload\n  swap1\n  0x20\n  add\n  swap1\n  tag_8\n  swap3\n  swap2\n  swap1\n  tag_2\n  jump\t// in\ntag_8:\n  pop\n    /* \"@openzeppelin/contracts/token/ERC721/ERC721.sol\":1489:1496  symbol_ */\n  dup1\n    /* \"@openzeppelin/contracts/token/ERC721/ERC721.sol\":1479:1486  _symbol */\n  0x01\n    /* \"@openzeppelin/contracts/token/ERC721/ERC721.sol\":1479:1496  _symbol = symbol_ */\n  swap1\n  dup1\n  mload\n  swap1\n  0x20\n  add\n  swap1\n  tag_9\n  swap3\n  swap2\n  swap1\n  tag_2\n  jump\t// in\ntag_9:\n  pop\n    /* \"@openzeppelin/contracts/token/ERC721/ERC721.sol\":1390:1503  constructor(string memory name_, string memory symbol_) {... */\n  pop\n  pop\n    /* \"@openzeppelin/contracts/access/Ownable.sol\":936:968  _transferOwnership(_msgSender()) */\n  tag_11\n    /* \"@openzeppelin/contracts/access/Ownable.sol\":955:967  _msgSender() */\n  tag_12\n    /* \"@openzeppelin/contracts/access/Ownable.sol\":955:965  _msgSender */\n  shl(0x20, tag_13)\n    /* \"@openzeppelin/contracts/access/Ownable.sol\":955:967  _msgSender() */\n  0x20\n  shr\n  jump\t// in\ntag_12:\n    /* \"@openzeppelin/contracts/access/Ownable.sol\":936:954  _transferOwnership */\n  shl(0x20, tag_14)\n    /* \"@openzeppelin/contracts/access/Ownable.sol\":936:968  _transferOwnership(_msgSender()) */\n  0x20\n  shr\n  jump\t// in\ntag_11:\n    /* \"contracts/MyToken.sol\":169:877  contract MyToken is ERC721, Ownable {... */\n  jump(tag_16)\n    /* \"@openzeppelin/contracts/utils/Context.sol\":640:736  function _msgSender() internal view virtual returns (address) {... */\ntag_13:\n    /* \"@openzeppelin/contracts/utils/Context.sol\":693:700  address */\n  0x00\n    /* \"@openzeppelin/contracts/utils/Context.sol\":719:729  msg.sender */\n  caller\n    /* \"@openzeppelin/contracts/utils/Context.sol\":712:729  return msg.sender */\n  swap1\n  pop\n    /* \"@openzeppelin/contracts/utils/Context.sol\":640:736  function _msgSender() internal view virtual returns (address) {... */\n  swap1\n  jump\t// out\n    /* \"@openzeppelin/contracts/access/Ownable.sol\":2433:2620  function _transferOwnership(address newOwner) internal virtual {... */\ntag_14:\n    /* \"@openzeppelin/contracts/access/Ownable.sol\":2506:2522  address oldOwner */\n  0x00\n    /* \"@openzeppelin/contracts/access/Ownable.sol\":2525:2531  _owner */\n  0x06\n  0x00\n  swap1\n  sload\n  swap1\n  0x0100\n  exp\n  swap1\n  div\n  0xffffffffffffffffffffffffffffffffffffffff\n  and\n    /* \"@openzeppelin/contracts/access/Ownable.sol\":2506:2531  address oldOwner = _owner */\n  swap1\n  pop\n    /* \"@openzeppelin/contracts/access/Ownable.sol\":2550:2558  newOwner */\n  dup2\n    /* \"@openzeppelin/contracts/access/Ownable.sol\":2541:2547  _owner */\n  0x06\n  0x00\n    /* \"@openzeppelin/contracts/access/Ownable.sol\":2541:2558  _owner = newOwner */\n  0x0100\n  exp\n  dup2\n  sload\n  dup2\n  0xffffffffffffffffffffffffffffffffffffffff\n  mul\n  not\n  and\n  swap1\n  dup4\n  0xffffffffffffffffffffffffffffffffffffffff\n  and\n  mul\n  or\n  swap1\n  sstore\n  pop\n    /* \"@openzeppelin/contracts/access/Ownable.sol\":2604:2612  newOwner */\n  dup2\n    /* \"@openzeppelin/contracts/access/Ownable.sol\":2573:2613  OwnershipTransferred(oldOwner, newOwner) */\n  0xffffffffffffffffffffffffffffffffffffffff\n  and\n    /* \"@openzeppelin/contracts/access/Ownable.sol\":2594:2602  oldOwner */\n  dup2\n    /* \"@openzeppelin/contracts/access/Ownable.sol\":2573:2613  OwnershipTransferred(oldOwner, newOwner) */\n  0xffffffffffffffffffffffffffffffffffffffff\n  and\n  0x8be0079c531659141344cd1fd0a4f28419497f9722a3daafe3b4186f6b6457e0\n  mload(0x40)\n  mload(0x40)\n  dup1\n  swap2\n  sub\n  swap1\n  log3\n    /* \"@openzeppelin/contracts/access/Ownable.sol\":2496:2620  {... */\n  pop\n    /* \"@openzeppelin/contracts/access/Ownable.sol\":2433:2620  function _transferOwnership(address newOwner) internal virtual {... */\n  pop\n  jump\t// out\n    /* \"contracts/MyToken.sol\":169:877  contract MyToken is ERC721, Ownable {... */\ntag_2:\n  dup3\n  dup1\n  sload\n  tag_19\n  swap1\n  tag_20\n  jump\t// in\ntag_19:\n  swap1\n  0x00\n  mstore\n  keccak256(0x00, 0x20)\n  swap1\n  0x1f\n  add\n  0x20\n  swap1\n  div\n  dup2\n  add\n  swap3\n  dup3\n  tag_22\n  jumpi\n  0x00\n  dup6\n  sstore\n  jump(tag_21)\ntag_22:\n  dup3\n  0x1f\n  lt\n  tag_23\n  jumpi\n  dup1\n  mload\n  not(0xff)\n  and\n  dup4\n  dup1\n  add\n  or\n  dup6\n  sstore\n  jump(tag_21)\ntag_23:\n  dup3\n  dup1\n  add\n  0x01\n  add\n  dup6\n  sstore\n  dup3\n  iszero\n  tag_21\n  jumpi\n  swap2\n  dup3\n  add\ntag_24:\n  dup3\n  dup2\n  gt\n  iszero\n  tag_25\n  jumpi\n  dup3\n  mload\n  dup3\n  sstore\n  swap2\n  0x20\n  add\n  swap2\n  swap1\n  0x01\n  add\n  swap1\n  jump(tag_24)\ntag_25:\ntag_21:\n  pop\n  swap1\n  pop\n  tag_26\n  swap2\n  swap1\n  tag_27\n  jump\t// in\ntag_26:\n  pop\n  swap1\n  jump\t// out\ntag_27:\ntag_28:\n  dup1\n  dup3\n  gt\n  iszero\n  tag_29\n  jumpi\n  0x00\n  dup2\n  0x00\n  swap1\n  sstore\n  pop\n  0x01\n  add\n  jump(tag_28)\ntag_29:\n  pop\n  swap1\n  jump\t// out\n    /* \"#utility.yul\":7:327   */\ntag_20:\n    /* \"#utility.yul\":51:57   */\n  0x00\n    /* \"#utility.yul\":88:89   */\n  0x02\n    /* \"#utility.yul\":82:86   */\n  dup3\n    /* \"#utility.yul\":78:90   */\n  div\n    /* \"#utility.yul\":68:90   */\n  swap1\n  pop\n    /* \"#utility.yul\":135:136   */\n  0x01\n    /* \"#utility.yul\":129:133   */\n  dup3\n    /* \"#utility.yul\":125:137   */\n  and\n    /* \"#utility.yul\":156:174   */\n  dup1\n    /* \"#utility.yul\":146:227   */\n  tag_32\n  jumpi\n    /* \"#utility.yul\":212:216   */\n  0x7f\n    /* \"#utility.yul\":204:210   */\n  dup3\n    /* \"#utility.yul\":200:217   */\n  and\n    /* \"#utility.yul\":190:217   */\n  swap2\n  pop\n    /* \"#utility.yul\":146:227   */\ntag_32:\n    /* \"#utility.yul\":274:276   */\n  0x20\n    /* \"#utility.yul\":266:272   */\n  dup3\n    /* \"#utility.yul\":263:277   */\n  lt\n    /* \"#utility.yul\":243:261   */\n  dup2\n    /* \"#utility.yul\":240:278   */\n  eq\n    /* \"#utility.yul\":237:321   */\n  iszero\n  tag_33\n  jumpi\n    /* \"#utility.yul\":293:311   */\n  tag_34\n  tag_35\n  jump\t// in\ntag_34:\n    /* \"#utility.yul\":237:321   */\ntag_33:\n    /* \"#utility.yul\":58:327   */\n  pop\n    /* \"#utility.yul\":7:327   */\n  swap2\n  swap1\n  pop\n  jump\t// out\n    /* \"#utility.yul\":333:513   */\ntag_35:\n    /* \"#utility.yul\":381:458   */\n  0x4e487b7100000000000000000000000000000000000000000000000000000000\n    /* \"#utility.yul\":378:379   */\n  0x00\n    /* \"#utility.yul\":371:459   */\n  mstore\n    /* \"#utility.yul\":478:482   */\n  0x22\n    /* \"#utility.yul\":475:476   */\n  0x04\n    /* \"#utility.yul\":468:483   */\n  mstore\n    /* \"#utility.yul\":502:506   */\n  0x24\n    /* \"#utility.yul\":499:500   */\n  0x00\n    /* \"#utility.yul\":492:507   */\n  revert\n    /* \"contracts/MyToken.sol\":169:877  contract MyToken is ERC721, Ownable {... */\ntag_16:\n  dataSize(sub_0)\n  dup1\n  dataOffset(sub_0)\n  0x00\n  codecopy\n  0x00\n  return\nstop\n\nsub_0: assembly {\n        /* \"contracts/MyToken.sol\":169:877  contract MyToken is ERC721, Ownable {... */\n      mstore(0x40, 0x80)\n      callvalue\n      dup1\n      iszero\n      tag_1\n      jumpi\n      0x00\n      dup1\n      revert\n    tag_1:\n      pop\n      jumpi(tag_2, lt(calldatasize, 0x04))\n      shr(0xe0, calldataload(0x00))\n      dup1\n      0x6c0360eb\n      gt\n      tag_24\n      jumpi\n      dup1\n      0xa1448194\n      gt\n      tag_25\n      jumpi\n      dup1\n      0xa1448194\n      eq\n      tag_18\n      jumpi\n      dup1\n      0xa22cb465\n      eq\n      tag_19\n      jumpi\n      dup1\n      0xb88d4fde\n      eq\n      tag_20\n      jumpi\n      dup1\n      0xc87b56dd\n      eq\n      tag_21\n      jumpi\n      dup1\n      0xe985e9c5\n      eq\n      tag_22\n      jumpi\n      dup1\n      0xf2fde38b\n      eq\n      tag_23\n      jumpi\n      jump(tag_2)\n    tag_25:\n      dup1\n      0x6c0360eb\n      eq\n      tag_13\n      jumpi\n      dup1\n      0x70a08231\n      eq\n      tag_14\n      jumpi\n      dup1\n      0x715018a6\n      eq\n      tag_15\n      jumpi\n      dup1\n      0x8da5cb5b\n      eq\n      tag_16\n      jumpi\n      dup1\n      0x95d89b41\n      eq\n      tag_17\n      jumpi\n      jump(tag_2)\n    tag_24:\n      dup1\n      0x1249c58b\n      gt\n      tag_26\n      jumpi\n      dup1\n      0x1249c58b\n      eq\n      tag_8\n      jumpi\n      dup1\n      0x23b872dd\n      eq\n      tag_9\n      jumpi\n      dup1\n      0x24822514\n      eq\n      tag_10\n      jumpi\n      dup1\n      0x42842e0e\n      eq\n      tag_11\n      jumpi\n      dup1\n      0x6352211e\n      eq\n      tag_12\n      jumpi\n      jump(tag_2)\n    tag_26:\n      dup1\n      0x01ffc9a7\n      eq\n      tag_3\n      jumpi\n      dup1\n      0x02fe5305\n      eq\n      tag_4\n      jumpi\n      dup1\n      0x06fdde03\n      eq\n      tag_5\n      jumpi\n      dup1\n      0x081812fc\n      eq\n      tag_6\n      jumpi\n      dup1\n      0x095ea7b3\n      eq\n      tag_7\n      jumpi\n    tag_2:\n      0x00\n      dup1\n      revert\n        /* \"@openzeppelin/contracts/token/ERC721/ERC721.sol\":1570:1870  function supportsInterface(bytes4 interfaceId) public view virtual override(ERC165, IERC165) returns (bool) {... */\n    tag_3:\n      tag_27\n      0x04\n      dup1\n      calldatasize\n      sub\n      dup2\n      add\n      swap1\n      tag_28\n      swap2\n      swap1\n      tag_29\n      jump\t// in\n    tag_28:\n      tag_30\n      jump\t// in\n    tag_27:\n      mload(0x40)\n      tag_31\n      swap2\n      swap1\n      tag_32\n      jump\t// in\n    tag_31:\n      mload(0x40)\n      dup1\n      swap2\n      sub\n      swap1\n      return\n        /* \"contracts/MyToken.sol\":429:508  function setURI(string memory uri) public onlyOwner{... */\n    tag_4:\n      tag_33\n      0x04\n      dup1\n      calldatasize\n      sub\n      dup2\n      add\n      swap1\n      tag_34\n      swap2\n      swap1\n      tag_35\n      jump\t// in\n    tag_34:\n      tag_36\n      jump\t// in\n    tag_33:\n      stop\n        /* \"@openzeppelin/contracts/token/ERC721/ERC721.sol\":2470:2568  function name() public view virtual override returns (string memory) {... */\n    tag_5:\n      tag_37\n      tag_38\n      jump\t// in\n    tag_37:\n      mload(0x40)\n      tag_39\n      swap2\n      swap1\n      tag_40\n      jump\t// in\n    tag_39:\n      mload(0x40)\n      dup1\n      swap2\n      sub\n      swap1\n      return\n        /* \"@openzeppelin/contracts/token/ERC721/ERC721.sol\":3935:4102  function getApproved(uint256 tokenId) public view virtual override returns (address) {... */\n    tag_6:\n      tag_41\n      0x04\n      dup1\n      calldatasize\n      sub\n      dup2\n      add\n      swap1\n      tag_42\n      swap2\n      swap1\n      tag_43\n      jump\t// in\n    tag_42:\n      tag_44\n      jump\t// in\n    tag_41:\n      mload(0x40)\n      tag_45\n      swap2\n      swap1\n      tag_46\n      jump\t// in\n    tag_45:\n      mload(0x40)\n      dup1\n      swap2\n      sub\n      swap1\n      return\n        /* \"@openzeppelin/contracts/token/ERC721/ERC721.sol\":3467:3874  function approve(address to, uint256 tokenId) public virtual override {... */\n    tag_7:\n      tag_47\n      0x04\n      dup1\n      calldatasize\n      sub\n      dup2\n      add\n      swap1\n      tag_48\n      swap2\n      swap1\n      tag_49\n      jump\t// in\n    tag_48:\n      tag_50\n      jump\t// in\n    tag_47:\n      stop\n        /* \"contracts/MyToken.sol\":784:875  function mint() public {... */\n    tag_8:\n      tag_51\n      tag_52\n      jump\t// in\n    tag_51:\n      stop\n        /* \"@openzeppelin/contracts/token/ERC721/ERC721.sol\":4612:4939  function transferFrom(... */\n    tag_9:\n      tag_53\n      0x04\n      dup1\n      calldatasize\n      sub\n      dup2\n      add\n      swap1\n      tag_54\n      swap2\n      swap1\n      tag_55\n      jump\t// in\n    tag_54:\n      tag_56\n      jump\t// in\n    tag_53:\n      stop\n        /* \"contracts/MyToken.sol\":299:322  uint256 public _tokenId */\n    tag_10:\n      tag_57\n      tag_58\n      jump\t// in\n    tag_57:\n      mload(0x40)\n      tag_59\n      swap2\n      swap1\n      tag_60\n      jump\t// in\n    tag_59:\n      mload(0x40)\n      dup1\n      swap2\n      sub\n      swap1\n      return\n        /* \"@openzeppelin/contracts/token/ERC721/ERC721.sol\":5005:5184  function safeTransferFrom(... */\n    tag_11:\n      tag_61\n      0x04\n      dup1\n      calldatasize\n      sub\n      dup2\n      add\n      swap1\n      tag_62\n      swap2\n      swap1\n      tag_55\n      jump\t// in\n    tag_62:\n      tag_63\n      jump\t// in\n    tag_61:\n      stop\n        /* \"@openzeppelin/contracts/token/ERC721/ERC721.sol\":2190:2408  function ownerOf(uint256 tokenId) public view virtual override returns (address) {... */\n    tag_12:\n      tag_64\n      0x04\n      dup1\n      calldatasize\n      sub\n      dup2\n      add\n      swap1\n      tag_65\n      swap2\n      swap1\n      tag_43\n      jump\t// in\n    tag_65:\n      tag_66\n      jump\t// in\n    tag_64:\n      mload(0x40)\n      tag_67\n      swap2\n      swap1\n      tag_46\n      jump\t// in\n    tag_67:\n      mload(0x40)\n      dup1\n      swap2\n      sub\n      swap1\n      return\n        /* \"contracts/MyToken.sol\":262:293  string public baseURI=\"ipfs://\" */\n    tag_13:\n      tag_68\n      tag_69\n      jump\t// in\n    tag_68:\n      mload(0x40)\n      tag_70\n      swap2\n      swap1\n      tag_40\n      jump\t// in\n    tag_70:\n      mload(0x40)\n      dup1\n      swap2\n      sub\n      swap1\n      return\n        /* \"@openzeppelin/contracts/token/ERC721/ERC721.sol\":1929:2133  function balanceOf(address owner) public view virtual override returns (uint256) {... */\n    tag_14:\n      tag_71\n      0x04\n      dup1\n      calldatasize\n      sub\n      dup2\n      add\n      swap1\n      tag_72\n      swap2\n      swap1\n      tag_73\n      jump\t// in\n    tag_72:\n      tag_74\n      jump\t// in\n    tag_71:\n      mload(0x40)\n      tag_75\n      swap2\n      swap1\n      tag_60\n      jump\t// in\n    tag_75:\n      mload(0x40)\n      dup1\n      swap2\n      sub\n      swap1\n      return\n        /* \"@openzeppelin/contracts/access/Ownable.sol\":1831:1932  function renounceOwnership() public virtual onlyOwner {... */\n    tag_15:\n      tag_76\n      tag_77\n      jump\t// in\n    tag_76:\n      stop\n        /* \"@openzeppelin/contracts/access/Ownable.sol\":1201:1286  function owner() public view virtual returns (address) {... */\n    tag_16:\n      tag_78\n      tag_79\n      jump\t// in\n    tag_78:\n      mload(0x40)\n      tag_80\n      swap2\n      swap1\n      tag_46\n      jump\t// in\n    tag_80:\n      mload(0x40)\n      dup1\n      swap2\n      sub\n      swap1\n      return\n        /* \"@openzeppelin/contracts/token/ERC721/ERC721.sol\":2632:2734  function symbol() public view virtual override returns (string memory) {... */\n    tag_17:\n      tag_81\n      tag_82\n      jump\t// in\n    tag_81:\n      mload(0x40)\n      tag_83\n      swap2\n      swap1\n      tag_40\n      jump\t// in\n    tag_83:\n      mload(0x40)\n      dup1\n      swap2\n      sub\n      swap1\n      return\n        /* \"contracts/MyToken.sol\":329:423  function safeMint(address to, uint256 tokenId) public  {... */\n    tag_18:\n      tag_84\n      0x04\n      dup1\n      calldatasize\n      sub\n      dup2\n      add\n      swap1\n      tag_85\n      swap2\n      swap1\n      tag_49\n      jump\t// in\n    tag_85:\n      tag_86\n      jump\t// in\n    tag_84:\n      stop\n        /* \"@openzeppelin/contracts/token/ERC721/ERC721.sol\":4169:4322  function setApprovalForAll(address operator, bool approved) public virtual override {... */\n    tag_19:\n      tag_87\n      0x04\n      dup1\n      calldatasize\n      sub\n      dup2\n      add\n      swap1\n      tag_88\n      swap2\n      swap1\n      tag_89\n      jump\t// in\n    tag_88:\n      tag_90\n      jump\t// in\n    tag_87:\n      stop\n        /* \"@openzeppelin/contracts/token/ERC721/ERC721.sol\":5250:5565  function safeTransferFrom(... */\n    tag_20:\n      tag_91\n      0x04\n      dup1\n      calldatasize\n      sub\n      dup2\n      add\n      swap1\n      tag_92\n      swap2\n      swap1\n      tag_93\n      jump\t// in\n    tag_92:\n      tag_94\n      jump\t// in\n    tag_91:\n      stop\n        /* \"contracts/MyToken.sol\":625:778  function tokenURI(uint256 tokenId) public view virtual override returns (string memory) {... */\n    tag_21:\n      tag_95\n      0x04\n      dup1\n      calldatasize\n      sub\n      dup2\n      add\n      swap1\n      tag_96\n      swap2\n      swap1\n      tag_43\n      jump\t// in\n    tag_96:\n      tag_97\n      jump\t// in\n    tag_95:\n      mload(0x40)\n      tag_98\n      swap2\n      swap1\n      tag_40\n      jump\t// in\n    tag_98:\n      mload(0x40)\n      dup1\n      swap2\n      sub\n      swap1\n      return\n        /* \"@openzeppelin/contracts/token/ERC721/ERC721.sol\":4388:4550  function isApprovedForAll(address owner, address operator) public view virtual override returns (bool) {... */\n    tag_22:\n      tag_99\n      0x04\n      dup1\n      calldatasize\n      sub\n      dup2\n      add\n      swap1\n      tag_100\n      swap2\n      swap1\n      tag_101\n      jump\t// in\n    tag_100:\n      tag_102\n      jump\t// in\n    tag_99:\n      mload(0x40)\n      tag_103\n      swap2\n      swap1\n      tag_32\n      jump\t// in\n    tag_103:\n      mload(0x40)\n      dup1\n      swap2\n      sub\n      swap1\n      return\n        /* \"@openzeppelin/contracts/access/Ownable.sol\":2081:2279  function transferOwnership(address newOwner) public virtual onlyOwner {... */\n    tag_23:\n      tag_104\n      0x04\n      dup1\n      calldatasize\n      sub\n      dup2\n      add\n      swap1\n      tag_105\n      swap2\n      swap1\n      tag_73\n      jump\t// in\n    tag_105:\n      tag_106\n      jump\t// in\n    tag_104:\n      stop\n        /* \"@openzeppelin/contracts/token/ERC721/ERC721.sol\":1570:1870  function supportsInterface(bytes4 interfaceId) public view virtual override(ERC165, IERC165) returns (bool) {... */\n    tag_30:\n        /* \"@openzeppelin/contracts/token/ERC721/ERC721.sol\":1672:1676  bool */\n      0x00\n        /* \"@openzeppelin/contracts/token/ERC721/ERC721.sol\":1722:1747  type(IERC721).interfaceId */\n      0x80ac58cd00000000000000000000000000000000000000000000000000000000\n        /* \"@openzeppelin/contracts/token/ERC721/ERC721.sol\":1707:1747  interfaceId == type(IERC721).interfaceId */\n      not(0xffffffffffffffffffffffffffffffffffffffffffffffffffffffff)\n      and\n        /* \"@openzeppelin/contracts/token/ERC721/ERC721.sol\":1707:1718  interfaceId */\n      dup3\n        /* \"@openzeppelin/contracts/token/ERC721/ERC721.sol\":1707:1747  interfaceId == type(IERC721).interfaceId */\n      not(0xffffffffffffffffffffffffffffffffffffffffffffffffffffffff)\n      and\n      eq\n        /* \"@openzeppelin/contracts/token/ERC721/ERC721.sol\":1707:1811  interfaceId == type(IERC721).interfaceId ||... */\n      dup1\n      tag_108\n      jumpi\n      pop\n        /* \"@openzeppelin/contracts/token/ERC721/ERC721.sol\":1778:1811  type(IERC721Metadata).interfaceId */\n      0x5b5e139f00000000000000000000000000000000000000000000000000000000\n        /* \"@openzeppelin/contracts/token/ERC721/ERC721.sol\":1763:1811  interfaceId == type(IERC721Metadata).interfaceId */\n      not(0xffffffffffffffffffffffffffffffffffffffffffffffffffffffff)\n      and\n        /* \"@openzeppelin/contracts/token/ERC721/ERC721.sol\":1763:1774  interfaceId */\n      dup3\n        /* \"@openzeppelin/contracts/token/ERC721/ERC721.sol\":1763:1811  interfaceId == type(IERC721Metadata).interfaceId */\n      not(0xffffffffffffffffffffffffffffffffffffffffffffffffffffffff)\n      and\n      eq\n        /* \"@openzeppelin/contracts/token/ERC721/ERC721.sol\":1707:1811  interfaceId == type(IERC721).interfaceId ||... */\n    tag_108:\n        /* \"@openzeppelin/contracts/token/ERC721/ERC721.sol\":1707:1863  interfaceId == type(IERC721).interfaceId ||... */\n      dup1\n      tag_109\n      jumpi\n      pop\n        /* \"@openzeppelin/contracts/token/ERC721/ERC721.sol\":1827:1863  super.supportsInterface(interfaceId) */\n      tag_110\n        /* \"@openzeppelin/contracts/token/ERC721/ERC721.sol\":1851:1862  interfaceId */\n      dup3\n        /* \"@openzeppelin/contracts/token/ERC721/ERC721.sol\":1827:1850  super.supportsInterface */\n      tag_111\n        /* \"@openzeppelin/contracts/token/ERC721/ERC721.sol\":1827:1863  super.supportsInterface(interfaceId) */\n      jump\t// in\n    tag_110:\n        /* \"@openzeppelin/contracts/token/ERC721/ERC721.sol\":1707:1863  interfaceId == type(IERC721).interfaceId ||... */\n    tag_109:\n        /* \"@openzeppelin/contracts/token/ERC721/ERC721.sol\":1688:1863  return... */\n      swap1\n      pop\n        /* \"@openzeppelin/contracts/token/ERC721/ERC721.sol\":1570:1870  function supportsInterface(bytes4 interfaceId) public view virtual override(ERC165, IERC165) returns (bool) {... */\n      swap2\n      swap1\n      pop\n      jump\t// out\n        /* \"contracts/MyToken.sol\":429:508  function setURI(string memory uri) public onlyOwner{... */\n    tag_36:\n        /* \"@openzeppelin/contracts/access/Ownable.sol\":1094:1107  _checkOwner() */\n      tag_113\n        /* \"@openzeppelin/contracts/access/Ownable.sol\":1094:1105  _checkOwner */\n      tag_114\n        /* \"@openzeppelin/contracts/access/Ownable.sol\":1094:1107  _checkOwner() */\n      jump\t// in\n    tag_113:\n        /* \"contracts/MyToken.sol\":498:501  uri */\n      dup1\n        /* \"contracts/MyToken.sol\":490:497  baseURI */\n      0x07\n        /* \"contracts/MyToken.sol\":490:501  baseURI=uri */\n      swap1\n      dup1\n      mload\n      swap1\n      0x20\n      add\n      swap1\n      tag_116\n      swap3\n      swap2\n      swap1\n      tag_117\n      jump\t// in\n    tag_116:\n      pop\n        /* \"contracts/MyToken.sol\":429:508  function setURI(string memory uri) public onlyOwner{... */\n      pop\n      jump\t// out\n        /* \"@openzeppelin/contracts/token/ERC721/ERC721.sol\":2470:2568  function name() public view virtual override returns (string memory) {... */\n    tag_38:\n        /* \"@openzeppelin/contracts/token/ERC721/ERC721.sol\":2524:2537  string memory */\n      0x60\n        /* \"@openzeppelin/contracts/token/ERC721/ERC721.sol\":2556:2561  _name */\n      0x00\n        /* \"@openzeppelin/contracts/token/ERC721/ERC721.sol\":2549:2561  return _name */\n      dup1\n      sload\n      tag_119\n      swap1\n      tag_120\n      jump\t// in\n    tag_119:\n      dup1\n      0x1f\n      add\n      0x20\n      dup1\n      swap2\n      div\n      mul\n      0x20\n      add\n      mload(0x40)\n      swap1\n      dup2\n      add\n      0x40\n      mstore\n      dup1\n      swap3\n      swap2\n      swap1\n      dup2\n      dup2\n      mstore\n      0x20\n      add\n      dup3\n      dup1\n      sload\n      tag_121\n      swap1\n      tag_120\n      jump\t// in\n    tag_121:\n      dup1\n      iszero\n      tag_122\n      jumpi\n      dup1\n      0x1f\n      lt\n      tag_123\n      jumpi\n      0x0100\n      dup1\n      dup4\n      sload\n      div\n      mul\n      dup4\n      mstore\n      swap2\n      0x20\n      add\n      swap2\n      jump(tag_122)\n    tag_123:\n      dup3\n      add\n      swap2\n      swap1\n      0x00\n      mstore\n      keccak256(0x00, 0x20)\n      swap1\n    tag_124:\n      dup2\n      sload\n      dup2\n      mstore\n      swap1\n      0x01\n      add\n      swap1\n      0x20\n      add\n      dup1\n      dup4\n      gt\n      tag_124\n      jumpi\n      dup3\n      swap1\n      sub\n      0x1f\n      and\n      dup3\n      add\n      swap2\n    tag_122:\n      pop\n      pop\n      pop\n      pop\n      pop\n      swap1\n      pop\n        /* \"@openzeppelin/contracts/token/ERC721/ERC721.sol\":2470:2568  function name() public view virtual override returns (string memory) {... */\n      swap1\n      jump\t// out\n        /* \"@openzeppelin/contracts/token/ERC721/ERC721.sol\":3935:4102  function getApproved(uint256 tokenId) public view virtual override returns (address) {... */\n    tag_44:\n        /* \"@openzeppelin/contracts/token/ERC721/ERC721.sol\":4011:4018  address */\n      0x00\n        /* \"@openzeppelin/contracts/token/ERC721/ERC721.sol\":4030:4053  _requireMinted(tokenId) */\n      tag_126\n        /* \"@openzeppelin/contracts/token/ERC721/ERC721.sol\":4045:4052  tokenId */\n      dup3\n        /* \"@openzeppelin/contracts/token/ERC721/ERC721.sol\":4030:4044  _requireMinted */\n      tag_127\n        /* \"@openzeppelin/contracts/token/ERC721/ERC721.sol\":4030:4053  _requireMinted(tokenId) */\n      jump\t// in\n    tag_126:\n        /* \"@openzeppelin/contracts/token/ERC721/ERC721.sol\":4071:4086  _tokenApprovals */\n      0x04\n        /* \"@openzeppelin/contracts/token/ERC721/ERC721.sol\":4071:4095  _tokenApprovals[tokenId] */\n      0x00\n        /* \"@openzeppelin/contracts/token/ERC721/ERC721.sol\":4087:4094  tokenId */\n      dup4\n        /* \"@openzeppelin/contracts/token/ERC721/ERC721.sol\":4071:4095  _tokenApprovals[tokenId] */\n      dup2\n      mstore\n      0x20\n      add\n      swap1\n      dup2\n      mstore\n      0x20\n      add\n      0x00\n      keccak256\n      0x00\n      swap1\n      sload\n      swap1\n      0x0100\n      exp\n      swap1\n      div\n      0xffffffffffffffffffffffffffffffffffffffff\n      and\n        /* \"@openzeppelin/contracts/token/ERC721/ERC721.sol\":4064:4095  return _tokenApprovals[tokenId] */\n      swap1\n      pop\n        /* \"@openzeppelin/contracts/token/ERC721/ERC721.sol\":3935:4102  function getApproved(uint256 tokenId) public view virtual override returns (address) {... */\n      swap2\n      swap1\n      pop\n      jump\t// out\n        /* \"@openzeppelin/contracts/token/ERC721/ERC721.sol\":3467:3874  function approve(address to, uint256 tokenId) public virtual override {... */\n    tag_50:\n        /* \"@openzeppelin/contracts/token/ERC721/ERC721.sol\":3547:3560  address owner */\n      0x00\n        /* \"@openzeppelin/contracts/token/ERC721/ERC721.sol\":3563:3586  ERC721.ownerOf(tokenId) */\n      tag_129\n        /* \"@openzeppelin/contracts/token/ERC721/ERC721.sol\":3578:3585  tokenId */\n      dup3\n        /* \"@openzeppelin/contracts/token/ERC721/ERC721.sol\":3563:3577  ERC721.ownerOf */\n      tag_66\n        /* \"@openzeppelin/contracts/token/ERC721/ERC721.sol\":3563:3586  ERC721.ownerOf(tokenId) */\n      jump\t// in\n    tag_129:\n        /* \"@openzeppelin/contracts/token/ERC721/ERC721.sol\":3547:3586  address owner = ERC721.ownerOf(tokenId) */\n      swap1\n      pop\n        /* \"@openzeppelin/contracts/token/ERC721/ERC721.sol\":3610:3615  owner */\n      dup1\n        /* \"@openzeppelin/contracts/token/ERC721/ERC721.sol\":3604:3615  to != owner */\n      0xffffffffffffffffffffffffffffffffffffffff\n      and\n        /* \"@openzeppelin/contracts/token/ERC721/ERC721.sol\":3604:3606  to */\n      dup4\n        /* \"@openzeppelin/contracts/token/ERC721/ERC721.sol\":3604:3615  to != owner */\n      0xffffffffffffffffffffffffffffffffffffffff\n      and\n      eq\n      iszero\n        /* \"@openzeppelin/contracts/token/ERC721/ERC721.sol\":3596:3653  require(to != owner, \"ERC721: approval to current owner\") */\n      tag_130\n      jumpi\n      mload(0x40)\n      0x08c379a000000000000000000000000000000000000000000000000000000000\n      dup2\n      mstore\n      0x04\n      add\n      tag_131\n      swap1\n      tag_132\n      jump\t// in\n    tag_131:\n      mload(0x40)\n      dup1\n      swap2\n      sub\n      swap1\n      revert\n    tag_130:\n        /* \"@openzeppelin/contracts/token/ERC721/ERC721.sol\":3701:3706  owner */\n      dup1\n        /* \"@openzeppelin/contracts/token/ERC721/ERC721.sol\":3685:3706  _msgSender() == owner */\n      0xffffffffffffffffffffffffffffffffffffffff\n      and\n        /* \"@openzeppelin/contracts/token/ERC721/ERC721.sol\":3685:3697  _msgSender() */\n      tag_133\n        /* \"@openzeppelin/contracts/token/ERC721/ERC721.sol\":3685:3695  _msgSender */\n      tag_134\n        /* \"@openzeppelin/contracts/token/ERC721/ERC721.sol\":3685:3697  _msgSender() */\n      jump\t// in\n    tag_133:\n        /* \"@openzeppelin/contracts/token/ERC721/ERC721.sol\":3685:3706  _msgSender() == owner */\n      0xffffffffffffffffffffffffffffffffffffffff\n      and\n      eq\n        /* \"@openzeppelin/contracts/token/ERC721/ERC721.sol\":3685:3747  _msgSender() == owner || isApprovedForAll(owner, _msgSender()) */\n      dup1\n      tag_135\n      jumpi\n      pop\n        /* \"@openzeppelin/contracts/token/ERC721/ERC721.sol\":3710:3747  isApprovedForAll(owner, _msgSender()) */\n      tag_136\n        /* \"@openzeppelin/contracts/token/ERC721/ERC721.sol\":3727:3732  owner */\n      dup2\n        /* \"@openzeppelin/contracts/token/ERC721/ERC721.sol\":3734:3746  _msgSender() */\n      tag_137\n        /* \"@openzeppelin/contracts/token/ERC721/ERC721.sol\":3734:3744  _msgSender */\n      tag_134\n        /* \"@openzeppelin/contracts/token/ERC721/ERC721.sol\":3734:3746  _msgSender() */\n      jump\t// in\n    tag_137:\n        /* \"@openzeppelin/contracts/token/ERC721/ERC721.sol\":3710:3726  isApprovedForAll */\n      tag_102\n        /* \"@openzeppelin/contracts/token/ERC721/ERC721.sol\":3710:3747  isApprovedForAll(owner, _msgSender()) */\n      jump\t// in\n    tag_136:\n        /* \"@openzeppelin/contracts/token/ERC721/ERC721.sol\":3685:3747  _msgSender() == owner || isApprovedForAll(owner, _msgSender()) */\n    tag_135:\n        /* \"@openzeppelin/contracts/token/ERC721/ERC721.sol\":3664:3835  require(... */\n      tag_138\n      jumpi\n      mload(0x40)\n      0x08c379a000000000000000000000000000000000000000000000000000000000\n      dup2\n      mstore\n      0x04\n      add\n      tag_139\n      swap1\n      tag_140\n      jump\t// in\n    tag_139:\n      mload(0x40)\n      dup1\n      swap2\n      sub\n      swap1\n      revert\n    tag_138:\n        /* \"@openzeppelin/contracts/token/ERC721/ERC721.sol\":3846:3867  _approve(to, tokenId) */\n      tag_141\n        /* \"@openzeppelin/contracts/token/ERC721/ERC721.sol\":3855:3857  to */\n      dup4\n        /* \"@openzeppelin/contracts/token/ERC721/ERC721.sol\":3859:3866  tokenId */\n      dup4\n        /* \"@openzeppelin/contracts/token/ERC721/ERC721.sol\":3846:3854  _approve */\n      tag_142\n        /* \"@openzeppelin/contracts/token/ERC721/ERC721.sol\":3846:3867  _approve(to, tokenId) */\n      jump\t// in\n    tag_141:\n        /* \"@openzeppelin/contracts/token/ERC721/ERC721.sol\":3537:3874  {... */\n      pop\n        /* \"@openzeppelin/contracts/token/ERC721/ERC721.sol\":3467:3874  function approve(address to, uint256 tokenId) public virtual override {... */\n      pop\n      pop\n      jump\t// out\n        /* \"contracts/MyToken.sol\":784:875  function mint() public {... */\n    tag_52:\n        /* \"contracts/MyToken.sol\":817:848  _safeMint(msg.sender, _tokenId) */\n      tag_144\n        /* \"contracts/MyToken.sol\":827:837  msg.sender */\n      caller\n        /* \"contracts/MyToken.sol\":839:847  _tokenId */\n      sload(0x08)\n        /* \"contracts/MyToken.sol\":817:826  _safeMint */\n      tag_145\n        /* \"contracts/MyToken.sol\":817:848  _safeMint(msg.sender, _tokenId) */\n      jump\t// in\n    tag_144:\n        /* \"contracts/MyToken.sol\":858:866  _tokenId */\n      0x08\n      0x00\n        /* \"contracts/MyToken.sol\":858:868  _tokenId++ */\n      dup2\n      sload\n      dup1\n      swap3\n      swap2\n      swap1\n      tag_146\n      swap1\n      tag_147\n      jump\t// in\n    tag_146:\n      swap2\n      swap1\n      pop\n      sstore\n      pop\n        /* \"contracts/MyToken.sol\":784:875  function mint() public {... */\n      jump\t// out\n        /* \"@openzeppelin/contracts/token/ERC721/ERC721.sol\":4612:4939  function transferFrom(... */\n    tag_56:\n        /* \"@openzeppelin/contracts/token/ERC721/ERC721.sol\":4801:4842  _isApprovedOrOwner(_msgSender(), tokenId) */\n      tag_149\n        /* \"@openzeppelin/contracts/token/ERC721/ERC721.sol\":4820:4832  _msgSender() */\n      tag_150\n        /* \"@openzeppelin/contracts/token/ERC721/ERC721.sol\":4820:4830  _msgSender */\n      tag_134\n        /* \"@openzeppelin/contracts/token/ERC721/ERC721.sol\":4820:4832  _msgSender() */\n      jump\t// in\n    tag_150:\n        /* \"@openzeppelin/contracts/token/ERC721/ERC721.sol\":4834:4841  tokenId */\n      dup3\n        /* \"@openzeppelin/contracts/token/ERC721/ERC721.sol\":4801:4819  _isApprovedOrOwner */\n      tag_151\n        /* \"@openzeppelin/contracts/token/ERC721/ERC721.sol\":4801:4842  _isApprovedOrOwner(_msgSender(), tokenId) */\n      jump\t// in\n    tag_149:\n        /* \"@openzeppelin/contracts/token/ERC721/ERC721.sol\":4793:4893  require(_isApprovedOrOwner(_msgSender(), tokenId), \"ERC721: caller is not token owner nor approved\") */\n      tag_152\n      jumpi\n      mload(0x40)\n      0x08c379a000000000000000000000000000000000000000000000000000000000\n      dup2\n      mstore\n      0x04\n      add\n      tag_153\n      swap1\n      tag_154\n      jump\t// in\n    tag_153:\n      mload(0x40)\n      dup1\n      swap2\n      sub\n      swap1\n      revert\n    tag_152:\n        /* \"@openzeppelin/contracts/token/ERC721/ERC721.sol\":4904:4932  _transfer(from, to, tokenId) */\n      tag_155\n        /* \"@openzeppelin/contracts/token/ERC721/ERC721.sol\":4914:4918  from */\n      dup4\n        /* \"@openzeppelin/contracts/token/ERC721/ERC721.sol\":4920:4922  to */\n      dup4\n        /* \"@openzeppelin/contracts/token/ERC721/ERC721.sol\":4924:4931  tokenId */\n      dup4\n        /* \"@openzeppelin/contracts/token/ERC721/ERC721.sol\":4904:4913  _transfer */\n      tag_156\n        /* \"@openzeppelin/contracts/token/ERC721/ERC721.sol\":4904:4932  _transfer(from, to, tokenId) */\n      jump\t// in\n    tag_155:\n        /* \"@openzeppelin/contracts/token/ERC721/ERC721.sol\":4612:4939  function transferFrom(... */\n      pop\n      pop\n      pop\n      jump\t// out\n        /* \"contracts/MyToken.sol\":299:322  uint256 public _tokenId */\n    tag_58:\n      sload(0x08)\n      dup2\n      jump\t// out\n        /* \"@openzeppelin/contracts/token/ERC721/ERC721.sol\":5005:5184  function safeTransferFrom(... */\n    tag_63:\n        /* \"@openzeppelin/contracts/token/ERC721/ERC721.sol\":5138:5177  safeTransferFrom(from, to, tokenId, \"\") */\n      tag_158\n        /* \"@openzeppelin/contracts/token/ERC721/ERC721.sol\":5155:5159  from */\n      dup4\n        /* \"@openzeppelin/contracts/token/ERC721/ERC721.sol\":5161:5163  to */\n      dup4\n        /* \"@openzeppelin/contracts/token/ERC721/ERC721.sol\":5165:5172  tokenId */\n      dup4\n        /* \"@openzeppelin/contracts/token/ERC721/ERC721.sol\":5138:5177  safeTransferFrom(from, to, tokenId, \"\") */\n      mload(0x40)\n      dup1\n      0x20\n      add\n      0x40\n      mstore\n      dup1\n      0x00\n      dup2\n      mstore\n      pop\n        /* \"@openzeppelin/contracts/token/ERC721/ERC721.sol\":5138:5154  safeTransferFrom */\n      tag_94\n        /* \"@openzeppelin/contracts/token/ERC721/ERC721.sol\":5138:5177  safeTransferFrom(from, to, tokenId, \"\") */\n      jump\t// in\n    tag_158:\n        /* \"@openzeppelin/contracts/token/ERC721/ERC721.sol\":5005:5184  function safeTransferFrom(... */\n      pop\n      pop\n      pop\n      jump\t// out\n        /* \"@openzeppelin/contracts/token/ERC721/ERC721.sol\":2190:2408  function ownerOf(uint256 tokenId) public view virtual override returns (address) {... */\n    tag_66:\n        /* \"@openzeppelin/contracts/token/ERC721/ERC721.sol\":2262:2269  address */\n      0x00\n        /* \"@openzeppelin/contracts/token/ERC721/ERC721.sol\":2281:2294  address owner */\n      dup1\n        /* \"@openzeppelin/contracts/token/ERC721/ERC721.sol\":2297:2304  _owners */\n      0x02\n        /* \"@openzeppelin/contracts/token/ERC721/ERC721.sol\":2297:2313  _owners[tokenId] */\n      0x00\n        /* \"@openzeppelin/contracts/token/ERC721/ERC721.sol\":2305:2312  tokenId */\n      dup5\n        /* \"@openzeppelin/contracts/token/ERC721/ERC721.sol\":2297:2313  _owners[tokenId] */\n      dup2\n      mstore\n      0x20\n      add\n      swap1\n      dup2\n      mstore\n      0x20\n      add\n      0x00\n      keccak256\n      0x00\n      swap1\n      sload\n      swap1\n      0x0100\n      exp\n      swap1\n      div\n      0xffffffffffffffffffffffffffffffffffffffff\n      and\n        /* \"@openzeppelin/contracts/token/ERC721/ERC721.sol\":2281:2313  address owner = _owners[tokenId] */\n      swap1\n      pop\n        /* \"@openzeppelin/contracts/token/ERC721/ERC721.sol\":2348:2349  0 */\n      0x00\n        /* \"@openzeppelin/contracts/token/ERC721/ERC721.sol\":2331:2350  owner != address(0) */\n      0xffffffffffffffffffffffffffffffffffffffff\n      and\n        /* \"@openzeppelin/contracts/token/ERC721/ERC721.sol\":2331:2336  owner */\n      dup2\n        /* \"@openzeppelin/contracts/token/ERC721/ERC721.sol\":2331:2350  owner != address(0) */\n      0xffffffffffffffffffffffffffffffffffffffff\n      and\n      eq\n      iszero\n        /* \"@openzeppelin/contracts/token/ERC721/ERC721.sol\":2323:2379  require(owner != address(0), \"ERC721: invalid token ID\") */\n      tag_160\n      jumpi\n      mload(0x40)\n      0x08c379a000000000000000000000000000000000000000000000000000000000\n      dup2\n      mstore\n      0x04\n      add\n      tag_161\n      swap1\n      tag_162\n      jump\t// in\n    tag_161:\n      mload(0x40)\n      dup1\n      swap2\n      sub\n      swap1\n      revert\n    tag_160:\n        /* \"@openzeppelin/contracts/token/ERC721/ERC721.sol\":2396:2401  owner */\n      dup1\n        /* \"@openzeppelin/contracts/token/ERC721/ERC721.sol\":2389:2401  return owner */\n      swap2\n      pop\n      pop\n        /* \"@openzeppelin/contracts/token/ERC721/ERC721.sol\":2190:2408  function ownerOf(uint256 tokenId) public view virtual override returns (address) {... */\n      swap2\n      swap1\n      pop\n      jump\t// out\n        /* \"contracts/MyToken.sol\":262:293  string public baseURI=\"ipfs://\" */\n    tag_69:\n      0x07\n      dup1\n      sload\n      tag_163\n      swap1\n      tag_120\n      jump\t// in\n    tag_163:\n      dup1\n      0x1f\n      add\n      0x20\n      dup1\n      swap2\n      div\n      mul\n      0x20\n      add\n      mload(0x40)\n      swap1\n      dup2\n      add\n      0x40\n      mstore\n      dup1\n      swap3\n      swap2\n      swap1\n      dup2\n      dup2\n      mstore\n      0x20\n      add\n      dup3\n      dup1\n      sload\n      tag_164\n      swap1\n      tag_120\n      jump\t// in\n    tag_164:\n      dup1\n      iszero\n      tag_165\n      jumpi\n      dup1\n      0x1f\n      lt\n      tag_166\n      jumpi\n      0x0100\n      dup1\n      dup4\n      sload\n      div\n      mul\n      dup4\n      mstore\n      swap2\n      0x20\n      add\n      swap2\n      jump(tag_165)\n    tag_166:\n      dup3\n      add\n      swap2\n      swap1\n      0x00\n      mstore\n      keccak256(0x00, 0x20)\n      swap1\n    tag_167:\n      dup2\n      sload\n      dup2\n      mstore\n      swap1\n      0x01\n      add\n      swap1\n      0x20\n      add\n      dup1\n      dup4\n      gt\n      tag_167\n      jumpi\n      dup3\n      swap1\n      sub\n      0x1f\n      and\n      dup3\n      add\n      swap2\n    tag_165:\n      pop\n      pop\n      pop\n      pop\n      pop\n      dup2\n      jump\t// out\n        /* \"@openzeppelin/contracts/token/ERC721/ERC721.sol\":1929:2133  function balanceOf(address owner) public view virtual override returns (uint256) {... */\n    tag_74:\n        /* \"@openzeppelin/contracts/token/ERC721/ERC721.sol\":2001:2008  uint256 */\n      0x00\n        /* \"@openzeppelin/contracts/token/ERC721/ERC721.sol\":2045:2046  0 */\n      dup1\n        /* \"@openzeppelin/contracts/token/ERC721/ERC721.sol\":2028:2047  owner != address(0) */\n      0xffffffffffffffffffffffffffffffffffffffff\n      and\n        /* \"@openzeppelin/contracts/token/ERC721/ERC721.sol\":2028:2033  owner */\n      dup3\n        /* \"@openzeppelin/contracts/token/ERC721/ERC721.sol\":2028:2047  owner != address(0) */\n      0xffffffffffffffffffffffffffffffffffffffff\n      and\n      eq\n      iszero\n        /* \"@openzeppelin/contracts/token/ERC721/ERC721.sol\":2020:2093  require(owner != address(0), \"ERC721: address zero is not a valid owner\") */\n      tag_169\n      jumpi\n      mload(0x40)\n      0x08c379a000000000000000000000000000000000000000000000000000000000\n      dup2\n      mstore\n      0x04\n      add\n      tag_170\n      swap1\n      tag_171\n      jump\t// in\n    tag_170:\n      mload(0x40)\n      dup1\n      swap2\n      sub\n      swap1\n      revert\n    tag_169:\n        /* \"@openzeppelin/contracts/token/ERC721/ERC721.sol\":2110:2119  _balances */\n      0x03\n        /* \"@openzeppelin/contracts/token/ERC721/ERC721.sol\":2110:2126  _balances[owner] */\n      0x00\n        /* \"@openzeppelin/contracts/token/ERC721/ERC721.sol\":2120:2125  owner */\n      dup4\n        /* \"@openzeppelin/contracts/token/ERC721/ERC721.sol\":2110:2126  _balances[owner] */\n      0xffffffffffffffffffffffffffffffffffffffff\n      and\n      0xffffffffffffffffffffffffffffffffffffffff\n      and\n      dup2\n      mstore\n      0x20\n      add\n      swap1\n      dup2\n      mstore\n      0x20\n      add\n      0x00\n      keccak256\n      sload\n        /* \"@openzeppelin/contracts/token/ERC721/ERC721.sol\":2103:2126  return _balances[owner] */\n      swap1\n      pop\n        /* \"@openzeppelin/contracts/token/ERC721/ERC721.sol\":1929:2133  function balanceOf(address owner) public view virtual override returns (uint256) {... */\n      swap2\n      swap1\n      pop\n      jump\t// out\n        /* \"@openzeppelin/contracts/access/Ownable.sol\":1831:1932  function renounceOwnership() public virtual onlyOwner {... */\n    tag_77:\n        /* \"@openzeppelin/contracts/access/Ownable.sol\":1094:1107  _checkOwner() */\n      tag_173\n        /* \"@openzeppelin/contracts/access/Ownable.sol\":1094:1105  _checkOwner */\n      tag_114\n        /* \"@openzeppelin/contracts/access/Ownable.sol\":1094:1107  _checkOwner() */\n      jump\t// in\n    tag_173:\n        /* \"@openzeppelin/contracts/access/Ownable.sol\":1895:1925  _transferOwnership(address(0)) */\n      tag_175\n        /* \"@openzeppelin/contracts/access/Ownable.sol\":1922:1923  0 */\n      0x00\n        /* \"@openzeppelin/contracts/access/Ownable.sol\":1895:1913  _transferOwnership */\n      tag_176\n        /* \"@openzeppelin/contracts/access/Ownable.sol\":1895:1925  _transferOwnership(address(0)) */\n      jump\t// in\n    tag_175:\n        /* \"@openzeppelin/contracts/access/Ownable.sol\":1831:1932  function renounceOwnership() public virtual onlyOwner {... */\n      jump\t// out\n        /* \"@openzeppelin/contracts/access/Ownable.sol\":1201:1286  function owner() public view virtual returns (address) {... */\n    tag_79:\n        /* \"@openzeppelin/contracts/access/Ownable.sol\":1247:1254  address */\n      0x00\n        /* \"@openzeppelin/contracts/access/Ownable.sol\":1273:1279  _owner */\n      0x06\n      0x00\n      swap1\n      sload\n      swap1\n      0x0100\n      exp\n      swap1\n      div\n      0xffffffffffffffffffffffffffffffffffffffff\n      and\n        /* \"@openzeppelin/contracts/access/Ownable.sol\":1266:1279  return _owner */\n      swap1\n      pop\n        /* \"@openzeppelin/contracts/access/Ownable.sol\":1201:1286  function owner() public view virtual returns (address) {... */\n      swap1\n      jump\t// out\n        /* \"@openzeppelin/contracts/token/ERC721/ERC721.sol\":2632:2734  function symbol() public view virtual override returns (string memory) {... */\n    tag_82:\n        /* \"@openzeppelin/contracts/token/ERC721/ERC721.sol\":2688:2701  string memory */\n      0x60\n        /* \"@openzeppelin/contracts/token/ERC721/ERC721.sol\":2720:2727  _symbol */\n      0x01\n        /* \"@openzeppelin/contracts/token/ERC721/ERC721.sol\":2713:2727  return _symbol */\n      dup1\n      sload\n      tag_179\n      swap1\n      tag_120\n      jump\t// in\n    tag_179:\n      dup1\n      0x1f\n      add\n      0x20\n      dup1\n      swap2\n      div\n      mul\n      0x20\n      add\n      mload(0x40)\n      swap1\n      dup2\n      add\n      0x40\n      mstore\n      dup1\n      swap3\n      swap2\n      swap1\n      dup2\n      dup2\n      mstore\n      0x20\n      add\n      dup3\n      dup1\n      sload\n      tag_180\n      swap1\n      tag_120\n      jump\t// in\n    tag_180:\n      dup1\n      iszero\n      tag_181\n      jumpi\n      dup1\n      0x1f\n      lt\n      tag_182\n      jumpi\n      0x0100\n      dup1\n      dup4\n      sload\n      div\n      mul\n      dup4\n      mstore\n      swap2\n      0x20\n      add\n      swap2\n      jump(tag_181)\n    tag_182:\n      dup3\n      add\n      swap2\n      swap1\n      0x00\n      mstore\n      keccak256(0x00, 0x20)\n      swap1\n    tag_183:\n      dup2\n      sload\n      dup2\n      mstore\n      swap1\n      0x01\n      add\n      swap1\n      0x20\n      add\n      dup1\n      dup4\n      gt\n      tag_183\n      jumpi\n      dup3\n      swap1\n      sub\n      0x1f\n      and\n      dup3\n      add\n      swap2\n    tag_181:\n      pop\n      pop\n      pop\n      pop\n      pop\n      swap1\n      pop\n        /* \"@openzeppelin/contracts/token/ERC721/ERC721.sol\":2632:2734  function symbol() public view virtual override returns (string memory) {... */\n      swap1\n      jump\t// out\n        /* \"contracts/MyToken.sol\":329:423  function safeMint(address to, uint256 tokenId) public  {... */\n    tag_86:\n        /* \"contracts/MyToken.sol\":394:416  _safeMint(to, tokenId) */\n      tag_185\n        /* \"contracts/MyToken.sol\":404:406  to */\n      dup3\n        /* \"contracts/MyToken.sol\":408:415  tokenId */\n      dup3\n        /* \"contracts/MyToken.sol\":394:403  _safeMint */\n      tag_145\n        /* \"contracts/MyToken.sol\":394:416  _safeMint(to, tokenId) */\n      jump\t// in\n    tag_185:\n        /* \"contracts/MyToken.sol\":329:423  function safeMint(address to, uint256 tokenId) public  {... */\n      pop\n      pop\n      jump\t// out\n        /* \"@openzeppelin/contracts/token/ERC721/ERC721.sol\":4169:4322  function setApprovalForAll(address operator, bool approved) public virtual override {... */\n    tag_90:\n        /* \"@openzeppelin/contracts/token/ERC721/ERC721.sol\":4263:4315  _setApprovalForAll(_msgSender(), operator, approved) */\n      tag_187\n        /* \"@openzeppelin/contracts/token/ERC721/ERC721.sol\":4282:4294  _msgSender() */\n      tag_188\n        /* \"@openzeppelin/contracts/token/ERC721/ERC721.sol\":4282:4292  _msgSender */\n      tag_134\n        /* \"@openzeppelin/contracts/token/ERC721/ERC721.sol\":4282:4294  _msgSender() */\n      jump\t// in\n    tag_188:\n        /* \"@openzeppelin/contracts/token/ERC721/ERC721.sol\":4296:4304  operator */\n      dup4\n        /* \"@openzeppelin/contracts/token/ERC721/ERC721.sol\":4306:4314  approved */\n      dup4\n        /* \"@openzeppelin/contracts/token/ERC721/ERC721.sol\":4263:4281  _setApprovalForAll */\n      tag_189\n        /* \"@openzeppelin/contracts/token/ERC721/ERC721.sol\":4263:4315  _setApprovalForAll(_msgSender(), operator, approved) */\n      jump\t// in\n    tag_187:\n        /* \"@openzeppelin/contracts/token/ERC721/ERC721.sol\":4169:4322  function setApprovalForAll(address operator, bool approved) public virtual override {... */\n      pop\n      pop\n      jump\t// out\n        /* \"@openzeppelin/contracts/token/ERC721/ERC721.sol\":5250:5565  function safeTransferFrom(... */\n    tag_94:\n        /* \"@openzeppelin/contracts/token/ERC721/ERC721.sol\":5418:5459  _isApprovedOrOwner(_msgSender(), tokenId) */\n      tag_191\n        /* \"@openzeppelin/contracts/token/ERC721/ERC721.sol\":5437:5449  _msgSender() */\n      tag_192\n        /* \"@openzeppelin/contracts/token/ERC721/ERC721.sol\":5437:5447  _msgSender */\n      tag_134\n        /* \"@openzeppelin/contracts/token/ERC721/ERC721.sol\":5437:5449  _msgSender() */\n      jump\t// in\n    tag_192:\n        /* \"@openzeppelin/contracts/token/ERC721/ERC721.sol\":5451:5458  tokenId */\n      dup4\n        /* \"@openzeppelin/contracts/token/ERC721/ERC721.sol\":5418:5436  _isApprovedOrOwner */\n      tag_151\n        /* \"@openzeppelin/contracts/token/ERC721/ERC721.sol\":5418:5459  _isApprovedOrOwner(_msgSender(), tokenId) */\n      jump\t// in\n    tag_191:\n        /* \"@openzeppelin/contracts/token/ERC721/ERC721.sol\":5410:5510  require(_isApprovedOrOwner(_msgSender(), tokenId), \"ERC721: caller is not token owner nor approved\") */\n      tag_193\n      jumpi\n      mload(0x40)\n      0x08c379a000000000000000000000000000000000000000000000000000000000\n      dup2\n      mstore\n      0x04\n      add\n      tag_194\n      swap1\n      tag_154\n      jump\t// in\n    tag_194:\n      mload(0x40)\n      dup1\n      swap2\n      sub\n      swap1\n      revert\n    tag_193:\n        /* \"@openzeppelin/contracts/token/ERC721/ERC721.sol\":5520:5558  _safeTransfer(from, to, tokenId, data) */\n      tag_195\n        /* \"@openzeppelin/contracts/token/ERC721/ERC721.sol\":5534:5538  from */\n      dup5\n        /* \"@openzeppelin/contracts/token/ERC721/ERC721.sol\":5540:5542  to */\n      dup5\n        /* \"@openzeppelin/contracts/token/ERC721/ERC721.sol\":5544:5551  tokenId */\n      dup5\n        /* \"@openzeppelin/contracts/token/ERC721/ERC721.sol\":5553:5557  data */\n      dup5\n        /* \"@openzeppelin/contracts/token/ERC721/ERC721.sol\":5520:5533  _safeTransfer */\n      tag_196\n        /* \"@openzeppelin/contracts/token/ERC721/ERC721.sol\":5520:5558  _safeTransfer(from, to, tokenId, data) */\n      jump\t// in\n    tag_195:\n        /* \"@openzeppelin/contracts/token/ERC721/ERC721.sol\":5250:5565  function safeTransferFrom(... */\n      pop\n      pop\n      pop\n      pop\n      jump\t// out\n        /* \"contracts/MyToken.sol\":625:778  function tokenURI(uint256 tokenId) public view virtual override returns (string memory) {... */\n    tag_97:\n        /* \"contracts/MyToken.sol\":698:711  string memory */\n      0x60\n        /* \"contracts/MyToken.sol\":723:746  _requireMinted(tokenId) */\n      tag_198\n        /* \"contracts/MyToken.sol\":738:745  tokenId */\n      dup3\n        /* \"contracts/MyToken.sol\":723:737  _requireMinted */\n      tag_127\n        /* \"contracts/MyToken.sol\":723:746  _requireMinted(tokenId) */\n      jump\t// in\n    tag_198:\n        /* \"contracts/MyToken.sol\":764:771  baseURI */\n      0x07\n        /* \"contracts/MyToken.sol\":757:771  return baseURI */\n      dup1\n      sload\n      tag_199\n      swap1\n      tag_120\n      jump\t// in\n    tag_199:\n      dup1\n      0x1f\n      add\n      0x20\n      dup1\n      swap2\n      div\n      mul\n      0x20\n      add\n      mload(0x40)\n      swap1\n      dup2\n      add\n      0x40\n      mstore\n      dup1\n      swap3\n      swap2\n      swap1\n      dup2\n      dup2\n      mstore\n      0x20\n      add\n      dup3\n      dup1\n      sload\n      tag_200\n      swap1\n      tag_120\n      jump\t// in\n    tag_200:\n      dup1\n      iszero\n      tag_201\n      jumpi\n      dup1\n      0x1f\n      lt\n      tag_202\n      jumpi\n      0x0100\n      dup1\n      dup4\n      sload\n      div\n      mul\n      dup4\n      mstore\n      swap2\n      0x20\n      add\n      swap2\n      jump(tag_201)\n    tag_202:\n      dup3\n      add\n      swap2\n      swap1\n      0x00\n      mstore\n      keccak256(0x00, 0x20)\n      swap1\n    tag_203:\n      dup2\n      sload\n      dup2\n      mstore\n      swap1\n      0x01\n      add\n      swap1\n      0x20\n      add\n      dup1\n      dup4\n      gt\n      tag_203\n      jumpi\n      dup3\n      swap1\n      sub\n      0x1f\n      and\n      dup3\n      add\n      swap2\n    tag_201:\n      pop\n      pop\n      pop\n      pop\n      pop\n      swap1\n      pop\n        /* \"contracts/MyToken.sol\":625:778  function tokenURI(uint256 tokenId) public view virtual override returns (string memory) {... */\n      swap2\n      swap1\n      pop\n      jump\t// out\n        /* \"@openzeppelin/contracts/token/ERC721/ERC721.sol\":4388:4550  function isApprovedForAll(address owner, address operator) public view virtual override returns (bool) {... */\n    tag_102:\n        /* \"@openzeppelin/contracts/token/ERC721/ERC721.sol\":4485:4489  bool */\n      0x00\n        /* \"@openzeppelin/contracts/token/ERC721/ERC721.sol\":4508:4526  _operatorApprovals */\n      0x05\n        /* \"@openzeppelin/contracts/token/ERC721/ERC721.sol\":4508:4533  _operatorApprovals[owner] */\n      0x00\n        /* \"@openzeppelin/contracts/token/ERC721/ERC721.sol\":4527:4532  owner */\n      dup5\n        /* \"@openzeppelin/contracts/token/ERC721/ERC721.sol\":4508:4533  _operatorApprovals[owner] */\n      0xffffffffffffffffffffffffffffffffffffffff\n      and\n      0xffffffffffffffffffffffffffffffffffffffff\n      and\n      dup2\n      mstore\n      0x20\n      add\n      swap1\n      dup2\n      mstore\n      0x20\n      add\n      0x00\n      keccak256\n        /* \"@openzeppelin/contracts/token/ERC721/ERC721.sol\":4508:4543  _operatorApprovals[owner][operator] */\n      0x00\n        /* \"@openzeppelin/contracts/token/ERC721/ERC721.sol\":4534:4542  operator */\n      dup4\n        /* \"@openzeppelin/contracts/token/ERC721/ERC721.sol\":4508:4543  _operatorApprovals[owner][operator] */\n      0xffffffffffffffffffffffffffffffffffffffff\n      and\n      0xffffffffffffffffffffffffffffffffffffffff\n      and\n      dup2\n      mstore\n      0x20\n      add\n      swap1\n      dup2\n      mstore\n      0x20\n      add\n      0x00\n      keccak256\n      0x00\n      swap1\n      sload\n      swap1\n      0x0100\n      exp\n      swap1\n      div\n      0xff\n      and\n        /* \"@openzeppelin/contracts/token/ERC721/ERC721.sol\":4501:4543  return _operatorApprovals[owner][operator] */\n      swap1\n      pop\n        /* \"@openzeppelin/contracts/token/ERC721/ERC721.sol\":4388:4550  function isApprovedForAll(address owner, address operator) public view virtual override returns (bool) {... */\n      swap3\n      swap2\n      pop\n      pop\n      jump\t// out\n        /* \"@openzeppelin/contracts/access/Ownable.sol\":2081:2279  function transferOwnership(address newOwner) public virtual onlyOwner {... */\n    tag_106:\n        /* \"@openzeppelin/contracts/access/Ownable.sol\":1094:1107  _checkOwner() */\n      tag_206\n        /* \"@openzeppelin/contracts/access/Ownable.sol\":1094:1105  _checkOwner */\n      tag_114\n        /* \"@openzeppelin/contracts/access/Ownable.sol\":1094:1107  _checkOwner() */\n      jump\t// in\n    tag_206:\n        /* \"@openzeppelin/contracts/access/Ownable.sol\":2189:2190  0 */\n      0x00\n        /* \"@openzeppelin/contracts/access/Ownable.sol\":2169:2191  newOwner != address(0) */\n      0xffffffffffffffffffffffffffffffffffffffff\n      and\n        /* \"@openzeppelin/contracts/access/Ownable.sol\":2169:2177  newOwner */\n      dup2\n        /* \"@openzeppelin/contracts/access/Ownable.sol\":2169:2191  newOwner != address(0) */\n      0xffffffffffffffffffffffffffffffffffffffff\n      and\n      eq\n      iszero\n        /* \"@openzeppelin/contracts/access/Ownable.sol\":2161:2234  require(newOwner != address(0), \"Ownable: new owner is the zero address\") */\n      tag_208\n      jumpi\n      mload(0x40)\n      0x08c379a000000000000000000000000000000000000000000000000000000000\n      dup2\n      mstore\n      0x04\n      add\n      tag_209\n      swap1\n      tag_210\n      jump\t// in\n    tag_209:\n      mload(0x40)\n      dup1\n      swap2\n      sub\n      swap1\n      revert\n    tag_208:\n        /* \"@openzeppelin/contracts/access/Ownable.sol\":2244:2272  _transferOwnership(newOwner) */\n      tag_211\n        /* \"@openzeppelin/contracts/access/Ownable.sol\":2263:2271  newOwner */\n      dup2\n        /* \"@openzeppelin/contracts/access/Ownable.sol\":2244:2262  _transferOwnership */\n      tag_176\n        /* \"@openzeppelin/contracts/access/Ownable.sol\":2244:2272  _transferOwnership(newOwner) */\n      jump\t// in\n    tag_211:\n        /* \"@openzeppelin/contracts/access/Ownable.sol\":2081:2279  function transferOwnership(address newOwner) public virtual onlyOwner {... */\n      pop\n      jump\t// out\n        /* \"@openzeppelin/contracts/utils/introspection/ERC165.sol\":829:984  function supportsInterface(bytes4 interfaceId) public view virtual override returns (bool) {... */\n    tag_111:\n        /* \"@openzeppelin/contracts/utils/introspection/ERC165.sol\":914:918  bool */\n      0x00\n        /* \"@openzeppelin/contracts/utils/introspection/ERC165.sol\":952:977  type(IERC165).interfaceId */\n      0x01ffc9a700000000000000000000000000000000000000000000000000000000\n        /* \"@openzeppelin/contracts/utils/introspection/ERC165.sol\":937:977  interfaceId == type(IERC165).interfaceId */\n      not(0xffffffffffffffffffffffffffffffffffffffffffffffffffffffff)\n      and\n        /* \"@openzeppelin/contracts/utils/introspection/ERC165.sol\":937:948  interfaceId */\n      dup3\n        /* \"@openzeppelin/contracts/utils/introspection/ERC165.sol\":937:977  interfaceId == type(IERC165).interfaceId */\n      not(0xffffffffffffffffffffffffffffffffffffffffffffffffffffffff)\n      and\n      eq\n        /* \"@openzeppelin/contracts/utils/introspection/ERC165.sol\":930:977  return interfaceId == type(IERC165).interfaceId */\n      swap1\n      pop\n        /* \"@openzeppelin/contracts/utils/introspection/ERC165.sol\":829:984  function supportsInterface(bytes4 interfaceId) public view virtual override returns (bool) {... */\n      swap2\n      swap1\n      pop\n      jump\t// out\n        /* \"@openzeppelin/contracts/access/Ownable.sol\":1359:1489  function _checkOwner() internal view virtual {... */\n    tag_114:\n        /* \"@openzeppelin/contracts/access/Ownable.sol\":1433:1445  _msgSender() */\n      tag_214\n        /* \"@openzeppelin/contracts/access/Ownable.sol\":1433:1443  _msgSender */\n      tag_134\n        /* \"@openzeppelin/contracts/access/Ownable.sol\":1433:1445  _msgSender() */\n      jump\t// in\n    tag_214:\n        /* \"@openzeppelin/contracts/access/Ownable.sol\":1422:1445  owner() == _msgSender() */\n      0xffffffffffffffffffffffffffffffffffffffff\n      and\n        /* \"@openzeppelin/contracts/access/Ownable.sol\":1422:1429  owner() */\n      tag_215\n        /* \"@openzeppelin/contracts/access/Ownable.sol\":1422:1427  owner */\n      tag_79\n        /* \"@openzeppelin/contracts/access/Ownable.sol\":1422:1429  owner() */\n      jump\t// in\n    tag_215:\n        /* \"@openzeppelin/contracts/access/Ownable.sol\":1422:1445  owner() == _msgSender() */\n      0xffffffffffffffffffffffffffffffffffffffff\n      and\n      eq\n        /* \"@openzeppelin/contracts/access/Ownable.sol\":1414:1482  require(owner() == _msgSender(), \"Ownable: caller is not the owner\") */\n      tag_216\n      jumpi\n      mload(0x40)\n      0x08c379a000000000000000000000000000000000000000000000000000000000\n      dup2\n      mstore\n      0x04\n      add\n      tag_217\n      swap1\n      tag_218\n      jump\t// in\n    tag_217:\n      mload(0x40)\n      dup1\n      swap2\n      sub\n      swap1\n      revert\n    tag_216:\n        /* \"@openzeppelin/contracts/access/Ownable.sol\":1359:1489  function _checkOwner() internal view virtual {... */\n      jump\t// out\n        /* \"@openzeppelin/contracts/token/ERC721/ERC721.sol\":11657:11790  function _requireMinted(uint256 tokenId) internal view virtual {... */\n    tag_127:\n        /* \"@openzeppelin/contracts/token/ERC721/ERC721.sol\":11738:11754  _exists(tokenId) */\n      tag_220\n        /* \"@openzeppelin/contracts/token/ERC721/ERC721.sol\":11746:11753  tokenId */\n      dup2\n        /* \"@openzeppelin/contracts/token/ERC721/ERC721.sol\":11738:11745  _exists */\n      tag_221\n        /* \"@openzeppelin/contracts/token/ERC721/ERC721.sol\":11738:11754  _exists(tokenId) */\n      jump\t// in\n    tag_220:\n        /* \"@openzeppelin/contracts/token/ERC721/ERC721.sol\":11730:11783  require(_exists(tokenId), \"ERC721: invalid token ID\") */\n      tag_222\n      jumpi\n      mload(0x40)\n      0x08c379a000000000000000000000000000000000000000000000000000000000\n      dup2\n      mstore\n      0x04\n      add\n      tag_223\n      swap1\n      tag_162\n      jump\t// in\n    tag_223:\n      mload(0x40)\n      dup1\n      swap2\n      sub\n      swap1\n      revert\n    tag_222:\n        /* \"@openzeppelin/contracts/token/ERC721/ERC721.sol\":11657:11790  function _requireMinted(uint256 tokenId) internal view virtual {... */\n      pop\n      jump\t// out\n        /* \"@openzeppelin/contracts/utils/Context.sol\":640:736  function _msgSender() internal view virtual returns (address) {... */\n    tag_134:\n        /* \"@openzeppelin/contracts/utils/Context.sol\":693:700  address */\n      0x00\n        /* \"@openzeppelin/contracts/utils/Context.sol\":719:729  msg.sender */\n      caller\n        /* \"@openzeppelin/contracts/utils/Context.sol\":712:729  return msg.sender */\n      swap1\n      pop\n        /* \"@openzeppelin/contracts/utils/Context.sol\":640:736  function _msgSender() internal view virtual returns (address) {... */\n      swap1\n      jump\t// out\n        /* \"@openzeppelin/contracts/token/ERC721/ERC721.sol\":10959:11130  function _approve(address to, uint256 tokenId) internal virtual {... */\n    tag_142:\n        /* \"@openzeppelin/contracts/token/ERC721/ERC721.sol\":11060:11062  to */\n      dup2\n        /* \"@openzeppelin/contracts/token/ERC721/ERC721.sol\":11033:11048  _tokenApprovals */\n      0x04\n        /* \"@openzeppelin/contracts/token/ERC721/ERC721.sol\":11033:11057  _tokenApprovals[tokenId] */\n      0x00\n        /* \"@openzeppelin/contracts/token/ERC721/ERC721.sol\":11049:11056  tokenId */\n      dup4\n        /* \"@openzeppelin/contracts/token/ERC721/ERC721.sol\":11033:11057  _tokenApprovals[tokenId] */\n      dup2\n      mstore\n      0x20\n      add\n      swap1\n      dup2\n      mstore\n      0x20\n      add\n      0x00\n      keccak256\n      0x00\n        /* \"@openzeppelin/contracts/token/ERC721/ERC721.sol\":11033:11062  _tokenApprovals[tokenId] = to */\n      0x0100\n      exp\n      dup2\n      sload\n      dup2\n      0xffffffffffffffffffffffffffffffffffffffff\n      mul\n      not\n      and\n      swap1\n      dup4\n      0xffffffffffffffffffffffffffffffffffffffff\n      and\n      mul\n      or\n      swap1\n      sstore\n      pop\n        /* \"@openzeppelin/contracts/token/ERC721/ERC721.sol\":11115:11122  tokenId */\n      dup1\n        /* \"@openzeppelin/contracts/token/ERC721/ERC721.sol\":11111:11113  to */\n      dup3\n        /* \"@openzeppelin/contracts/token/ERC721/ERC721.sol\":11077:11123  Approval(ERC721.ownerOf(tokenId), to, tokenId) */\n      0xffffffffffffffffffffffffffffffffffffffff\n      and\n        /* \"@openzeppelin/contracts/token/ERC721/ERC721.sol\":11086:11109  ERC721.ownerOf(tokenId) */\n      tag_226\n        /* \"@openzeppelin/contracts/token/ERC721/ERC721.sol\":11101:11108  tokenId */\n      dup4\n        /* \"@openzeppelin/contracts/token/ERC721/ERC721.sol\":11086:11100  ERC721.ownerOf */\n      tag_66\n        /* \"@openzeppelin/contracts/token/ERC721/ERC721.sol\":11086:11109  ERC721.ownerOf(tokenId) */\n      jump\t// in\n    tag_226:\n        /* \"@openzeppelin/contracts/token/ERC721/ERC721.sol\":11077:11123  Approval(ERC721.ownerOf(tokenId), to, tokenId) */\n      0xffffffffffffffffffffffffffffffffffffffff\n      and\n      0x8c5be1e5ebec7d5bd14f71427d1e84f3dd0314c0f7b2291e5b200ac8c7c3b925\n      mload(0x40)\n      mload(0x40)\n      dup1\n      swap2\n      sub\n      swap1\n      log4\n        /* \"@openzeppelin/contracts/token/ERC721/ERC721.sol\":10959:11130  function _approve(address to, uint256 tokenId) internal virtual {... */\n      pop\n      pop\n      jump\t// out\n        /* \"@openzeppelin/contracts/token/ERC721/ERC721.sol\":7908:8016  function _safeMint(address to, uint256 tokenId) internal virtual {... */\n    tag_145:\n        /* \"@openzeppelin/contracts/token/ERC721/ERC721.sol\":7983:8009  _safeMint(to, tokenId, \"\") */\n      tag_228\n        /* \"@openzeppelin/contracts/token/ERC721/ERC721.sol\":7993:7995  to */\n      dup3\n        /* \"@openzeppelin/contracts/token/ERC721/ERC721.sol\":7997:8004  tokenId */\n      dup3\n        /* \"@openzeppelin/contracts/token/ERC721/ERC721.sol\":7983:8009  _safeMint(to, tokenId, \"\") */\n      mload(0x40)\n      dup1\n      0x20\n      add\n      0x40\n      mstore\n      dup1\n      0x00\n      dup2\n      mstore\n      pop\n        /* \"@openzeppelin/contracts/token/ERC721/ERC721.sol\":7983:7992  _safeMint */\n      tag_229\n        /* \"@openzeppelin/contracts/token/ERC721/ERC721.sol\":7983:8009  _safeMint(to, tokenId, \"\") */\n      jump\t// in\n    tag_228:\n        /* \"@openzeppelin/contracts/token/ERC721/ERC721.sol\":7908:8016  function _safeMint(address to, uint256 tokenId) internal virtual {... */\n      pop\n      pop\n      jump\t// out\n        /* \"@openzeppelin/contracts/token/ERC721/ERC721.sol\":7317:7578  function _isApprovedOrOwner(address spender, uint256 tokenId) internal view virtual returns (bool) {... */\n    tag_151:\n        /* \"@openzeppelin/contracts/token/ERC721/ERC721.sol\":7410:7414  bool */\n      0x00\n        /* \"@openzeppelin/contracts/token/ERC721/ERC721.sol\":7426:7439  address owner */\n      dup1\n        /* \"@openzeppelin/contracts/token/ERC721/ERC721.sol\":7442:7465  ERC721.ownerOf(tokenId) */\n      tag_231\n        /* \"@openzeppelin/contracts/token/ERC721/ERC721.sol\":7457:7464  tokenId */\n      dup4\n        /* \"@openzeppelin/contracts/token/ERC721/ERC721.sol\":7442:7456  ERC721.ownerOf */\n      tag_66\n        /* \"@openzeppelin/contracts/token/ERC721/ERC721.sol\":7442:7465  ERC721.ownerOf(tokenId) */\n      jump\t// in\n    tag_231:\n        /* \"@openzeppelin/contracts/token/ERC721/ERC721.sol\":7426:7465  address owner = ERC721.ownerOf(tokenId) */\n      swap1\n      pop\n        /* \"@openzeppelin/contracts/token/ERC721/ERC721.sol\":7494:7499  owner */\n      dup1\n        /* \"@openzeppelin/contracts/token/ERC721/ERC721.sol\":7483:7499  spender == owner */\n      0xffffffffffffffffffffffffffffffffffffffff\n      and\n        /* \"@openzeppelin/contracts/token/ERC721/ERC721.sol\":7483:7490  spender */\n      dup5\n        /* \"@openzeppelin/contracts/token/ERC721/ERC721.sol\":7483:7499  spender == owner */\n      0xffffffffffffffffffffffffffffffffffffffff\n      and\n      eq\n        /* \"@openzeppelin/contracts/token/ERC721/ERC721.sol\":7483:7535  spender == owner || isApprovedForAll(owner, spender) */\n      dup1\n      tag_232\n      jumpi\n      pop\n        /* \"@openzeppelin/contracts/token/ERC721/ERC721.sol\":7503:7535  isApprovedForAll(owner, spender) */\n      tag_233\n        /* \"@openzeppelin/contracts/token/ERC721/ERC721.sol\":7520:7525  owner */\n      dup2\n        /* \"@openzeppelin/contracts/token/ERC721/ERC721.sol\":7527:7534  spender */\n      dup6\n        /* \"@openzeppelin/contracts/token/ERC721/ERC721.sol\":7503:7519  isApprovedForAll */\n      tag_102\n        /* \"@openzeppelin/contracts/token/ERC721/ERC721.sol\":7503:7535  isApprovedForAll(owner, spender) */\n      jump\t// in\n    tag_233:\n        /* \"@openzeppelin/contracts/token/ERC721/ERC721.sol\":7483:7535  spender == owner || isApprovedForAll(owner, spender) */\n    tag_232:\n        /* \"@openzeppelin/contracts/token/ERC721/ERC721.sol\":7483:7570  spender == owner || isApprovedForAll(owner, spender) || getApproved(tokenId) == spender */\n      dup1\n      tag_234\n      jumpi\n      pop\n        /* \"@openzeppelin/contracts/token/ERC721/ERC721.sol\":7563:7570  spender */\n      dup4\n        /* \"@openzeppelin/contracts/token/ERC721/ERC721.sol\":7539:7570  getApproved(tokenId) == spender */\n      0xffffffffffffffffffffffffffffffffffffffff\n      and\n        /* \"@openzeppelin/contracts/token/ERC721/ERC721.sol\":7539:7559  getApproved(tokenId) */\n      tag_235\n        /* \"@openzeppelin/contracts/token/ERC721/ERC721.sol\":7551:7558  tokenId */\n      dup5\n        /* \"@openzeppelin/contracts/token/ERC721/ERC721.sol\":7539:7550  getApproved */\n      tag_44\n        /* \"@openzeppelin/contracts/token/ERC721/ERC721.sol\":7539:7559  getApproved(tokenId) */\n      jump\t// in\n    tag_235:\n        /* \"@openzeppelin/contracts/token/ERC721/ERC721.sol\":7539:7570  getApproved(tokenId) == spender */\n      0xffffffffffffffffffffffffffffffffffffffff\n      and\n      eq\n        /* \"@openzeppelin/contracts/token/ERC721/ERC721.sol\":7483:7570  spender == owner || isApprovedForAll(owner, spender) || getApproved(tokenId) == spender */\n    tag_234:\n        /* \"@openzeppelin/contracts/token/ERC721/ERC721.sol\":7475:7571  return (spender == owner || isApprovedForAll(owner, spender) || getApproved(tokenId) == spender) */\n      swap2\n      pop\n      pop\n        /* \"@openzeppelin/contracts/token/ERC721/ERC721.sol\":7317:7578  function _isApprovedOrOwner(address spender, uint256 tokenId) internal view virtual returns (bool) {... */\n      swap3\n      swap2\n      pop\n      pop\n      jump\t// out\n        /* \"@openzeppelin/contracts/token/ERC721/ERC721.sol\":10242:10847  function _transfer(... */\n    tag_156:\n        /* \"@openzeppelin/contracts/token/ERC721/ERC721.sol\":10396:10400  from */\n      dup3\n        /* \"@openzeppelin/contracts/token/ERC721/ERC721.sol\":10369:10400  ERC721.ownerOf(tokenId) == from */\n      0xffffffffffffffffffffffffffffffffffffffff\n      and\n        /* \"@openzeppelin/contracts/token/ERC721/ERC721.sol\":10369:10392  ERC721.ownerOf(tokenId) */\n      tag_237\n        /* \"@openzeppelin/contracts/token/ERC721/ERC721.sol\":10384:10391  tokenId */\n      dup3\n        /* \"@openzeppelin/contracts/token/ERC721/ERC721.sol\":10369:10383  ERC721.ownerOf */\n      tag_66\n        /* \"@openzeppelin/contracts/token/ERC721/ERC721.sol\":10369:10392  ERC721.ownerOf(tokenId) */\n      jump\t// in\n    tag_237:\n        /* \"@openzeppelin/contracts/token/ERC721/ERC721.sol\":10369:10400  ERC721.ownerOf(tokenId) == from */\n      0xffffffffffffffffffffffffffffffffffffffff\n      and\n      eq\n        /* \"@openzeppelin/contracts/token/ERC721/ERC721.sol\":10361:10442  require(ERC721.ownerOf(tokenId) == from, \"ERC721: transfer from incorrect owner\") */\n      tag_238\n      jumpi\n      mload(0x40)\n      0x08c379a000000000000000000000000000000000000000000000000000000000\n      dup2\n      mstore\n      0x04\n      add\n      tag_239\n      swap1\n      tag_240\n      jump\t// in\n    tag_239:\n      mload(0x40)\n      dup1\n      swap2\n      sub\n      swap1\n      revert\n    tag_238:\n        /* \"@openzeppelin/contracts/token/ERC721/ERC721.sol\":10474:10475  0 */\n      0x00\n        /* \"@openzeppelin/contracts/token/ERC721/ERC721.sol\":10460:10476  to != address(0) */\n      0xffffffffffffffffffffffffffffffffffffffff\n      and\n        /* \"@openzeppelin/contracts/token/ERC721/ERC721.sol\":10460:10462  to */\n      dup3\n        /* \"@openzeppelin/contracts/token/ERC721/ERC721.sol\":10460:10476  to != address(0) */\n      0xffffffffffffffffffffffffffffffffffffffff\n      and\n      eq\n      iszero\n        /* \"@openzeppelin/contracts/token/ERC721/ERC721.sol\":10452:10517  require(to != address(0), \"ERC721: transfer to the zero address\") */\n      tag_241\n      jumpi\n      mload(0x40)\n      0x08c379a000000000000000000000000000000000000000000000000000000000\n      dup2\n      mstore\n      0x04\n      add\n      tag_242\n      swap1\n      tag_243\n      jump\t// in\n    tag_242:\n      mload(0x40)\n      dup1\n      swap2\n      sub\n      swap1\n      revert\n    tag_241:\n        /* \"@openzeppelin/contracts/token/ERC721/ERC721.sol\":10528:10567  _beforeTokenTransfer(from, to, tokenId) */\n      tag_244\n        /* \"@openzeppelin/contracts/token/ERC721/ERC721.sol\":10549:10553  from */\n      dup4\n        /* \"@openzeppelin/contracts/token/ERC721/ERC721.sol\":10555:10557  to */\n      dup4\n        /* \"@openzeppelin/contracts/token/ERC721/ERC721.sol\":10559:10566  tokenId */\n      dup4\n        /* \"@openzeppelin/contracts/token/ERC721/ERC721.sol\":10528:10548  _beforeTokenTransfer */\n      tag_245\n        /* \"@openzeppelin/contracts/token/ERC721/ERC721.sol\":10528:10567  _beforeTokenTransfer(from, to, tokenId) */\n      jump\t// in\n    tag_244:\n        /* \"@openzeppelin/contracts/token/ERC721/ERC721.sol\":10629:10658  _approve(address(0), tokenId) */\n      tag_246\n        /* \"@openzeppelin/contracts/token/ERC721/ERC721.sol\":10646:10647  0 */\n      0x00\n        /* \"@openzeppelin/contracts/token/ERC721/ERC721.sol\":10650:10657  tokenId */\n      dup3\n        /* \"@openzeppelin/contracts/token/ERC721/ERC721.sol\":10629:10637  _approve */\n      tag_142\n        /* \"@openzeppelin/contracts/token/ERC721/ERC721.sol\":10629:10658  _approve(address(0), tokenId) */\n      jump\t// in\n    tag_246:\n        /* \"@openzeppelin/contracts/token/ERC721/ERC721.sol\":10688:10689  1 */\n      0x01\n        /* \"@openzeppelin/contracts/token/ERC721/ERC721.sol\":10669:10678  _balances */\n      0x03\n        /* \"@openzeppelin/contracts/token/ERC721/ERC721.sol\":10669:10684  _balances[from] */\n      0x00\n        /* \"@openzeppelin/contracts/token/ERC721/ERC721.sol\":10679:10683  from */\n      dup6\n        /* \"@openzeppelin/contracts/token/ERC721/ERC721.sol\":10669:10684  _balances[from] */\n      0xffffffffffffffffffffffffffffffffffffffff\n      and\n      0xffffffffffffffffffffffffffffffffffffffff\n      and\n      dup2\n      mstore\n      0x20\n      add\n      swap1\n      dup2\n      mstore\n      0x20\n      add\n      0x00\n      keccak256\n      0x00\n        /* \"@openzeppelin/contracts/token/ERC721/ERC721.sol\":10669:10689  _balances[from] -= 1 */\n      dup3\n      dup3\n      sload\n      tag_247\n      swap2\n      swap1\n      tag_248\n      jump\t// in\n    tag_247:\n      swap3\n      pop\n      pop\n      dup2\n      swap1\n      sstore\n      pop\n        /* \"@openzeppelin/contracts/token/ERC721/ERC721.sol\":10716:10717  1 */\n      0x01\n        /* \"@openzeppelin/contracts/token/ERC721/ERC721.sol\":10699:10708  _balances */\n      0x03\n        /* \"@openzeppelin/contracts/token/ERC721/ERC721.sol\":10699:10712  _balances[to] */\n      0x00\n        /* \"@openzeppelin/contracts/token/ERC721/ERC721.sol\":10709:10711  to */\n      dup5\n        /* \"@openzeppelin/contracts/token/ERC721/ERC721.sol\":10699:10712  _balances[to] */\n      0xffffffffffffffffffffffffffffffffffffffff\n      and\n      0xffffffffffffffffffffffffffffffffffffffff\n      and\n      dup2\n      mstore\n      0x20\n      add\n      swap1\n      dup2\n      mstore\n      0x20\n      add\n      0x00\n      keccak256\n      0x00\n        /* \"@openzeppelin/contracts/token/ERC721/ERC721.sol\":10699:10717  _balances[to] += 1 */\n      dup3\n      dup3\n      sload\n      tag_249\n      swap2\n      swap1\n      tag_250\n      jump\t// in\n    tag_249:\n      swap3\n      pop\n      pop\n      dup2\n      swap1\n      sstore\n      pop\n        /* \"@openzeppelin/contracts/token/ERC721/ERC721.sol\":10746:10748  to */\n      dup2\n        /* \"@openzeppelin/contracts/token/ERC721/ERC721.sol\":10727:10734  _owners */\n      0x02\n        /* \"@openzeppelin/contracts/token/ERC721/ERC721.sol\":10727:10743  _owners[tokenId] */\n      0x00\n        /* \"@openzeppelin/contracts/token/ERC721/ERC721.sol\":10735:10742  tokenId */\n      dup4\n        /* \"@openzeppelin/contracts/token/ERC721/ERC721.sol\":10727:10743  _owners[tokenId] */\n      dup2\n      mstore\n      0x20\n      add\n      swap1\n      dup2\n      mstore\n      0x20\n      add\n      0x00\n      keccak256\n      0x00\n        /* \"@openzeppelin/contracts/token/ERC721/ERC721.sol\":10727:10748  _owners[tokenId] = to */\n      0x0100\n      exp\n      dup2\n      sload\n      dup2\n      0xffffffffffffffffffffffffffffffffffffffff\n      mul\n      not\n      and\n      swap1\n      dup4\n      0xffffffffffffffffffffffffffffffffffffffff\n      and\n      mul\n      or\n      swap1\n      sstore\n      pop\n        /* \"@openzeppelin/contracts/token/ERC721/ERC721.sol\":10783:10790  tokenId */\n      dup1\n        /* \"@openzeppelin/contracts/token/ERC721/ERC721.sol\":10779:10781  to */\n      dup3\n        /* \"@openzeppelin/contracts/token/ERC721/ERC721.sol\":10764:10791  Transfer(from, to, tokenId) */\n      0xffffffffffffffffffffffffffffffffffffffff\n      and\n        /* \"@openzeppelin/contracts/token/ERC721/ERC721.sol\":10773:10777  from */\n      dup5\n        /* \"@openzeppelin/contracts/token/ERC721/ERC721.sol\":10764:10791  Transfer(from, to, tokenId) */\n      0xffffffffffffffffffffffffffffffffffffffff\n      and\n      0xddf252ad1be2c89b69c2b068fc378daa952ba7f163c4a11628f55a4df523b3ef\n      mload(0x40)\n      mload(0x40)\n      dup1\n      swap2\n      sub\n      swap1\n      log4\n        /* \"@openzeppelin/contracts/token/ERC721/ERC721.sol\":10802:10840  _afterTokenTransfer(from, to, tokenId) */\n      tag_251\n        /* \"@openzeppelin/contracts/token/ERC721/ERC721.sol\":10822:10826  from */\n      dup4\n        /* \"@openzeppelin/contracts/token/ERC721/ERC721.sol\":10828:10830  to */\n      dup4\n        /* \"@openzeppelin/contracts/token/ERC721/ERC721.sol\":10832:10839  tokenId */\n      dup4\n        /* \"@openzeppelin/contracts/token/ERC721/ERC721.sol\":10802:10821  _afterTokenTransfer */\n      tag_252\n        /* \"@openzeppelin/contracts/token/ERC721/ERC721.sol\":10802:10840  _afterTokenTransfer(from, to, tokenId) */\n      jump\t// in\n    tag_251:\n        /* \"@openzeppelin/contracts/token/ERC721/ERC721.sol\":10242:10847  function _transfer(... */\n      pop\n      pop\n      pop\n      jump\t// out\n        /* \"@openzeppelin/contracts/access/Ownable.sol\":2433:2620  function _transferOwnership(address newOwner) internal virtual {... */\n    tag_176:\n        /* \"@openzeppelin/contracts/access/Ownable.sol\":2506:2522  address oldOwner */\n      0x00\n        /* \"@openzeppelin/contracts/access/Ownable.sol\":2525:2531  _owner */\n      0x06\n      0x00\n      swap1\n      sload\n      swap1\n      0x0100\n      exp\n      swap1\n      div\n      0xffffffffffffffffffffffffffffffffffffffff\n      and\n        /* \"@openzeppelin/contracts/access/Ownable.sol\":2506:2531  address oldOwner = _owner */\n      swap1\n      pop\n        /* \"@openzeppelin/contracts/access/Ownable.sol\":2550:2558  newOwner */\n      dup2\n        /* \"@openzeppelin/contracts/access/Ownable.sol\":2541:2547  _owner */\n      0x06\n      0x00\n        /* \"@openzeppelin/contracts/access/Ownable.sol\":2541:2558  _owner = newOwner */\n      0x0100\n      exp\n      dup2\n      sload\n      dup2\n      0xffffffffffffffffffffffffffffffffffffffff\n      mul\n      not\n      and\n      swap1\n      dup4\n      0xffffffffffffffffffffffffffffffffffffffff\n      and\n      mul\n      or\n      swap1\n      sstore\n      pop\n        /* \"@openzeppelin/contracts/access/Ownable.sol\":2604:2612  newOwner */\n      dup2\n        /* \"@openzeppelin/contracts/access/Ownable.sol\":2573:2613  OwnershipTransferred(oldOwner, newOwner) */\n      0xffffffffffffffffffffffffffffffffffffffff\n      and\n        /* \"@openzeppelin/contracts/access/Ownable.sol\":2594:2602  oldOwner */\n      dup2\n        /* \"@openzeppelin/contracts/access/Ownable.sol\":2573:2613  OwnershipTransferred(oldOwner, newOwner) */\n      0xffffffffffffffffffffffffffffffffffffffff\n      and\n      0x8be0079c531659141344cd1fd0a4f28419497f9722a3daafe3b4186f6b6457e0\n      mload(0x40)\n      mload(0x40)\n      dup1\n      swap2\n      sub\n      swap1\n      log3\n        /* \"@openzeppelin/contracts/access/Ownable.sol\":2496:2620  {... */\n      pop\n        /* \"@openzeppelin/contracts/access/Ownable.sol\":2433:2620  function _transferOwnership(address newOwner) internal virtual {... */\n      pop\n      jump\t// out\n        /* \"@openzeppelin/contracts/token/ERC721/ERC721.sol\":11266:11573  function _setApprovalForAll(... */\n    tag_189:\n        /* \"@openzeppelin/contracts/token/ERC721/ERC721.sol\":11416:11424  operator */\n      dup2\n        /* \"@openzeppelin/contracts/token/ERC721/ERC721.sol\":11407:11424  owner != operator */\n      0xffffffffffffffffffffffffffffffffffffffff\n      and\n        /* \"@openzeppelin/contracts/token/ERC721/ERC721.sol\":11407:11412  owner */\n      dup4\n        /* \"@openzeppelin/contracts/token/ERC721/ERC721.sol\":11407:11424  owner != operator */\n      0xffffffffffffffffffffffffffffffffffffffff\n      and\n      eq\n      iszero\n        /* \"@openzeppelin/contracts/token/ERC721/ERC721.sol\":11399:11454  require(owner != operator, \"ERC721: approve to caller\") */\n      tag_255\n      jumpi\n      mload(0x40)\n      0x08c379a000000000000000000000000000000000000000000000000000000000\n      dup2\n      mstore\n      0x04\n      add\n      tag_256\n      swap1\n      tag_257\n      jump\t// in\n    tag_256:\n      mload(0x40)\n      dup1\n      swap2\n      sub\n      swap1\n      revert\n    tag_255:\n        /* \"@openzeppelin/contracts/token/ERC721/ERC721.sol\":11502:11510  approved */\n      dup1\n        /* \"@openzeppelin/contracts/token/ERC721/ERC721.sol\":11464:11482  _operatorApprovals */\n      0x05\n        /* \"@openzeppelin/contracts/token/ERC721/ERC721.sol\":11464:11489  _operatorApprovals[owner] */\n      0x00\n        /* \"@openzeppelin/contracts/token/ERC721/ERC721.sol\":11483:11488  owner */\n      dup6\n        /* \"@openzeppelin/contracts/token/ERC721/ERC721.sol\":11464:11489  _operatorApprovals[owner] */\n      0xffffffffffffffffffffffffffffffffffffffff\n      and\n      0xffffffffffffffffffffffffffffffffffffffff\n      and\n      dup2\n      mstore\n      0x20\n      add\n      swap1\n      dup2\n      mstore\n      0x20\n      add\n      0x00\n      keccak256\n        /* \"@openzeppelin/contracts/token/ERC721/ERC721.sol\":11464:11499  _operatorApprovals[owner][operator] */\n      0x00\n        /* \"@openzeppelin/contracts/token/ERC721/ERC721.sol\":11490:11498  operator */\n      dup5\n        /* \"@openzeppelin/contracts/token/ERC721/ERC721.sol\":11464:11499  _operatorApprovals[owner][operator] */\n      0xffffffffffffffffffffffffffffffffffffffff\n      and\n      0xffffffffffffffffffffffffffffffffffffffff\n      and\n      dup2\n      mstore\n      0x20\n      add\n      swap1\n      dup2\n      mstore\n      0x20\n      add\n      0x00\n      keccak256\n      0x00\n        /* \"@openzeppelin/contracts/token/ERC721/ERC721.sol\":11464:11510  _operatorApprovals[owner][operator] = approved */\n      0x0100\n      exp\n      dup2\n      sload\n      dup2\n      0xff\n      mul\n      not\n      and\n      swap1\n      dup4\n      iszero\n      iszero\n      mul\n      or\n      swap1\n      sstore\n      pop\n        /* \"@openzeppelin/contracts/token/ERC721/ERC721.sol\":11547:11555  operator */\n      dup2\n        /* \"@openzeppelin/contracts/token/ERC721/ERC721.sol\":11525:11566  ApprovalForAll(owner, operator, approved) */\n      0xffffffffffffffffffffffffffffffffffffffff\n      and\n        /* \"@openzeppelin/contracts/token/ERC721/ERC721.sol\":11540:11545  owner */\n      dup4\n        /* \"@openzeppelin/contracts/token/ERC721/ERC721.sol\":11525:11566  ApprovalForAll(owner, operator, approved) */\n      0xffffffffffffffffffffffffffffffffffffffff\n      and\n      0x17307eab39ab6107e8899845ad3d59bd9653f200f220920489ca2b5937696c31\n        /* \"@openzeppelin/contracts/token/ERC721/ERC721.sol\":11557:11565  approved */\n      dup4\n        /* \"@openzeppelin/contracts/token/ERC721/ERC721.sol\":11525:11566  ApprovalForAll(owner, operator, approved) */\n      mload(0x40)\n      tag_258\n      swap2\n      swap1\n      tag_32\n      jump\t// in\n    tag_258:\n      mload(0x40)\n      dup1\n      swap2\n      sub\n      swap1\n      log3\n        /* \"@openzeppelin/contracts/token/ERC721/ERC721.sol\":11266:11573  function _setApprovalForAll(... */\n      pop\n      pop\n      pop\n      jump\t// out\n        /* \"@openzeppelin/contracts/token/ERC721/ERC721.sol\":6426:6731  function _safeTransfer(... */\n    tag_196:\n        /* \"@openzeppelin/contracts/token/ERC721/ERC721.sol\":6576:6604  _transfer(from, to, tokenId) */\n      tag_260\n        /* \"@openzeppelin/contracts/token/ERC721/ERC721.sol\":6586:6590  from */\n      dup5\n        /* \"@openzeppelin/contracts/token/ERC721/ERC721.sol\":6592:6594  to */\n      dup5\n        /* \"@openzeppelin/contracts/token/ERC721/ERC721.sol\":6596:6603  tokenId */\n      dup5\n        /* \"@openzeppelin/contracts/token/ERC721/ERC721.sol\":6576:6585  _transfer */\n      tag_156\n        /* \"@openzeppelin/contracts/token/ERC721/ERC721.sol\":6576:6604  _transfer(from, to, tokenId) */\n      jump\t// in\n    tag_260:\n        /* \"@openzeppelin/contracts/token/ERC721/ERC721.sol\":6622:6669  _checkOnERC721Received(from, to, tokenId, data) */\n      tag_261\n        /* \"@openzeppelin/contracts/token/ERC721/ERC721.sol\":6645:6649  from */\n      dup5\n        /* \"@openzeppelin/contracts/token/ERC721/ERC721.sol\":6651:6653  to */\n      dup5\n        /* \"@openzeppelin/contracts/token/ERC721/ERC721.sol\":6655:6662  tokenId */\n      dup5\n        /* \"@openzeppelin/contracts/token/ERC721/ERC721.sol\":6664:6668  data */\n      dup5\n        /* \"@openzeppelin/contracts/token/ERC721/ERC721.sol\":6622:6644  _checkOnERC721Received */\n      tag_262\n        /* \"@openzeppelin/contracts/token/ERC721/ERC721.sol\":6622:6669  _checkOnERC721Received(from, to, tokenId, data) */\n      jump\t// in\n    tag_261:\n        /* \"@openzeppelin/contracts/token/ERC721/ERC721.sol\":6614:6724  require(_checkOnERC721Received(from, to, tokenId, data), \"ERC721: transfer to non ERC721Receiver implementer\") */\n      tag_263\n      jumpi\n      mload(0x40)\n      0x08c379a000000000000000000000000000000000000000000000000000000000\n      dup2\n      mstore\n      0x04\n      add\n      tag_264\n      swap1\n      tag_265\n      jump\t// in\n    tag_264:\n      mload(0x40)\n      dup1\n      swap2\n      sub\n      swap1\n      revert\n    tag_263:\n        /* \"@openzeppelin/contracts/token/ERC721/ERC721.sol\":6426:6731  function _safeTransfer(... */\n      pop\n      pop\n      pop\n      pop\n      jump\t// out\n        /* \"@openzeppelin/contracts/token/ERC721/ERC721.sol\":7034:7159  function _exists(uint256 tokenId) internal view virtual returns (bool) {... */\n    tag_221:\n        /* \"@openzeppelin/contracts/token/ERC721/ERC721.sol\":7099:7103  bool */\n      0x00\n        /* \"@openzeppelin/contracts/token/ERC721/ERC721.sol\":7150:7151  0 */\n      dup1\n        /* \"@openzeppelin/contracts/token/ERC721/ERC721.sol\":7122:7152  _owners[tokenId] != address(0) */\n      0xffffffffffffffffffffffffffffffffffffffff\n      and\n        /* \"@openzeppelin/contracts/token/ERC721/ERC721.sol\":7122:7129  _owners */\n      0x02\n        /* \"@openzeppelin/contracts/token/ERC721/ERC721.sol\":7122:7138  _owners[tokenId] */\n      0x00\n        /* \"@openzeppelin/contracts/token/ERC721/ERC721.sol\":7130:7137  tokenId */\n      dup5\n        /* \"@openzeppelin/contracts/token/ERC721/ERC721.sol\":7122:7138  _owners[tokenId] */\n      dup2\n      mstore\n      0x20\n      add\n      swap1\n      dup2\n      mstore\n      0x20\n      add\n      0x00\n      keccak256\n      0x00\n      swap1\n      sload\n      swap1\n      0x0100\n      exp\n      swap1\n      div\n      0xffffffffffffffffffffffffffffffffffffffff\n      and\n        /* \"@openzeppelin/contracts/token/ERC721/ERC721.sol\":7122:7152  _owners[tokenId] != address(0) */\n      0xffffffffffffffffffffffffffffffffffffffff\n      and\n      eq\n      iszero\n        /* \"@openzeppelin/contracts/token/ERC721/ERC721.sol\":7115:7152  return _owners[tokenId] != address(0) */\n      swap1\n      pop\n        /* \"@openzeppelin/contracts/token/ERC721/ERC721.sol\":7034:7159  function _exists(uint256 tokenId) internal view virtual returns (bool) {... */\n      swap2\n      swap1\n      pop\n      jump\t// out\n        /* \"@openzeppelin/contracts/token/ERC721/ERC721.sol\":8237:8546  function _safeMint(... */\n    tag_229:\n        /* \"@openzeppelin/contracts/token/ERC721/ERC721.sol\":8361:8379  _mint(to, tokenId) */\n      tag_268\n        /* \"@openzeppelin/contracts/token/ERC721/ERC721.sol\":8367:8369  to */\n      dup4\n        /* \"@openzeppelin/contracts/token/ERC721/ERC721.sol\":8371:8378  tokenId */\n      dup4\n        /* \"@openzeppelin/contracts/token/ERC721/ERC721.sol\":8361:8366  _mint */\n      tag_269\n        /* \"@openzeppelin/contracts/token/ERC721/ERC721.sol\":8361:8379  _mint(to, tokenId) */\n      jump\t// in\n    tag_268:\n        /* \"@openzeppelin/contracts/token/ERC721/ERC721.sol\":8410:8463  _checkOnERC721Received(address(0), to, tokenId, data) */\n      tag_270\n        /* \"@openzeppelin/contracts/token/ERC721/ERC721.sol\":8441:8442  0 */\n      0x00\n        /* \"@openzeppelin/contracts/token/ERC721/ERC721.sol\":8445:8447  to */\n      dup5\n        /* \"@openzeppelin/contracts/token/ERC721/ERC721.sol\":8449:8456  tokenId */\n      dup5\n        /* \"@openzeppelin/contracts/token/ERC721/ERC721.sol\":8458:8462  data */\n      dup5\n        /* \"@openzeppelin/contracts/token/ERC721/ERC721.sol\":8410:8432  _checkOnERC721Received */\n      tag_262\n        /* \"@openzeppelin/contracts/token/ERC721/ERC721.sol\":8410:8463  _checkOnERC721Received(address(0), to, tokenId, data) */\n      jump\t// in\n    tag_270:\n        /* \"@openzeppelin/contracts/token/ERC721/ERC721.sol\":8389:8539  require(... */\n      tag_271\n      jumpi\n      mload(0x40)\n      0x08c379a000000000000000000000000000000000000000000000000000000000\n      dup2\n      mstore\n      0x04\n      add\n      tag_272\n      swap1\n      tag_265\n      jump\t// in\n    tag_272:\n      mload(0x40)\n      dup1\n      swap2\n      sub\n      swap1\n      revert\n    tag_271:\n        /* \"@openzeppelin/contracts/token/ERC721/ERC721.sol\":8237:8546  function _safeMint(... */\n      pop\n      pop\n      pop\n      jump\t// out\n        /* \"@openzeppelin/contracts/token/ERC721/ERC721.sol\":13729:13851  function _beforeTokenTransfer(... */\n    tag_245:\n      pop\n      pop\n      pop\n      jump\t// out\n        /* \"@openzeppelin/contracts/token/ERC721/ERC721.sol\":14223:14344  function _afterTokenTransfer(... */\n    tag_252:\n      pop\n      pop\n      pop\n      jump\t// out\n        /* \"@openzeppelin/contracts/token/ERC721/ERC721.sol\":12342:13173  function _checkOnERC721Received(... */\n    tag_262:\n        /* \"@openzeppelin/contracts/token/ERC721/ERC721.sol\":12491:12495  bool */\n      0x00\n        /* \"@openzeppelin/contracts/token/ERC721/ERC721.sol\":12511:12526  to.isContract() */\n      tag_276\n        /* \"@openzeppelin/contracts/token/ERC721/ERC721.sol\":12511:12513  to */\n      dup5\n        /* \"@openzeppelin/contracts/token/ERC721/ERC721.sol\":12511:12524  to.isContract */\n      0xffffffffffffffffffffffffffffffffffffffff\n      and\n      tag_277\n        /* \"@openzeppelin/contracts/token/ERC721/ERC721.sol\":12511:12526  to.isContract() */\n      jump\t// in\n    tag_276:\n        /* \"@openzeppelin/contracts/token/ERC721/ERC721.sol\":12507:13167  if (to.isContract()) {... */\n      iszero\n      tag_278\n      jumpi\n        /* \"@openzeppelin/contracts/token/ERC721/ERC721.sol\":12562:12564  to */\n      dup4\n        /* \"@openzeppelin/contracts/token/ERC721/ERC721.sol\":12546:12582  IERC721Receiver(to).onERC721Received */\n      0xffffffffffffffffffffffffffffffffffffffff\n      and\n      0x150b7a02\n        /* \"@openzeppelin/contracts/token/ERC721/ERC721.sol\":12583:12595  _msgSender() */\n      tag_279\n        /* \"@openzeppelin/contracts/token/ERC721/ERC721.sol\":12583:12593  _msgSender */\n      tag_134\n        /* \"@openzeppelin/contracts/token/ERC721/ERC721.sol\":12583:12595  _msgSender() */\n      jump\t// in\n    tag_279:\n        /* \"@openzeppelin/contracts/token/ERC721/ERC721.sol\":12597:12601  from */\n      dup8\n        /* \"@openzeppelin/contracts/token/ERC721/ERC721.sol\":12603:12610  tokenId */\n      dup7\n        /* \"@openzeppelin/contracts/token/ERC721/ERC721.sol\":12612:12616  data */\n      dup7\n        /* \"@openzeppelin/contracts/token/ERC721/ERC721.sol\":12546:12617  IERC721Receiver(to).onERC721Received(_msgSender(), from, tokenId, data) */\n      mload(0x40)\n      dup6\n      0xffffffff\n      and\n      0xe0\n      shl\n      dup2\n      mstore\n      0x04\n      add\n      tag_280\n      swap5\n      swap4\n      swap3\n      swap2\n      swap1\n      tag_281\n      jump\t// in\n    tag_280:\n      0x20\n      mload(0x40)\n      dup1\n      dup4\n      sub\n      dup2\n      0x00\n      dup8\n      dup1\n      extcodesize\n      iszero\n      dup1\n      iszero\n      tag_282\n      jumpi\n      0x00\n      dup1\n      revert\n    tag_282:\n      pop\n      gas\n      call\n      swap3\n      pop\n      pop\n      pop\n      dup1\n      iszero\n      tag_283\n      jumpi\n      pop\n      mload(0x40)\n      returndatasize\n      not(0x1f)\n      0x1f\n      dup3\n      add\n      and\n      dup3\n      add\n      dup1\n      0x40\n      mstore\n      pop\n      dup2\n      add\n      swap1\n      tag_284\n      swap2\n      swap1\n      tag_285\n      jump\t// in\n    tag_284:\n      0x01\n    tag_283:\n        /* \"@openzeppelin/contracts/token/ERC721/ERC721.sol\":12542:13115  try IERC721Receiver(to).onERC721Received(_msgSender(), from, tokenId, data) returns (bytes4 retval) {... */\n      tag_286\n      jumpi\n      returndatasize\n      dup1\n      0x00\n      dup2\n      eq\n      tag_291\n      jumpi\n      mload(0x40)\n      swap2\n      pop\n      and(add(returndatasize, 0x3f), not(0x1f))\n      dup3\n      add\n      0x40\n      mstore\n      returndatasize\n      dup3\n      mstore\n      returndatasize\n      0x00\n      0x20\n      dup5\n      add\n      returndatacopy\n      jump(tag_290)\n    tag_291:\n      0x60\n      swap2\n      pop\n    tag_290:\n      pop\n        /* \"@openzeppelin/contracts/token/ERC721/ERC721.sol\":12801:12802  0 */\n      0x00\n        /* \"@openzeppelin/contracts/token/ERC721/ERC721.sol\":12784:12790  reason */\n      dup2\n        /* \"@openzeppelin/contracts/token/ERC721/ERC721.sol\":12784:12797  reason.length */\n      mload\n        /* \"@openzeppelin/contracts/token/ERC721/ERC721.sol\":12784:12802  reason.length == 0 */\n      eq\n        /* \"@openzeppelin/contracts/token/ERC721/ERC721.sol\":12780:13101  if (reason.length == 0) {... */\n      iszero\n      tag_292\n      jumpi\n        /* \"@openzeppelin/contracts/token/ERC721/ERC721.sol\":12826:12886  revert(\"ERC721: transfer to non ERC721Receiver implementer\") */\n      mload(0x40)\n      0x08c379a000000000000000000000000000000000000000000000000000000000\n      dup2\n      mstore\n      0x04\n      add\n      tag_293\n      swap1\n      tag_265\n      jump\t// in\n    tag_293:\n      mload(0x40)\n      dup1\n      swap2\n      sub\n      swap1\n      revert\n        /* \"@openzeppelin/contracts/token/ERC721/ERC721.sol\":12780:13101  if (reason.length == 0) {... */\n    tag_292:\n        /* \"@openzeppelin/contracts/token/ERC721/ERC721.sol\":13053:13059  reason */\n      dup1\n        /* \"@openzeppelin/contracts/token/ERC721/ERC721.sol\":13047:13060  mload(reason) */\n      mload\n        /* \"@openzeppelin/contracts/token/ERC721/ERC721.sol\":13038:13044  reason */\n      dup2\n        /* \"@openzeppelin/contracts/token/ERC721/ERC721.sol\":13034:13036  32 */\n      0x20\n        /* \"@openzeppelin/contracts/token/ERC721/ERC721.sol\":13030:13045  add(32, reason) */\n      add\n        /* \"@openzeppelin/contracts/token/ERC721/ERC721.sol\":13023:13061  revert(add(32, reason), mload(reason)) */\n      revert\n        /* \"@openzeppelin/contracts/token/ERC721/ERC721.sol\":12542:13115  try IERC721Receiver(to).onERC721Received(_msgSender(), from, tokenId, data) returns (bytes4 retval) {... */\n    tag_286:\n        /* \"@openzeppelin/contracts/token/ERC721/ERC721.sol\":12677:12718  IERC721Receiver.onERC721Received.selector */\n      shl(0xe0, 0x150b7a02)\n        /* \"@openzeppelin/contracts/token/ERC721/ERC721.sol\":12667:12718  retval == IERC721Receiver.onERC721Received.selector */\n      not(0xffffffffffffffffffffffffffffffffffffffffffffffffffffffff)\n      and\n        /* \"@openzeppelin/contracts/token/ERC721/ERC721.sol\":12667:12673  retval */\n      dup2\n        /* \"@openzeppelin/contracts/token/ERC721/ERC721.sol\":12667:12718  retval == IERC721Receiver.onERC721Received.selector */\n      not(0xffffffffffffffffffffffffffffffffffffffffffffffffffffffff)\n      and\n      eq\n        /* \"@openzeppelin/contracts/token/ERC721/ERC721.sol\":12660:12718  return retval == IERC721Receiver.onERC721Received.selector */\n      swap2\n      pop\n      pop\n      jump(tag_275)\n        /* \"@openzeppelin/contracts/token/ERC721/ERC721.sol\":12507:13167  if (to.isContract()) {... */\n    tag_278:\n        /* \"@openzeppelin/contracts/token/ERC721/ERC721.sol\":13152:13156  true */\n      0x01\n        /* \"@openzeppelin/contracts/token/ERC721/ERC721.sol\":13145:13156  return true */\n      swap1\n      pop\n        /* \"@openzeppelin/contracts/token/ERC721/ERC721.sol\":12342:13173  function _checkOnERC721Received(... */\n    tag_275:\n      swap5\n      swap4\n      pop\n      pop\n      pop\n      pop\n      jump\t// out\n        /* \"@openzeppelin/contracts/token/ERC721/ERC721.sol\":8868:9295  function _mint(address to, uint256 tokenId) internal virtual {... */\n    tag_269:\n        /* \"@openzeppelin/contracts/token/ERC721/ERC721.sol\":8961:8962  0 */\n      0x00\n        /* \"@openzeppelin/contracts/token/ERC721/ERC721.sol\":8947:8963  to != address(0) */\n      0xffffffffffffffffffffffffffffffffffffffff\n      and\n        /* \"@openzeppelin/contracts/token/ERC721/ERC721.sol\":8947:8949  to */\n      dup3\n        /* \"@openzeppelin/contracts/token/ERC721/ERC721.sol\":8947:8963  to != address(0) */\n      0xffffffffffffffffffffffffffffffffffffffff\n      and\n      eq\n      iszero\n        /* \"@openzeppelin/contracts/token/ERC721/ERC721.sol\":8939:9000  require(to != address(0), \"ERC721: mint to the zero address\") */\n      tag_298\n      jumpi\n      mload(0x40)\n      0x08c379a000000000000000000000000000000000000000000000000000000000\n      dup2\n      mstore\n      0x04\n      add\n      tag_299\n      swap1\n      tag_300\n      jump\t// in\n    tag_299:\n      mload(0x40)\n      dup1\n      swap2\n      sub\n      swap1\n      revert\n    tag_298:\n        /* \"@openzeppelin/contracts/token/ERC721/ERC721.sol\":9019:9035  _exists(tokenId) */\n      tag_301\n        /* \"@openzeppelin/contracts/token/ERC721/ERC721.sol\":9027:9034  tokenId */\n      dup2\n        /* \"@openzeppelin/contracts/token/ERC721/ERC721.sol\":9019:9026  _exists */\n      tag_221\n        /* \"@openzeppelin/contracts/token/ERC721/ERC721.sol\":9019:9035  _exists(tokenId) */\n      jump\t// in\n    tag_301:\n        /* \"@openzeppelin/contracts/token/ERC721/ERC721.sol\":9018:9035  !_exists(tokenId) */\n      iszero\n        /* \"@openzeppelin/contracts/token/ERC721/ERC721.sol\":9010:9068  require(!_exists(tokenId), \"ERC721: token already minted\") */\n      tag_302\n      jumpi\n      mload(0x40)\n      0x08c379a000000000000000000000000000000000000000000000000000000000\n      dup2\n      mstore\n      0x04\n      add\n      tag_303\n      swap1\n      tag_304\n      jump\t// in\n    tag_303:\n      mload(0x40)\n      dup1\n      swap2\n      sub\n      swap1\n      revert\n    tag_302:\n        /* \"@openzeppelin/contracts/token/ERC721/ERC721.sol\":9079:9124  _beforeTokenTransfer(address(0), to, tokenId) */\n      tag_305\n        /* \"@openzeppelin/contracts/token/ERC721/ERC721.sol\":9108:9109  0 */\n      0x00\n        /* \"@openzeppelin/contracts/token/ERC721/ERC721.sol\":9112:9114  to */\n      dup4\n        /* \"@openzeppelin/contracts/token/ERC721/ERC721.sol\":9116:9123  tokenId */\n      dup4\n        /* \"@openzeppelin/contracts/token/ERC721/ERC721.sol\":9079:9099  _beforeTokenTransfer */\n      tag_245\n        /* \"@openzeppelin/contracts/token/ERC721/ERC721.sol\":9079:9124  _beforeTokenTransfer(address(0), to, tokenId) */\n      jump\t// in\n    tag_305:\n        /* \"@openzeppelin/contracts/token/ERC721/ERC721.sol\":9152:9153  1 */\n      0x01\n        /* \"@openzeppelin/contracts/token/ERC721/ERC721.sol\":9135:9144  _balances */\n      0x03\n        /* \"@openzeppelin/contracts/token/ERC721/ERC721.sol\":9135:9148  _balances[to] */\n      0x00\n        /* \"@openzeppelin/contracts/token/ERC721/ERC721.sol\":9145:9147  to */\n      dup5\n        /* \"@openzeppelin/contracts/token/ERC721/ERC721.sol\":9135:9148  _balances[to] */\n      0xffffffffffffffffffffffffffffffffffffffff\n      and\n      0xffffffffffffffffffffffffffffffffffffffff\n      and\n      dup2\n      mstore\n      0x20\n      add\n      swap1\n      dup2\n      mstore\n      0x20\n      add\n      0x00\n      keccak256\n      0x00\n        /* \"@openzeppelin/contracts/token/ERC721/ERC721.sol\":9135:9153  _balances[to] += 1 */\n      dup3\n      dup3\n      sload\n      tag_306\n      swap2\n      swap1\n      tag_250\n      jump\t// in\n    tag_306:\n      swap3\n      pop\n      pop\n      dup2\n      swap1\n      sstore\n      pop\n        /* \"@openzeppelin/contracts/token/ERC721/ERC721.sol\":9182:9184  to */\n      dup2\n        /* \"@openzeppelin/contracts/token/ERC721/ERC721.sol\":9163:9170  _owners */\n      0x02\n        /* \"@openzeppelin/contracts/token/ERC721/ERC721.sol\":9163:9179  _owners[tokenId] */\n      0x00\n        /* \"@openzeppelin/contracts/token/ERC721/ERC721.sol\":9171:9178  tokenId */\n      dup4\n        /* \"@openzeppelin/contracts/token/ERC721/ERC721.sol\":9163:9179  _owners[tokenId] */\n      dup2\n      mstore\n      0x20\n      add\n      swap1\n      dup2\n      mstore\n      0x20\n      add\n      0x00\n      keccak256\n      0x00\n        /* \"@openzeppelin/contracts/token/ERC721/ERC721.sol\":9163:9184  _owners[tokenId] = to */\n      0x0100\n      exp\n      dup2\n      sload\n      dup2\n      0xffffffffffffffffffffffffffffffffffffffff\n      mul\n      not\n      and\n      swap1\n      dup4\n      0xffffffffffffffffffffffffffffffffffffffff\n      and\n      mul\n      or\n      swap1\n      sstore\n      pop\n        /* \"@openzeppelin/contracts/token/ERC721/ERC721.sol\":9225:9232  tokenId */\n      dup1\n        /* \"@openzeppelin/contracts/token/ERC721/ERC721.sol\":9221:9223  to */\n      dup3\n        /* \"@openzeppelin/contracts/token/ERC721/ERC721.sol\":9200:9233  Transfer(address(0), to, tokenId) */\n      0xffffffffffffffffffffffffffffffffffffffff\n      and\n        /* \"@openzeppelin/contracts/token/ERC721/ERC721.sol\":9217:9218  0 */\n      0x00\n        /* \"@openzeppelin/contracts/token/ERC721/ERC721.sol\":9200:9233  Transfer(address(0), to, tokenId) */\n      0xffffffffffffffffffffffffffffffffffffffff\n      and\n      0xddf252ad1be2c89b69c2b068fc378daa952ba7f163c4a11628f55a4df523b3ef\n      mload(0x40)\n      mload(0x40)\n      dup1\n      swap2\n      sub\n      swap1\n      log4\n        /* \"@openzeppelin/contracts/token/ERC721/ERC721.sol\":9244:9288  _afterTokenTransfer(address(0), to, tokenId) */\n      tag_307\n        /* \"@openzeppelin/contracts/token/ERC721/ERC721.sol\":9272:9273  0 */\n      0x00\n        /* \"@openzeppelin/contracts/token/ERC721/ERC721.sol\":9276:9278  to */\n      dup4\n        /* \"@openzeppelin/contracts/token/ERC721/ERC721.sol\":9280:9287  tokenId */\n      dup4\n        /* \"@openzeppelin/contracts/token/ERC721/ERC721.sol\":9244:9263  _afterTokenTransfer */\n      tag_252\n        /* \"@openzeppelin/contracts/token/ERC721/ERC721.sol\":9244:9288  _afterTokenTransfer(address(0), to, tokenId) */\n      jump\t// in\n    tag_307:\n        /* \"@openzeppelin/contracts/token/ERC721/ERC721.sol\":8868:9295  function _mint(address to, uint256 tokenId) internal virtual {... */\n      pop\n      pop\n      jump\t// out\n        /* \"@openzeppelin/contracts/utils/Address.sol\":1175:1495  function isContract(address account) internal view returns (bool) {... */\n    tag_277:\n        /* \"@openzeppelin/contracts/utils/Address.sol\":1235:1239  bool */\n      0x00\n        /* \"@openzeppelin/contracts/utils/Address.sol\":1487:1488  0 */\n      dup1\n        /* \"@openzeppelin/contracts/utils/Address.sol\":1465:1472  account */\n      dup3\n        /* \"@openzeppelin/contracts/utils/Address.sol\":1465:1484  account.code.length */\n      0xffffffffffffffffffffffffffffffffffffffff\n      and\n      extcodesize\n        /* \"@openzeppelin/contracts/utils/Address.sol\":1465:1488  account.code.length > 0 */\n      gt\n        /* \"@openzeppelin/contracts/utils/Address.sol\":1458:1488  return account.code.length > 0 */\n      swap1\n      pop\n        /* \"@openzeppelin/contracts/utils/Address.sol\":1175:1495  function isContract(address account) internal view returns (bool) {... */\n      swap2\n      swap1\n      pop\n      jump\t// out\n    tag_117:\n      dup3\n      dup1\n      sload\n      tag_309\n      swap1\n      tag_120\n      jump\t// in\n    tag_309:\n      swap1\n      0x00\n      mstore\n      keccak256(0x00, 0x20)\n      swap1\n      0x1f\n      add\n      0x20\n      swap1\n      div\n      dup2\n      add\n      swap3\n      dup3\n      tag_311\n      jumpi\n      0x00\n      dup6\n      sstore\n      jump(tag_310)\n    tag_311:\n      dup3\n      0x1f\n      lt\n      tag_312\n      jumpi\n      dup1\n      mload\n      not(0xff)\n      and\n      dup4\n      dup1\n      add\n      or\n      dup6\n      sstore\n      jump(tag_310)\n    tag_312:\n      dup3\n      dup1\n      add\n      0x01\n      add\n      dup6\n      sstore\n      dup3\n      iszero\n      tag_310\n      jumpi\n      swap2\n      dup3\n      add\n    tag_313:\n      dup3\n      dup2\n      gt\n      iszero\n      tag_314\n      jumpi\n      dup3\n      mload\n      dup3\n      sstore\n      swap2\n      0x20\n      add\n      swap2\n      swap1\n      0x01\n      add\n      swap1\n      jump(tag_313)\n    tag_314:\n    tag_310:\n      pop\n      swap1\n      pop\n      tag_315\n      swap2\n      swap1\n      tag_316\n      jump\t// in\n    tag_315:\n      pop\n      swap1\n      jump\t// out\n    tag_316:\n    tag_317:\n      dup1\n      dup3\n      gt\n      iszero\n      tag_318\n      jumpi\n      0x00\n      dup2\n      0x00\n      swap1\n      sstore\n      pop\n      0x01\n      add\n      jump(tag_317)\n    tag_318:\n      pop\n      swap1\n      jump\t// out\n        /* \"#utility.yul\":7:417   */\n    tag_320:\n        /* \"#utility.yul\":84:89   */\n      0x00\n        /* \"#utility.yul\":109:174   */\n      tag_322\n        /* \"#utility.yul\":125:173   */\n      tag_323\n        /* \"#utility.yul\":166:172   */\n      dup5\n        /* \"#utility.yul\":125:173   */\n      tag_324\n      jump\t// in\n    tag_323:\n        /* \"#utility.yul\":109:174   */\n      tag_325\n      jump\t// in\n    tag_322:\n        /* \"#utility.yul\":100:174   */\n      swap1\n      pop\n        /* \"#utility.yul\":197:203   */\n      dup3\n        /* \"#utility.yul\":190:195   */\n      dup2\n        /* \"#utility.yul\":183:204   */\n      mstore\n        /* \"#utility.yul\":235:239   */\n      0x20\n        /* \"#utility.yul\":228:233   */\n      dup2\n        /* \"#utility.yul\":224:240   */\n      add\n        /* \"#utility.yul\":273:276   */\n      dup5\n        /* \"#utility.yul\":264:270   */\n      dup5\n        /* \"#utility.yul\":259:262   */\n      dup5\n        /* \"#utility.yul\":255:271   */\n      add\n        /* \"#utility.yul\":252:277   */\n      gt\n        /* \"#utility.yul\":249:361   */\n      iszero\n      tag_326\n      jumpi\n        /* \"#utility.yul\":280:359   */\n      tag_327\n      tag_328\n      jump\t// in\n    tag_327:\n        /* \"#utility.yul\":249:361   */\n    tag_326:\n        /* \"#utility.yul\":370:411   */\n      tag_329\n        /* \"#utility.yul\":404:410   */\n      dup5\n        /* \"#utility.yul\":399:402   */\n      dup3\n        /* \"#utility.yul\":394:397   */\n      dup6\n        /* \"#utility.yul\":370:411   */\n      tag_330\n      jump\t// in\n    tag_329:\n        /* \"#utility.yul\":90:417   */\n      pop\n        /* \"#utility.yul\":7:417   */\n      swap4\n      swap3\n      pop\n      pop\n      pop\n      jump\t// out\n        /* \"#utility.yul\":423:835   */\n    tag_331:\n        /* \"#utility.yul\":501:506   */\n      0x00\n        /* \"#utility.yul\":526:592   */\n      tag_333\n        /* \"#utility.yul\":542:591   */\n      tag_334\n        /* \"#utility.yul\":584:590   */\n      dup5\n        /* \"#utility.yul\":542:591   */\n      tag_335\n      jump\t// in\n    tag_334:\n        /* \"#utility.yul\":526:592   */\n      tag_325\n      jump\t// in\n    tag_333:\n        /* \"#utility.yul\":517:592   */\n      swap1\n      pop\n        /* \"#utility.yul\":615:621   */\n      dup3\n        /* \"#utility.yul\":608:613   */\n      dup2\n        /* \"#utility.yul\":601:622   */\n      mstore\n        /* \"#utility.yul\":653:657   */\n      0x20\n        /* \"#utility.yul\":646:651   */\n      dup2\n        /* \"#utility.yul\":642:658   */\n      add\n        /* \"#utility.yul\":691:694   */\n      dup5\n        /* \"#utility.yul\":682:688   */\n      dup5\n        /* \"#utility.yul\":677:680   */\n      dup5\n        /* \"#utility.yul\":673:689   */\n      add\n        /* \"#utility.yul\":670:695   */\n      gt\n        /* \"#utility.yul\":667:779   */\n      iszero\n      tag_336\n      jumpi\n        /* \"#utility.yul\":698:777   */\n      tag_337\n      tag_328\n      jump\t// in\n    tag_337:\n        /* \"#utility.yul\":667:779   */\n    tag_336:\n        /* \"#utility.yul\":788:829   */\n      tag_338\n        /* \"#utility.yul\":822:828   */\n      dup5\n        /* \"#utility.yul\":817:820   */\n      dup3\n        /* \"#utility.yul\":812:815   */\n      dup6\n        /* \"#utility.yul\":788:829   */\n      tag_330\n      jump\t// in\n    tag_338:\n        /* \"#utility.yul\":507:835   */\n      pop\n        /* \"#utility.yul\":423:835   */\n      swap4\n      swap3\n      pop\n      pop\n      pop\n      jump\t// out\n        /* \"#utility.yul\":841:980   */\n    tag_339:\n        /* \"#utility.yul\":887:892   */\n      0x00\n        /* \"#utility.yul\":925:931   */\n      dup2\n        /* \"#utility.yul\":912:932   */\n      calldataload\n        /* \"#utility.yul\":903:932   */\n      swap1\n      pop\n        /* \"#utility.yul\":941:974   */\n      tag_341\n        /* \"#utility.yul\":968:973   */\n      dup2\n        /* \"#utility.yul\":941:974   */\n      tag_342\n      jump\t// in\n    tag_341:\n        /* \"#utility.yul\":841:980   */\n      swap3\n      swap2\n      pop\n      pop\n      jump\t// out\n        /* \"#utility.yul\":986:1119   */\n    tag_343:\n        /* \"#utility.yul\":1029:1034   */\n      0x00\n        /* \"#utility.yul\":1067:1073   */\n      dup2\n        /* \"#utility.yul\":1054:1074   */\n      calldataload\n        /* \"#utility.yul\":1045:1074   */\n      swap1\n      pop\n        /* \"#utility.yul\":1083:1113   */\n      tag_345\n        /* \"#utility.yul\":1107:1112   */\n      dup2\n        /* \"#utility.yul\":1083:1113   */\n      tag_346\n      jump\t// in\n    tag_345:\n        /* \"#utility.yul\":986:1119   */\n      swap3\n      swap2\n      pop\n      pop\n      jump\t// out\n        /* \"#utility.yul\":1125:1262   */\n    tag_347:\n        /* \"#utility.yul\":1170:1175   */\n      0x00\n        /* \"#utility.yul\":1208:1214   */\n      dup2\n        /* \"#utility.yul\":1195:1215   */\n      calldataload\n        /* \"#utility.yul\":1186:1215   */\n      swap1\n      pop\n        /* \"#utility.yul\":1224:1256   */\n      tag_349\n        /* \"#utility.yul\":1250:1255   */\n      dup2\n        /* \"#utility.yul\":1224:1256   */\n      tag_350\n      jump\t// in\n    tag_349:\n        /* \"#utility.yul\":1125:1262   */\n      swap3\n      swap2\n      pop\n      pop\n      jump\t// out\n        /* \"#utility.yul\":1268:1409   */\n    tag_351:\n        /* \"#utility.yul\":1324:1329   */\n      0x00\n        /* \"#utility.yul\":1355:1361   */\n      dup2\n        /* \"#utility.yul\":1349:1362   */\n      mload\n        /* \"#utility.yul\":1340:1362   */\n      swap1\n      pop\n        /* \"#utility.yul\":1371:1403   */\n      tag_353\n        /* \"#utility.yul\":1397:1402   */\n      dup2\n        /* \"#utility.yul\":1371:1403   */\n      tag_350\n      jump\t// in\n    tag_353:\n        /* \"#utility.yul\":1268:1409   */\n      swap3\n      swap2\n      pop\n      pop\n      jump\t// out\n        /* \"#utility.yul\":1428:1766   */\n    tag_354:\n        /* \"#utility.yul\":1483:1488   */\n      0x00\n        /* \"#utility.yul\":1532:1535   */\n      dup3\n        /* \"#utility.yul\":1525:1529   */\n      0x1f\n        /* \"#utility.yul\":1517:1523   */\n      dup4\n        /* \"#utility.yul\":1513:1530   */\n      add\n        /* \"#utility.yul\":1509:1536   */\n      slt\n        /* \"#utility.yul\":1499:1621   */\n      tag_356\n      jumpi\n        /* \"#utility.yul\":1540:1619   */\n      tag_357\n      tag_358\n      jump\t// in\n    tag_357:\n        /* \"#utility.yul\":1499:1621   */\n    tag_356:\n        /* \"#utility.yul\":1657:1663   */\n      dup2\n        /* \"#utility.yul\":1644:1664   */\n      calldataload\n        /* \"#utility.yul\":1682:1760   */\n      tag_359\n        /* \"#utility.yul\":1756:1759   */\n      dup5\n        /* \"#utility.yul\":1748:1754   */\n      dup3\n        /* \"#utility.yul\":1741:1745   */\n      0x20\n        /* \"#utility.yul\":1733:1739   */\n      dup7\n        /* \"#utility.yul\":1729:1746   */\n      add\n        /* \"#utility.yul\":1682:1760   */\n      tag_320\n      jump\t// in\n    tag_359:\n        /* \"#utility.yul\":1673:1760   */\n      swap2\n      pop\n        /* \"#utility.yul\":1489:1766   */\n      pop\n        /* \"#utility.yul\":1428:1766   */\n      swap3\n      swap2\n      pop\n      pop\n      jump\t// out\n        /* \"#utility.yul\":1786:2126   */\n    tag_360:\n        /* \"#utility.yul\":1842:1847   */\n      0x00\n        /* \"#utility.yul\":1891:1894   */\n      dup3\n        /* \"#utility.yul\":1884:1888   */\n      0x1f\n        /* \"#utility.yul\":1876:1882   */\n      dup4\n        /* \"#utility.yul\":1872:1889   */\n      add\n        /* \"#utility.yul\":1868:1895   */\n      slt\n        /* \"#utility.yul\":1858:1980   */\n      tag_362\n      jumpi\n        /* \"#utility.yul\":1899:1978   */\n      tag_363\n      tag_358\n      jump\t// in\n    tag_363:\n        /* \"#utility.yul\":1858:1980   */\n    tag_362:\n        /* \"#utility.yul\":2016:2022   */\n      dup2\n        /* \"#utility.yul\":2003:2023   */\n      calldataload\n        /* \"#utility.yul\":2041:2120   */\n      tag_364\n        /* \"#utility.yul\":2116:2119   */\n      dup5\n        /* \"#utility.yul\":2108:2114   */\n      dup3\n        /* \"#utility.yul\":2101:2105   */\n      0x20\n        /* \"#utility.yul\":2093:2099   */\n      dup7\n        /* \"#utility.yul\":2089:2106   */\n      add\n        /* \"#utility.yul\":2041:2120   */\n      tag_331\n      jump\t// in\n    tag_364:\n        /* \"#utility.yul\":2032:2120   */\n      swap2\n      pop\n        /* \"#utility.yul\":1848:2126   */\n      pop\n        /* \"#utility.yul\":1786:2126   */\n      swap3\n      swap2\n      pop\n      pop\n      jump\t// out\n        /* \"#utility.yul\":2132:2271   */\n    tag_365:\n        /* \"#utility.yul\":2178:2183   */\n      0x00\n        /* \"#utility.yul\":2216:2222   */\n      dup2\n        /* \"#utility.yul\":2203:2223   */\n      calldataload\n        /* \"#utility.yul\":2194:2223   */\n      swap1\n      pop\n        /* \"#utility.yul\":2232:2265   */\n      tag_367\n        /* \"#utility.yul\":2259:2264   */\n      dup2\n        /* \"#utility.yul\":2232:2265   */\n      tag_368\n      jump\t// in\n    tag_367:\n        /* \"#utility.yul\":2132:2271   */\n      swap3\n      swap2\n      pop\n      pop\n      jump\t// out\n        /* \"#utility.yul\":2277:2606   */\n    tag_73:\n        /* \"#utility.yul\":2336:2342   */\n      0x00\n        /* \"#utility.yul\":2385:2387   */\n      0x20\n        /* \"#utility.yul\":2373:2382   */\n      dup3\n        /* \"#utility.yul\":2364:2371   */\n      dup5\n        /* \"#utility.yul\":2360:2383   */\n      sub\n        /* \"#utility.yul\":2356:2388   */\n      slt\n        /* \"#utility.yul\":2353:2472   */\n      iszero\n      tag_370\n      jumpi\n        /* \"#utility.yul\":2391:2470   */\n      tag_371\n      tag_372\n      jump\t// in\n    tag_371:\n        /* \"#utility.yul\":2353:2472   */\n    tag_370:\n        /* \"#utility.yul\":2511:2512   */\n      0x00\n        /* \"#utility.yul\":2536:2589   */\n      tag_373\n        /* \"#utility.yul\":2581:2588   */\n      dup5\n        /* \"#utility.yul\":2572:2578   */\n      dup3\n        /* \"#utility.yul\":2561:2570   */\n      dup6\n        /* \"#utility.yul\":2557:2579   */\n      add\n        /* \"#utility.yul\":2536:2589   */\n      tag_339\n      jump\t// in\n    tag_373:\n        /* \"#utility.yul\":2526:2589   */\n      swap2\n      pop\n        /* \"#utility.yul\":2482:2599   */\n      pop\n        /* \"#utility.yul\":2277:2606   */\n      swap3\n      swap2\n      pop\n      pop\n      jump\t// out\n        /* \"#utility.yul\":2612:3086   */\n    tag_101:\n        /* \"#utility.yul\":2680:2686   */\n      0x00\n        /* \"#utility.yul\":2688:2694   */\n      dup1\n        /* \"#utility.yul\":2737:2739   */\n      0x40\n        /* \"#utility.yul\":2725:2734   */\n      dup4\n        /* \"#utility.yul\":2716:2723   */\n      dup6\n        /* \"#utility.yul\":2712:2735   */\n      sub\n        /* \"#utility.yul\":2708:2740   */\n      slt\n        /* \"#utility.yul\":2705:2824   */\n      iszero\n      tag_375\n      jumpi\n        /* \"#utility.yul\":2743:2822   */\n      tag_376\n      tag_372\n      jump\t// in\n    tag_376:\n        /* \"#utility.yul\":2705:2824   */\n    tag_375:\n        /* \"#utility.yul\":2863:2864   */\n      0x00\n        /* \"#utility.yul\":2888:2941   */\n      tag_377\n        /* \"#utility.yul\":2933:2940   */\n      dup6\n        /* \"#utility.yul\":2924:2930   */\n      dup3\n        /* \"#utility.yul\":2913:2922   */\n      dup7\n        /* \"#utility.yul\":2909:2931   */\n      add\n        /* \"#utility.yul\":2888:2941   */\n      tag_339\n      jump\t// in\n    tag_377:\n        /* \"#utility.yul\":2878:2941   */\n      swap3\n      pop\n        /* \"#utility.yul\":2834:2951   */\n      pop\n        /* \"#utility.yul\":2990:2992   */\n      0x20\n        /* \"#utility.yul\":3016:3069   */\n      tag_378\n        /* \"#utility.yul\":3061:3068   */\n      dup6\n        /* \"#utility.yul\":3052:3058   */\n      dup3\n        /* \"#utility.yul\":3041:3050   */\n      dup7\n        /* \"#utility.yul\":3037:3059   */\n      add\n        /* \"#utility.yul\":3016:3069   */\n      tag_339\n      jump\t// in\n    tag_378:\n        /* \"#utility.yul\":3006:3069   */\n      swap2\n      pop\n        /* \"#utility.yul\":2961:3079   */\n      pop\n        /* \"#utility.yul\":2612:3086   */\n      swap3\n      pop\n      swap3\n      swap1\n      pop\n      jump\t// out\n        /* \"#utility.yul\":3092:3711   */\n    tag_55:\n        /* \"#utility.yul\":3169:3175   */\n      0x00\n        /* \"#utility.yul\":3177:3183   */\n      dup1\n        /* \"#utility.yul\":3185:3191   */\n      0x00\n        /* \"#utility.yul\":3234:3236   */\n      0x60\n        /* \"#utility.yul\":3222:3231   */\n      dup5\n        /* \"#utility.yul\":3213:3220   */\n      dup7\n        /* \"#utility.yul\":3209:3232   */\n      sub\n        /* \"#utility.yul\":3205:3237   */\n      slt\n        /* \"#utility.yul\":3202:3321   */\n      iszero\n      tag_380\n      jumpi\n        /* \"#utility.yul\":3240:3319   */\n      tag_381\n      tag_372\n      jump\t// in\n    tag_381:\n        /* \"#utility.yul\":3202:3321   */\n    tag_380:\n        /* \"#utility.yul\":3360:3361   */\n      0x00\n        /* \"#utility.yul\":3385:3438   */\n      tag_382\n        /* \"#utility.yul\":3430:3437   */\n      dup7\n        /* \"#utility.yul\":3421:3427   */\n      dup3\n        /* \"#utility.yul\":3410:3419   */\n      dup8\n        /* \"#utility.yul\":3406:3428   */\n      add\n        /* \"#utility.yul\":3385:3438   */\n      tag_339\n      jump\t// in\n    tag_382:\n        /* \"#utility.yul\":3375:3438   */\n      swap4\n      pop\n        /* \"#utility.yul\":3331:3448   */\n      pop\n        /* \"#utility.yul\":3487:3489   */\n      0x20\n        /* \"#utility.yul\":3513:3566   */\n      tag_383\n        /* \"#utility.yul\":3558:3565   */\n      dup7\n        /* \"#utility.yul\":3549:3555   */\n      dup3\n        /* \"#utility.yul\":3538:3547   */\n      dup8\n        /* \"#utility.yul\":3534:3556   */\n      add\n        /* \"#utility.yul\":3513:3566   */\n      tag_339\n      jump\t// in\n    tag_383:\n        /* \"#utility.yul\":3503:3566   */\n      swap3\n      pop\n        /* \"#utility.yul\":3458:3576   */\n      pop\n        /* \"#utility.yul\":3615:3617   */\n      0x40\n        /* \"#utility.yul\":3641:3694   */\n      tag_384\n        /* \"#utility.yul\":3686:3693   */\n      dup7\n        /* \"#utility.yul\":3677:3683   */\n      dup3\n        /* \"#utility.yul\":3666:3675   */\n      dup8\n        /* \"#utility.yul\":3662:3684   */\n      add\n        /* \"#utility.yul\":3641:3694   */\n      tag_365\n      jump\t// in\n    tag_384:\n        /* \"#utility.yul\":3631:3694   */\n      swap2\n      pop\n        /* \"#utility.yul\":3586:3704   */\n      pop\n        /* \"#utility.yul\":3092:3711   */\n      swap3\n      pop\n      swap3\n      pop\n      swap3\n      jump\t// out\n        /* \"#utility.yul\":3717:4660   */\n    tag_93:\n        /* \"#utility.yul\":3812:3818   */\n      0x00\n        /* \"#utility.yul\":3820:3826   */\n      dup1\n        /* \"#utility.yul\":3828:3834   */\n      0x00\n        /* \"#utility.yul\":3836:3842   */\n      dup1\n        /* \"#utility.yul\":3885:3888   */\n      0x80\n        /* \"#utility.yul\":3873:3882   */\n      dup6\n        /* \"#utility.yul\":3864:3871   */\n      dup8\n        /* \"#utility.yul\":3860:3883   */\n      sub\n        /* \"#utility.yul\":3856:3889   */\n      slt\n        /* \"#utility.yul\":3853:3973   */\n      iszero\n      tag_386\n      jumpi\n        /* \"#utility.yul\":3892:3971   */\n      tag_387\n      tag_372\n      jump\t// in\n    tag_387:\n        /* \"#utility.yul\":3853:3973   */\n    tag_386:\n        /* \"#utility.yul\":4012:4013   */\n      0x00\n        /* \"#utility.yul\":4037:4090   */\n      tag_388\n        /* \"#utility.yul\":4082:4089   */\n      dup8\n        /* \"#utility.yul\":4073:4079   */\n      dup3\n        /* \"#utility.yul\":4062:4071   */\n      dup9\n        /* \"#utility.yul\":4058:4080   */\n      add\n        /* \"#utility.yul\":4037:4090   */\n      tag_339\n      jump\t// in\n    tag_388:\n        /* \"#utility.yul\":4027:4090   */\n      swap5\n      pop\n        /* \"#utility.yul\":3983:4100   */\n      pop\n        /* \"#utility.yul\":4139:4141   */\n      0x20\n        /* \"#utility.yul\":4165:4218   */\n      tag_389\n        /* \"#utility.yul\":4210:4217   */\n      dup8\n        /* \"#utility.yul\":4201:4207   */\n      dup3\n        /* \"#utility.yul\":4190:4199   */\n      dup9\n        /* \"#utility.yul\":4186:4208   */\n      add\n        /* \"#utility.yul\":4165:4218   */\n      tag_339\n      jump\t// in\n    tag_389:\n        /* \"#utility.yul\":4155:4218   */\n      swap4\n      pop\n        /* \"#utility.yul\":4110:4228   */\n      pop\n        /* \"#utility.yul\":4267:4269   */\n      0x40\n        /* \"#utility.yul\":4293:4346   */\n      tag_390\n        /* \"#utility.yul\":4338:4345   */\n      dup8\n        /* \"#utility.yul\":4329:4335   */\n      dup3\n        /* \"#utility.yul\":4318:4327   */\n      dup9\n        /* \"#utility.yul\":4314:4336   */\n      add\n        /* \"#utility.yul\":4293:4346   */\n      tag_365\n      jump\t// in\n    tag_390:\n        /* \"#utility.yul\":4283:4346   */\n      swap3\n      pop\n        /* \"#utility.yul\":4238:4356   */\n      pop\n        /* \"#utility.yul\":4423:4425   */\n      0x60\n        /* \"#utility.yul\":4412:4421   */\n      dup6\n        /* \"#utility.yul\":4408:4426   */\n      add\n        /* \"#utility.yul\":4395:4427   */\n      calldataload\n        /* \"#utility.yul\":4454:4472   */\n      0xffffffffffffffff\n        /* \"#utility.yul\":4446:4452   */\n      dup2\n        /* \"#utility.yul\":4443:4473   */\n      gt\n        /* \"#utility.yul\":4440:4557   */\n      iszero\n      tag_391\n      jumpi\n        /* \"#utility.yul\":4476:4555   */\n      tag_392\n      tag_393\n      jump\t// in\n    tag_392:\n        /* \"#utility.yul\":4440:4557   */\n    tag_391:\n        /* \"#utility.yul\":4581:4643   */\n      tag_394\n        /* \"#utility.yul\":4635:4642   */\n      dup8\n        /* \"#utility.yul\":4626:4632   */\n      dup3\n        /* \"#utility.yul\":4615:4624   */\n      dup9\n        /* \"#utility.yul\":4611:4633   */\n      add\n        /* \"#utility.yul\":4581:4643   */\n      tag_354\n      jump\t// in\n    tag_394:\n        /* \"#utility.yul\":4571:4643   */\n      swap2\n      pop\n        /* \"#utility.yul\":4366:4653   */\n      pop\n        /* \"#utility.yul\":3717:4660   */\n      swap3\n      swap6\n      swap2\n      swap5\n      pop\n      swap3\n      pop\n      jump\t// out\n        /* \"#utility.yul\":4666:5134   */\n    tag_89:\n        /* \"#utility.yul\":4731:4737   */\n      0x00\n        /* \"#utility.yul\":4739:4745   */\n      dup1\n        /* \"#utility.yul\":4788:4790   */\n      0x40\n        /* \"#utility.yul\":4776:4785   */\n      dup4\n        /* \"#utility.yul\":4767:4774   */\n      dup6\n        /* \"#utility.yul\":4763:4786   */\n      sub\n        /* \"#utility.yul\":4759:4791   */\n      slt\n        /* \"#utility.yul\":4756:4875   */\n      iszero\n      tag_396\n      jumpi\n        /* \"#utility.yul\":4794:4873   */\n      tag_397\n      tag_372\n      jump\t// in\n    tag_397:\n        /* \"#utility.yul\":4756:4875   */\n    tag_396:\n        /* \"#utility.yul\":4914:4915   */\n      0x00\n        /* \"#utility.yul\":4939:4992   */\n      tag_398\n        /* \"#utility.yul\":4984:4991   */\n      dup6\n        /* \"#utility.yul\":4975:4981   */\n      dup3\n        /* \"#utility.yul\":4964:4973   */\n      dup7\n        /* \"#utility.yul\":4960:4982   */\n      add\n        /* \"#utility.yul\":4939:4992   */\n      tag_339\n      jump\t// in\n    tag_398:\n        /* \"#utility.yul\":4929:4992   */\n      swap3\n      pop\n        /* \"#utility.yul\":4885:5002   */\n      pop\n        /* \"#utility.yul\":5041:5043   */\n      0x20\n        /* \"#utility.yul\":5067:5117   */\n      tag_399\n        /* \"#utility.yul\":5109:5116   */\n      dup6\n        /* \"#utility.yul\":5100:5106   */\n      dup3\n        /* \"#utility.yul\":5089:5098   */\n      dup7\n        /* \"#utility.yul\":5085:5107   */\n      add\n        /* \"#utility.yul\":5067:5117   */\n      tag_343\n      jump\t// in\n    tag_399:\n        /* \"#utility.yul\":5057:5117   */\n      swap2\n      pop\n        /* \"#utility.yul\":5012:5127   */\n      pop\n        /* \"#utility.yul\":4666:5134   */\n      swap3\n      pop\n      swap3\n      swap1\n      pop\n      jump\t// out\n        /* \"#utility.yul\":5140:5614   */\n    tag_49:\n        /* \"#utility.yul\":5208:5214   */\n      0x00\n        /* \"#utility.yul\":5216:5222   */\n      dup1\n        /* \"#utility.yul\":5265:5267   */\n      0x40\n        /* \"#utility.yul\":5253:5262   */\n      dup4\n        /* \"#utility.yul\":5244:5251   */\n      dup6\n        /* \"#utility.yul\":5240:5263   */\n      sub\n        /* \"#utility.yul\":5236:5268   */\n      slt\n        /* \"#utility.yul\":5233:5352   */\n      iszero\n      tag_401\n      jumpi\n        /* \"#utility.yul\":5271:5350   */\n      tag_402\n      tag_372\n      jump\t// in\n    tag_402:\n        /* \"#utility.yul\":5233:5352   */\n    tag_401:\n        /* \"#utility.yul\":5391:5392   */\n      0x00\n        /* \"#utility.yul\":5416:5469   */\n      tag_403\n        /* \"#utility.yul\":5461:5468   */\n      dup6\n        /* \"#utility.yul\":5452:5458   */\n      dup3\n        /* \"#utility.yul\":5441:5450   */\n      dup7\n        /* \"#utility.yul\":5437:5459   */\n      add\n        /* \"#utility.yul\":5416:5469   */\n      tag_339\n      jump\t// in\n    tag_403:\n        /* \"#utility.yul\":5406:5469   */\n      swap3\n      pop\n        /* \"#utility.yul\":5362:5479   */\n      pop\n        /* \"#utility.yul\":5518:5520   */\n      0x20\n        /* \"#utility.yul\":5544:5597   */\n      tag_404\n        /* \"#utility.yul\":5589:5596   */\n      dup6\n        /* \"#utility.yul\":5580:5586   */\n      dup3\n        /* \"#utility.yul\":5569:5578   */\n      dup7\n        /* \"#utility.yul\":5565:5587   */\n      add\n        /* \"#utility.yul\":5544:5597   */\n      tag_365\n      jump\t// in\n    tag_404:\n        /* \"#utility.yul\":5534:5597   */\n      swap2\n      pop\n        /* \"#utility.yul\":5489:5607   */\n      pop\n        /* \"#utility.yul\":5140:5614   */\n      swap3\n      pop\n      swap3\n      swap1\n      pop\n      jump\t// out\n        /* \"#utility.yul\":5620:5947   */\n    tag_29:\n        /* \"#utility.yul\":5678:5684   */\n      0x00\n        /* \"#utility.yul\":5727:5729   */\n      0x20\n        /* \"#utility.yul\":5715:5724   */\n      dup3\n        /* \"#utility.yul\":5706:5713   */\n      dup5\n        /* \"#utility.yul\":5702:5725   */\n      sub\n        /* \"#utility.yul\":5698:5730   */\n      slt\n        /* \"#utility.yul\":5695:5814   */\n      iszero\n      tag_406\n      jumpi\n        /* \"#utility.yul\":5733:5812   */\n      tag_407\n      tag_372\n      jump\t// in\n    tag_407:\n        /* \"#utility.yul\":5695:5814   */\n    tag_406:\n        /* \"#utility.yul\":5853:5854   */\n      0x00\n        /* \"#utility.yul\":5878:5930   */\n      tag_408\n        /* \"#utility.yul\":5922:5929   */\n      dup5\n        /* \"#utility.yul\":5913:5919   */\n      dup3\n        /* \"#utility.yul\":5902:5911   */\n      dup6\n        /* \"#utility.yul\":5898:5920   */\n      add\n        /* \"#utility.yul\":5878:5930   */\n      tag_347\n      jump\t// in\n    tag_408:\n        /* \"#utility.yul\":5868:5930   */\n      swap2\n      pop\n        /* \"#utility.yul\":5824:5940   */\n      pop\n        /* \"#utility.yul\":5620:5947   */\n      swap3\n      swap2\n      pop\n      pop\n      jump\t// out\n        /* \"#utility.yul\":5953:6302   */\n    tag_285:\n        /* \"#utility.yul\":6022:6028   */\n      0x00\n        /* \"#utility.yul\":6071:6073   */\n      0x20\n        /* \"#utility.yul\":6059:6068   */\n      dup3\n        /* \"#utility.yul\":6050:6057   */\n      dup5\n        /* \"#utility.yul\":6046:6069   */\n      sub\n        /* \"#utility.yul\":6042:6074   */\n      slt\n        /* \"#utility.yul\":6039:6158   */\n      iszero\n      tag_410\n      jumpi\n        /* \"#utility.yul\":6077:6156   */\n      tag_411\n      tag_372\n      jump\t// in\n    tag_411:\n        /* \"#utility.yul\":6039:6158   */\n    tag_410:\n        /* \"#utility.yul\":6197:6198   */\n      0x00\n        /* \"#utility.yul\":6222:6285   */\n      tag_412\n        /* \"#utility.yul\":6277:6284   */\n      dup5\n        /* \"#utility.yul\":6268:6274   */\n      dup3\n        /* \"#utility.yul\":6257:6266   */\n      dup6\n        /* \"#utility.yul\":6253:6275   */\n      add\n        /* \"#utility.yul\":6222:6285   */\n      tag_351\n      jump\t// in\n    tag_412:\n        /* \"#utility.yul\":6212:6285   */\n      swap2\n      pop\n        /* \"#utility.yul\":6168:6295   */\n      pop\n        /* \"#utility.yul\":5953:6302   */\n      swap3\n      swap2\n      pop\n      pop\n      jump\t// out\n        /* \"#utility.yul\":6308:6817   */\n    tag_35:\n        /* \"#utility.yul\":6377:6383   */\n      0x00\n        /* \"#utility.yul\":6426:6428   */\n      0x20\n        /* \"#utility.yul\":6414:6423   */\n      dup3\n        /* \"#utility.yul\":6405:6412   */\n      dup5\n        /* \"#utility.yul\":6401:6424   */\n      sub\n        /* \"#utility.yul\":6397:6429   */\n      slt\n        /* \"#utility.yul\":6394:6513   */\n      iszero\n      tag_414\n      jumpi\n        /* \"#utility.yul\":6432:6511   */\n      tag_415\n      tag_372\n      jump\t// in\n    tag_415:\n        /* \"#utility.yul\":6394:6513   */\n    tag_414:\n        /* \"#utility.yul\":6580:6581   */\n      0x00\n        /* \"#utility.yul\":6569:6578   */\n      dup3\n        /* \"#utility.yul\":6565:6582   */\n      add\n        /* \"#utility.yul\":6552:6583   */\n      calldataload\n        /* \"#utility.yul\":6610:6628   */\n      0xffffffffffffffff\n        /* \"#utility.yul\":6602:6608   */\n      dup2\n        /* \"#utility.yul\":6599:6629   */\n      gt\n        /* \"#utility.yul\":6596:6713   */\n      iszero\n      tag_416\n      jumpi\n        /* \"#utility.yul\":6632:6711   */\n      tag_417\n      tag_393\n      jump\t// in\n    tag_417:\n        /* \"#utility.yul\":6596:6713   */\n    tag_416:\n        /* \"#utility.yul\":6737:6800   */\n      tag_418\n        /* \"#utility.yul\":6792:6799   */\n      dup5\n        /* \"#utility.yul\":6783:6789   */\n      dup3\n        /* \"#utility.yul\":6772:6781   */\n      dup6\n        /* \"#utility.yul\":6768:6790   */\n      add\n        /* \"#utility.yul\":6737:6800   */\n      tag_360\n      jump\t// in\n    tag_418:\n        /* \"#utility.yul\":6727:6800   */\n      swap2\n      pop\n        /* \"#utility.yul\":6523:6810   */\n      pop\n        /* \"#utility.yul\":6308:6817   */\n      swap3\n      swap2\n      pop\n      pop\n      jump\t// out\n        /* \"#utility.yul\":6823:7152   */\n    tag_43:\n        /* \"#utility.yul\":6882:6888   */\n      0x00\n        /* \"#utility.yul\":6931:6933   */\n      0x20\n        /* \"#utility.yul\":6919:6928   */\n      dup3\n        /* \"#utility.yul\":6910:6917   */\n      dup5\n        /* \"#utility.yul\":6906:6929   */\n      sub\n        /* \"#utility.yul\":6902:6934   */\n      slt\n        /* \"#utility.yul\":6899:7018   */\n      iszero\n      tag_420\n      jumpi\n        /* \"#utility.yul\":6937:7016   */\n      tag_421\n      tag_372\n      jump\t// in\n    tag_421:\n        /* \"#utility.yul\":6899:7018   */\n    tag_420:\n        /* \"#utility.yul\":7057:7058   */\n      0x00\n        /* \"#utility.yul\":7082:7135   */\n      tag_422\n        /* \"#utility.yul\":7127:7134   */\n      dup5\n        /* \"#utility.yul\":7118:7124   */\n      dup3\n        /* \"#utility.yul\":7107:7116   */\n      dup6\n        /* \"#utility.yul\":7103:7125   */\n      add\n        /* \"#utility.yul\":7082:7135   */\n      tag_365\n      jump\t// in\n    tag_422:\n        /* \"#utility.yul\":7072:7135   */\n      swap2\n      pop\n        /* \"#utility.yul\":7028:7145   */\n      pop\n        /* \"#utility.yul\":6823:7152   */\n      swap3\n      swap2\n      pop\n      pop\n      jump\t// out\n        /* \"#utility.yul\":7158:7276   */\n    tag_423:\n        /* \"#utility.yul\":7245:7269   */\n      tag_425\n        /* \"#utility.yul\":7263:7268   */\n      dup2\n        /* \"#utility.yul\":7245:7269   */\n      tag_426\n      jump\t// in\n    tag_425:\n        /* \"#utility.yul\":7240:7243   */\n      dup3\n        /* \"#utility.yul\":7233:7270   */\n      mstore\n        /* \"#utility.yul\":7158:7276   */\n      pop\n      pop\n      jump\t// out\n        /* \"#utility.yul\":7282:7391   */\n    tag_427:\n        /* \"#utility.yul\":7363:7384   */\n      tag_429\n        /* \"#utility.yul\":7378:7383   */\n      dup2\n        /* \"#utility.yul\":7363:7384   */\n      tag_430\n      jump\t// in\n    tag_429:\n        /* \"#utility.yul\":7358:7361   */\n      dup3\n        /* \"#utility.yul\":7351:7385   */\n      mstore\n        /* \"#utility.yul\":7282:7391   */\n      pop\n      pop\n      jump\t// out\n        /* \"#utility.yul\":7397:7757   */\n    tag_431:\n        /* \"#utility.yul\":7483:7486   */\n      0x00\n        /* \"#utility.yul\":7511:7549   */\n      tag_433\n        /* \"#utility.yul\":7543:7548   */\n      dup3\n        /* \"#utility.yul\":7511:7549   */\n      tag_434\n      jump\t// in\n    tag_433:\n        /* \"#utility.yul\":7565:7635   */\n      tag_435\n        /* \"#utility.yul\":7628:7634   */\n      dup2\n        /* \"#utility.yul\":7623:7626   */\n      dup6\n        /* \"#utility.yul\":7565:7635   */\n      tag_436\n      jump\t// in\n    tag_435:\n        /* \"#utility.yul\":7558:7635   */\n      swap4\n      pop\n        /* \"#utility.yul\":7644:7696   */\n      tag_437\n        /* \"#utility.yul\":7689:7695   */\n      dup2\n        /* \"#utility.yul\":7684:7687   */\n      dup6\n        /* \"#utility.yul\":7677:7681   */\n      0x20\n        /* \"#utility.yul\":7670:7675   */\n      dup7\n        /* \"#utility.yul\":7666:7682   */\n      add\n        /* \"#utility.yul\":7644:7696   */\n      tag_438\n      jump\t// in\n    tag_437:\n        /* \"#utility.yul\":7721:7750   */\n      tag_439\n        /* \"#utility.yul\":7743:7749   */\n      dup2\n        /* \"#utility.yul\":7721:7750   */\n      tag_440\n      jump\t// in\n    tag_439:\n        /* \"#utility.yul\":7716:7719   */\n      dup5\n        /* \"#utility.yul\":7712:7751   */\n      add\n        /* \"#utility.yul\":7705:7751   */\n      swap2\n      pop\n        /* \"#utility.yul\":7487:7757   */\n      pop\n        /* \"#utility.yul\":7397:7757   */\n      swap3\n      swap2\n      pop\n      pop\n      jump\t// out\n        /* \"#utility.yul\":7763:8127   */\n    tag_441:\n        /* \"#utility.yul\":7851:7854   */\n      0x00\n        /* \"#utility.yul\":7879:7918   */\n      tag_443\n        /* \"#utility.yul\":7912:7917   */\n      dup3\n        /* \"#utility.yul\":7879:7918   */\n      tag_444\n      jump\t// in\n    tag_443:\n        /* \"#utility.yul\":7934:8005   */\n      tag_445\n        /* \"#utility.yul\":7998:8004   */\n      dup2\n        /* \"#utility.yul\":7993:7996   */\n      dup6\n        /* \"#utility.yul\":7934:8005   */\n      tag_446\n      jump\t// in\n    tag_445:\n        /* \"#utility.yul\":7927:8005   */\n      swap4\n      pop\n        /* \"#utility.yul\":8014:8066   */\n      tag_447\n        /* \"#utility.yul\":8059:8065   */\n      dup2\n        /* \"#utility.yul\":8054:8057   */\n      dup6\n        /* \"#utility.yul\":8047:8051   */\n      0x20\n        /* \"#utility.yul\":8040:8045   */\n      dup7\n        /* \"#utility.yul\":8036:8052   */\n      add\n        /* \"#utility.yul\":8014:8066   */\n      tag_438\n      jump\t// in\n    tag_447:\n        /* \"#utility.yul\":8091:8120   */\n      tag_448\n        /* \"#utility.yul\":8113:8119   */\n      dup2\n        /* \"#utility.yul\":8091:8120   */\n      tag_440\n      jump\t// in\n    tag_448:\n        /* \"#utility.yul\":8086:8089   */\n      dup5\n        /* \"#utility.yul\":8082:8121   */\n      add\n        /* \"#utility.yul\":8075:8121   */\n      swap2\n      pop\n        /* \"#utility.yul\":7855:8127   */\n      pop\n        /* \"#utility.yul\":7763:8127   */\n      swap3\n      swap2\n      pop\n      pop\n      jump\t// out\n        /* \"#utility.yul\":8133:8499   */\n    tag_449:\n        /* \"#utility.yul\":8275:8278   */\n      0x00\n        /* \"#utility.yul\":8296:8363   */\n      tag_451\n        /* \"#utility.yul\":8360:8362   */\n      0x32\n        /* \"#utility.yul\":8355:8358   */\n      dup4\n        /* \"#utility.yul\":8296:8363   */\n      tag_446\n      jump\t// in\n    tag_451:\n        /* \"#utility.yul\":8289:8363   */\n      swap2\n      pop\n        /* \"#utility.yul\":8372:8465   */\n      tag_452\n        /* \"#utility.yul\":8461:8464   */\n      dup3\n        /* \"#utility.yul\":8372:8465   */\n      tag_453\n      jump\t// in\n    tag_452:\n        /* \"#utility.yul\":8490:8492   */\n      0x40\n        /* \"#utility.yul\":8485:8488   */\n      dup3\n        /* \"#utility.yul\":8481:8493   */\n      add\n        /* \"#utility.yul\":8474:8493   */\n      swap1\n      pop\n        /* \"#utility.yul\":8133:8499   */\n      swap2\n      swap1\n      pop\n      jump\t// out\n        /* \"#utility.yul\":8505:8871   */\n    tag_454:\n        /* \"#utility.yul\":8647:8650   */\n      0x00\n        /* \"#utility.yul\":8668:8735   */\n      tag_456\n        /* \"#utility.yul\":8732:8734   */\n      0x26\n        /* \"#utility.yul\":8727:8730   */\n      dup4\n        /* \"#utility.yul\":8668:8735   */\n      tag_446\n      jump\t// in\n    tag_456:\n        /* \"#utility.yul\":8661:8735   */\n      swap2\n      pop\n        /* \"#utility.yul\":8744:8837   */\n      tag_457\n        /* \"#utility.yul\":8833:8836   */\n      dup3\n        /* \"#utility.yul\":8744:8837   */\n      tag_458\n      jump\t// in\n    tag_457:\n        /* \"#utility.yul\":8862:8864   */\n      0x40\n        /* \"#utility.yul\":8857:8860   */\n      dup3\n        /* \"#utility.yul\":8853:8865   */\n      add\n        /* \"#utility.yul\":8846:8865   */\n      swap1\n      pop\n        /* \"#utility.yul\":8505:8871   */\n      swap2\n      swap1\n      pop\n      jump\t// out\n        /* \"#utility.yul\":8877:9243   */\n    tag_459:\n        /* \"#utility.yul\":9019:9022   */\n      0x00\n        /* \"#utility.yul\":9040:9107   */\n      tag_461\n        /* \"#utility.yul\":9104:9106   */\n      0x25\n        /* \"#utility.yul\":9099:9102   */\n      dup4\n        /* \"#utility.yul\":9040:9107   */\n      tag_446\n      jump\t// in\n    tag_461:\n        /* \"#utility.yul\":9033:9107   */\n      swap2\n      pop\n        /* \"#utility.yul\":9116:9209   */\n      tag_462\n        /* \"#utility.yul\":9205:9208   */\n      dup3\n        /* \"#utility.yul\":9116:9209   */\n      tag_463\n      jump\t// in\n    tag_462:\n        /* \"#utility.yul\":9234:9236   */\n      0x40\n        /* \"#utility.yul\":9229:9232   */\n      dup3\n        /* \"#utility.yul\":9225:9237   */\n      add\n        /* \"#utility.yul\":9218:9237   */\n      swap1\n      pop\n        /* \"#utility.yul\":8877:9243   */\n      swap2\n      swap1\n      pop\n      jump\t// out\n        /* \"#utility.yul\":9249:9615   */\n    tag_464:\n        /* \"#utility.yul\":9391:9394   */\n      0x00\n        /* \"#utility.yul\":9412:9479   */\n      tag_466\n        /* \"#utility.yul\":9476:9478   */\n      0x1c\n        /* \"#utility.yul\":9471:9474   */\n      dup4\n        /* \"#utility.yul\":9412:9479   */\n      tag_446\n      jump\t// in\n    tag_466:\n        /* \"#utility.yul\":9405:9479   */\n      swap2\n      pop\n        /* \"#utility.yul\":9488:9581   */\n      tag_467\n        /* \"#utility.yul\":9577:9580   */\n      dup3\n        /* \"#utility.yul\":9488:9581   */\n      tag_468\n      jump\t// in\n    tag_467:\n        /* \"#utility.yul\":9606:9608   */\n      0x20\n        /* \"#utility.yul\":9601:9604   */\n      dup3\n        /* \"#utility.yul\":9597:9609   */\n      add\n        /* \"#utility.yul\":9590:9609   */\n      swap1\n      pop\n        /* \"#utility.yul\":9249:9615   */\n      swap2\n      swap1\n      pop\n      jump\t// out\n        /* \"#utility.yul\":9621:9987   */\n    tag_469:\n        /* \"#utility.yul\":9763:9766   */\n      0x00\n        /* \"#utility.yul\":9784:9851   */\n      tag_471\n        /* \"#utility.yul\":9848:9850   */\n      0x24\n        /* \"#utility.yul\":9843:9846   */\n      dup4\n        /* \"#utility.yul\":9784:9851   */\n      tag_446\n      jump\t// in\n    tag_471:\n        /* \"#utility.yul\":9777:9851   */\n      swap2\n      pop\n        /* \"#utility.yul\":9860:9953   */\n      tag_472\n        /* \"#utility.yul\":9949:9952   */\n      dup3\n        /* \"#utility.yul\":9860:9953   */\n      tag_473\n      jump\t// in\n    tag_472:\n        /* \"#utility.yul\":9978:9980   */\n      0x40\n        /* \"#utility.yul\":9973:9976   */\n      dup3\n        /* \"#utility.yul\":9969:9981   */\n      add\n        /* \"#utility.yul\":9962:9981   */\n      swap1\n      pop\n        /* \"#utility.yul\":9621:9987   */\n      swap2\n      swap1\n      pop\n      jump\t// out\n        /* \"#utility.yul\":9993:10359   */\n    tag_474:\n        /* \"#utility.yul\":10135:10138   */\n      0x00\n        /* \"#utility.yul\":10156:10223   */\n      tag_476\n        /* \"#utility.yul\":10220:10222   */\n      0x19\n        /* \"#utility.yul\":10215:10218   */\n      dup4\n        /* \"#utility.yul\":10156:10223   */\n      tag_446\n      jump\t// in\n    tag_476:\n        /* \"#utility.yul\":10149:10223   */\n      swap2\n      pop\n        /* \"#utility.yul\":10232:10325   */\n      tag_477\n        /* \"#utility.yul\":10321:10324   */\n      dup3\n        /* \"#utility.yul\":10232:10325   */\n      tag_478\n      jump\t// in\n    tag_477:\n        /* \"#utility.yul\":10350:10352   */\n      0x20\n        /* \"#utility.yul\":10345:10348   */\n      dup3\n        /* \"#utility.yul\":10341:10353   */\n      add\n        /* \"#utility.yul\":10334:10353   */\n      swap1\n      pop\n        /* \"#utility.yul\":9993:10359   */\n      swap2\n      swap1\n      pop\n      jump\t// out\n        /* \"#utility.yul\":10365:10731   */\n    tag_479:\n        /* \"#utility.yul\":10507:10510   */\n      0x00\n        /* \"#utility.yul\":10528:10595   */\n      tag_481\n        /* \"#utility.yul\":10592:10594   */\n      0x29\n        /* \"#utility.yul\":10587:10590   */\n      dup4\n        /* \"#utility.yul\":10528:10595   */\n      tag_446\n      jump\t// in\n    tag_481:\n        /* \"#utility.yul\":10521:10595   */\n      swap2\n      pop\n        /* \"#utility.yul\":10604:10697   */\n      tag_482\n        /* \"#utility.yul\":10693:10696   */\n      dup3\n        /* \"#utility.yul\":10604:10697   */\n      tag_483\n      jump\t// in\n    tag_482:\n        /* \"#utility.yul\":10722:10724   */\n      0x40\n        /* \"#utility.yul\":10717:10720   */\n      dup3\n        /* \"#utility.yul\":10713:10725   */\n      add\n        /* \"#utility.yul\":10706:10725   */\n      swap1\n      pop\n        /* \"#utility.yul\":10365:10731   */\n      swap2\n      swap1\n      pop\n      jump\t// out\n        /* \"#utility.yul\":10737:11103   */\n    tag_484:\n        /* \"#utility.yul\":10879:10882   */\n      0x00\n        /* \"#utility.yul\":10900:10967   */\n      tag_486\n        /* \"#utility.yul\":10964:10966   */\n      0x3e\n        /* \"#utility.yul\":10959:10962   */\n      dup4\n        /* \"#utility.yul\":10900:10967   */\n      tag_446\n      jump\t// in\n    tag_486:\n        /* \"#utility.yul\":10893:10967   */\n      swap2\n      pop\n        /* \"#utility.yul\":10976:11069   */\n      tag_487\n        /* \"#utility.yul\":11065:11068   */\n      dup3\n        /* \"#utility.yul\":10976:11069   */\n      tag_488\n      jump\t// in\n    tag_487:\n        /* \"#utility.yul\":11094:11096   */\n      0x40\n        /* \"#utility.yul\":11089:11092   */\n      dup3\n        /* \"#utility.yul\":11085:11097   */\n      add\n        /* \"#utility.yul\":11078:11097   */\n      swap1\n      pop\n        /* \"#utility.yul\":10737:11103   */\n      swap2\n      swap1\n      pop\n      jump\t// out\n        /* \"#utility.yul\":11109:11475   */\n    tag_489:\n        /* \"#utility.yul\":11251:11254   */\n      0x00\n        /* \"#utility.yul\":11272:11339   */\n      tag_491\n        /* \"#utility.yul\":11336:11338   */\n      0x20\n        /* \"#utility.yul\":11331:11334   */\n      dup4\n        /* \"#utility.yul\":11272:11339   */\n      tag_446\n      jump\t// in\n    tag_491:\n        /* \"#utility.yul\":11265:11339   */\n      swap2\n      pop\n        /* \"#utility.yul\":11348:11441   */\n      tag_492\n        /* \"#utility.yul\":11437:11440   */\n      dup3\n        /* \"#utility.yul\":11348:11441   */\n      tag_493\n      jump\t// in\n    tag_492:\n        /* \"#utility.yul\":11466:11468   */\n      0x20\n        /* \"#utility.yul\":11461:11464   */\n      dup3\n        /* \"#utility.yul\":11457:11469   */\n      add\n        /* \"#utility.yul\":11450:11469   */\n      swap1\n      pop\n        /* \"#utility.yul\":11109:11475   */\n      swap2\n      swap1\n      pop\n      jump\t// out\n        /* \"#utility.yul\":11481:11847   */\n    tag_494:\n        /* \"#utility.yul\":11623:11626   */\n      0x00\n        /* \"#utility.yul\":11644:11711   */\n      tag_496\n        /* \"#utility.yul\":11708:11710   */\n      0x20\n        /* \"#utility.yul\":11703:11706   */\n      dup4\n        /* \"#utility.yul\":11644:11711   */\n      tag_446\n      jump\t// in\n    tag_496:\n        /* \"#utility.yul\":11637:11711   */\n      swap2\n      pop\n        /* \"#utility.yul\":11720:11813   */\n      tag_497\n        /* \"#utility.yul\":11809:11812   */\n      dup3\n        /* \"#utility.yul\":11720:11813   */\n      tag_498\n      jump\t// in\n    tag_497:\n        /* \"#utility.yul\":11838:11840   */\n      0x20\n        /* \"#utility.yul\":11833:11836   */\n      dup3\n        /* \"#utility.yul\":11829:11841   */\n      add\n        /* \"#utility.yul\":11822:11841   */\n      swap1\n      pop\n        /* \"#utility.yul\":11481:11847   */\n      swap2\n      swap1\n      pop\n      jump\t// out\n        /* \"#utility.yul\":11853:12219   */\n    tag_499:\n        /* \"#utility.yul\":11995:11998   */\n      0x00\n        /* \"#utility.yul\":12016:12083   */\n      tag_501\n        /* \"#utility.yul\":12080:12082   */\n      0x18\n        /* \"#utility.yul\":12075:12078   */\n      dup4\n        /* \"#utility.yul\":12016:12083   */\n      tag_446\n      jump\t// in\n    tag_501:\n        /* \"#utility.yul\":12009:12083   */\n      swap2\n      pop\n        /* \"#utility.yul\":12092:12185   */\n      tag_502\n        /* \"#utility.yul\":12181:12184   */\n      dup3\n        /* \"#utility.yul\":12092:12185   */\n      tag_503\n      jump\t// in\n    tag_502:\n        /* \"#utility.yul\":12210:12212   */\n      0x20\n        /* \"#utility.yul\":12205:12208   */\n      dup3\n        /* \"#utility.yul\":12201:12213   */\n      add\n        /* \"#utility.yul\":12194:12213   */\n      swap1\n      pop\n        /* \"#utility.yul\":11853:12219   */\n      swap2\n      swap1\n      pop\n      jump\t// out\n        /* \"#utility.yul\":12225:12591   */\n    tag_504:\n        /* \"#utility.yul\":12367:12370   */\n      0x00\n        /* \"#utility.yul\":12388:12455   */\n      tag_506\n        /* \"#utility.yul\":12452:12454   */\n      0x21\n        /* \"#utility.yul\":12447:12450   */\n      dup4\n        /* \"#utility.yul\":12388:12455   */\n      tag_446\n      jump\t// in\n    tag_506:\n        /* \"#utility.yul\":12381:12455   */\n      swap2\n      pop\n        /* \"#utility.yul\":12464:12557   */\n      tag_507\n        /* \"#utility.yul\":12553:12556   */\n      dup3\n        /* \"#utility.yul\":12464:12557   */\n      tag_508\n      jump\t// in\n    tag_507:\n        /* \"#utility.yul\":12582:12584   */\n      0x40\n        /* \"#utility.yul\":12577:12580   */\n      dup3\n        /* \"#utility.yul\":12573:12585   */\n      add\n        /* \"#utility.yul\":12566:12585   */\n      swap1\n      pop\n        /* \"#utility.yul\":12225:12591   */\n      swap2\n      swap1\n      pop\n      jump\t// out\n        /* \"#utility.yul\":12597:12963   */\n    tag_509:\n        /* \"#utility.yul\":12739:12742   */\n      0x00\n        /* \"#utility.yul\":12760:12827   */\n      tag_511\n        /* \"#utility.yul\":12824:12826   */\n      0x2e\n        /* \"#utility.yul\":12819:12822   */\n      dup4\n        /* \"#utility.yul\":12760:12827   */\n      tag_446\n      jump\t// in\n    tag_511:\n        /* \"#utility.yul\":12753:12827   */\n      swap2\n      pop\n        /* \"#utility.yul\":12836:12929   */\n      tag_512\n        /* \"#utility.yul\":12925:12928   */\n      dup3\n        /* \"#utility.yul\":12836:12929   */\n      tag_513\n      jump\t// in\n    tag_512:\n        /* \"#utility.yul\":12954:12956   */\n      0x40\n        /* \"#utility.yul\":12949:12952   */\n      dup3\n        /* \"#utility.yul\":12945:12957   */\n      add\n        /* \"#utility.yul\":12938:12957   */\n      swap1\n      pop\n        /* \"#utility.yul\":12597:12963   */\n      swap2\n      swap1\n      pop\n      jump\t// out\n        /* \"#utility.yul\":12969:13087   */\n    tag_514:\n        /* \"#utility.yul\":13056:13080   */\n      tag_516\n        /* \"#utility.yul\":13074:13079   */\n      dup2\n        /* \"#utility.yul\":13056:13080   */\n      tag_517\n      jump\t// in\n    tag_516:\n        /* \"#utility.yul\":13051:13054   */\n      dup3\n        /* \"#utility.yul\":13044:13081   */\n      mstore\n        /* \"#utility.yul\":12969:13087   */\n      pop\n      pop\n      jump\t// out\n        /* \"#utility.yul\":13093:13315   */\n    tag_46:\n        /* \"#utility.yul\":13186:13190   */\n      0x00\n        /* \"#utility.yul\":13224:13226   */\n      0x20\n        /* \"#utility.yul\":13213:13222   */\n      dup3\n        /* \"#utility.yul\":13209:13227   */\n      add\n        /* \"#utility.yul\":13201:13227   */\n      swap1\n      pop\n        /* \"#utility.yul\":13237:13308   */\n      tag_519\n        /* \"#utility.yul\":13305:13306   */\n      0x00\n        /* \"#utility.yul\":13294:13303   */\n      dup4\n        /* \"#utility.yul\":13290:13307   */\n      add\n        /* \"#utility.yul\":13281:13287   */\n      dup5\n        /* \"#utility.yul\":13237:13308   */\n      tag_423\n      jump\t// in\n    tag_519:\n        /* \"#utility.yul\":13093:13315   */\n      swap3\n      swap2\n      pop\n      pop\n      jump\t// out\n        /* \"#utility.yul\":13321:13961   */\n    tag_281:\n        /* \"#utility.yul\":13516:13520   */\n      0x00\n        /* \"#utility.yul\":13554:13557   */\n      0x80\n        /* \"#utility.yul\":13543:13552   */\n      dup3\n        /* \"#utility.yul\":13539:13558   */\n      add\n        /* \"#utility.yul\":13531:13558   */\n      swap1\n      pop\n        /* \"#utility.yul\":13568:13639   */\n      tag_521\n        /* \"#utility.yul\":13636:13637   */\n      0x00\n        /* \"#utility.yul\":13625:13634   */\n      dup4\n        /* \"#utility.yul\":13621:13638   */\n      add\n        /* \"#utility.yul\":13612:13618   */\n      dup8\n        /* \"#utility.yul\":13568:13639   */\n      tag_423\n      jump\t// in\n    tag_521:\n        /* \"#utility.yul\":13649:13721   */\n      tag_522\n        /* \"#utility.yul\":13717:13719   */\n      0x20\n        /* \"#utility.yul\":13706:13715   */\n      dup4\n        /* \"#utility.yul\":13702:13720   */\n      add\n        /* \"#utility.yul\":13693:13699   */\n      dup7\n        /* \"#utility.yul\":13649:13721   */\n      tag_423\n      jump\t// in\n    tag_522:\n        /* \"#utility.yul\":13731:13803   */\n      tag_523\n        /* \"#utility.yul\":13799:13801   */\n      0x40\n        /* \"#utility.yul\":13788:13797   */\n      dup4\n        /* \"#utility.yul\":13784:13802   */\n      add\n        /* \"#utility.yul\":13775:13781   */\n      dup6\n        /* \"#utility.yul\":13731:13803   */\n      tag_514\n      jump\t// in\n    tag_523:\n        /* \"#utility.yul\":13850:13859   */\n      dup2\n        /* \"#utility.yul\":13844:13848   */\n      dup2\n        /* \"#utility.yul\":13840:13860   */\n      sub\n        /* \"#utility.yul\":13835:13837   */\n      0x60\n        /* \"#utility.yul\":13824:13833   */\n      dup4\n        /* \"#utility.yul\":13820:13838   */\n      add\n        /* \"#utility.yul\":13813:13861   */\n      mstore\n        /* \"#utility.yul\":13878:13954   */\n      tag_524\n        /* \"#utility.yul\":13949:13953   */\n      dup2\n        /* \"#utility.yul\":13940:13946   */\n      dup5\n        /* \"#utility.yul\":13878:13954   */\n      tag_431\n      jump\t// in\n    tag_524:\n        /* \"#utility.yul\":13870:13954   */\n      swap1\n      pop\n        /* \"#utility.yul\":13321:13961   */\n      swap6\n      swap5\n      pop\n      pop\n      pop\n      pop\n      pop\n      jump\t// out\n        /* \"#utility.yul\":13967:14177   */\n    tag_32:\n        /* \"#utility.yul\":14054:14058   */\n      0x00\n        /* \"#utility.yul\":14092:14094   */\n      0x20\n        /* \"#utility.yul\":14081:14090   */\n      dup3\n        /* \"#utility.yul\":14077:14095   */\n      add\n        /* \"#utility.yul\":14069:14095   */\n      swap1\n      pop\n        /* \"#utility.yul\":14105:14170   */\n      tag_526\n        /* \"#utility.yul\":14167:14168   */\n      0x00\n        /* \"#utility.yul\":14156:14165   */\n      dup4\n        /* \"#utility.yul\":14152:14169   */\n      add\n        /* \"#utility.yul\":14143:14149   */\n      dup5\n        /* \"#utility.yul\":14105:14170   */\n      tag_427\n      jump\t// in\n    tag_526:\n        /* \"#utility.yul\":13967:14177   */\n      swap3\n      swap2\n      pop\n      pop\n      jump\t// out\n        /* \"#utility.yul\":14183:14496   */\n    tag_40:\n        /* \"#utility.yul\":14296:14300   */\n      0x00\n        /* \"#utility.yul\":14334:14336   */\n      0x20\n        /* \"#utility.yul\":14323:14332   */\n      dup3\n        /* \"#utility.yul\":14319:14337   */\n      add\n        /* \"#utility.yul\":14311:14337   */\n      swap1\n      pop\n        /* \"#utility.yul\":14383:14392   */\n      dup2\n        /* \"#utility.yul\":14377:14381   */\n      dup2\n        /* \"#utility.yul\":14373:14393   */\n      sub\n        /* \"#utility.yul\":14369:14370   */\n      0x00\n        /* \"#utility.yul\":14358:14367   */\n      dup4\n        /* \"#utility.yul\":14354:14371   */\n      add\n        /* \"#utility.yul\":14347:14394   */\n      mstore\n        /* \"#utility.yul\":14411:14489   */\n      tag_528\n        /* \"#utility.yul\":14484:14488   */\n      dup2\n        /* \"#utility.yul\":14475:14481   */\n      dup5\n        /* \"#utility.yul\":14411:14489   */\n      tag_441\n      jump\t// in\n    tag_528:\n        /* \"#utility.yul\":14403:14489   */\n      swap1\n      pop\n        /* \"#utility.yul\":14183:14496   */\n      swap3\n      swap2\n      pop\n      pop\n      jump\t// out\n        /* \"#utility.yul\":14502:14921   */\n    tag_265:\n        /* \"#utility.yul\":14668:14672   */\n      0x00\n        /* \"#utility.yul\":14706:14708   */\n      0x20\n        /* \"#utility.yul\":14695:14704   */\n      dup3\n        /* \"#utility.yul\":14691:14709   */\n      add\n        /* \"#utility.yul\":14683:14709   */\n      swap1\n      pop\n        /* \"#utility.yul\":14755:14764   */\n      dup2\n        /* \"#utility.yul\":14749:14753   */\n      dup2\n        /* \"#utility.yul\":14745:14765   */\n      sub\n        /* \"#utility.yul\":14741:14742   */\n      0x00\n        /* \"#utility.yul\":14730:14739   */\n      dup4\n        /* \"#utility.yul\":14726:14743   */\n      add\n        /* \"#utility.yul\":14719:14766   */\n      mstore\n        /* \"#utility.yul\":14783:14914   */\n      tag_530\n        /* \"#utility.yul\":14909:14913   */\n      dup2\n        /* \"#utility.yul\":14783:14914   */\n      tag_449\n      jump\t// in\n    tag_530:\n        /* \"#utility.yul\":14775:14914   */\n      swap1\n      pop\n        /* \"#utility.yul\":14502:14921   */\n      swap2\n      swap1\n      pop\n      jump\t// out\n        /* \"#utility.yul\":14927:15346   */\n    tag_210:\n        /* \"#utility.yul\":15093:15097   */\n      0x00\n        /* \"#utility.yul\":15131:15133   */\n      0x20\n        /* \"#utility.yul\":15120:15129   */\n      dup3\n        /* \"#utility.yul\":15116:15134   */\n      add\n        /* \"#utility.yul\":15108:15134   */\n      swap1\n      pop\n        /* \"#utility.yul\":15180:15189   */\n      dup2\n        /* \"#utility.yul\":15174:15178   */\n      dup2\n        /* \"#utility.yul\":15170:15190   */\n      sub\n        /* \"#utility.yul\":15166:15167   */\n      0x00\n        /* \"#utility.yul\":15155:15164   */\n      dup4\n        /* \"#utility.yul\":15151:15168   */\n      add\n        /* \"#utility.yul\":15144:15191   */\n      mstore\n        /* \"#utility.yul\":15208:15339   */\n      tag_532\n        /* \"#utility.yul\":15334:15338   */\n      dup2\n        /* \"#utility.yul\":15208:15339   */\n      tag_454\n      jump\t// in\n    tag_532:\n        /* \"#utility.yul\":15200:15339   */\n      swap1\n      pop\n        /* \"#utility.yul\":14927:15346   */\n      swap2\n      swap1\n      pop\n      jump\t// out\n        /* \"#utility.yul\":15352:15771   */\n    tag_240:\n        /* \"#utility.yul\":15518:15522   */\n      0x00\n        /* \"#utility.yul\":15556:15558   */\n      0x20\n        /* \"#utility.yul\":15545:15554   */\n      dup3\n        /* \"#utility.yul\":15541:15559   */\n      add\n        /* \"#utility.yul\":15533:15559   */\n      swap1\n      pop\n        /* \"#utility.yul\":15605:15614   */\n      dup2\n        /* \"#utility.yul\":15599:15603   */\n      dup2\n        /* \"#utility.yul\":15595:15615   */\n      sub\n        /* \"#utility.yul\":15591:15592   */\n      0x00\n        /* \"#utility.yul\":15580:15589   */\n      dup4\n        /* \"#utility.yul\":15576:15593   */\n      add\n        /* \"#utility.yul\":15569:15616   */\n      mstore\n        /* \"#utility.yul\":15633:15764   */\n      tag_534\n        /* \"#utility.yul\":15759:15763   */\n      dup2\n        /* \"#utility.yul\":15633:15764   */\n      tag_459\n      jump\t// in\n    tag_534:\n        /* \"#utility.yul\":15625:15764   */\n      swap1\n      pop\n        /* \"#utility.yul\":15352:15771   */\n      swap2\n      swap1\n      pop\n      jump\t// out\n        /* \"#utility.yul\":15777:16196   */\n    tag_304:\n        /* \"#utility.yul\":15943:15947   */\n      0x00\n        /* \"#utility.yul\":15981:15983   */\n      0x20\n        /* \"#utility.yul\":15970:15979   */\n      dup3\n        /* \"#utility.yul\":15966:15984   */\n      add\n        /* \"#utility.yul\":15958:15984   */\n      swap1\n      pop\n        /* \"#utility.yul\":16030:16039   */\n      dup2\n        /* \"#utility.yul\":16024:16028   */\n      dup2\n        /* \"#utility.yul\":16020:16040   */\n      sub\n        /* \"#utility.yul\":16016:16017   */\n      0x00\n        /* \"#utility.yul\":16005:16014   */\n      dup4\n        /* \"#utility.yul\":16001:16018   */\n      add\n        /* \"#utility.yul\":15994:16041   */\n      mstore\n        /* \"#utility.yul\":16058:16189   */\n      tag_536\n        /* \"#utility.yul\":16184:16188   */\n      dup2\n        /* \"#utility.yul\":16058:16189   */\n      tag_464\n      jump\t// in\n    tag_536:\n        /* \"#utility.yul\":16050:16189   */\n      swap1\n      pop\n        /* \"#utility.yul\":15777:16196   */\n      swap2\n      swap1\n      pop\n      jump\t// out\n        /* \"#utility.yul\":16202:16621   */\n    tag_243:\n        /* \"#utility.yul\":16368:16372   */\n      0x00\n        /* \"#utility.yul\":16406:16408   */\n      0x20\n        /* \"#utility.yul\":16395:16404   */\n      dup3\n        /* \"#utility.yul\":16391:16409   */\n      add\n        /* \"#utility.yul\":16383:16409   */\n      swap1\n      pop\n        /* \"#utility.yul\":16455:16464   */\n      dup2\n        /* \"#utility.yul\":16449:16453   */\n      dup2\n        /* \"#utility.yul\":16445:16465   */\n      sub\n        /* \"#utility.yul\":16441:16442   */\n      0x00\n        /* \"#utility.yul\":16430:16439   */\n      dup4\n        /* \"#utility.yul\":16426:16443   */\n      add\n        /* \"#utility.yul\":16419:16466   */\n      mstore\n        /* \"#utility.yul\":16483:16614   */\n      tag_538\n        /* \"#utility.yul\":16609:16613   */\n      dup2\n        /* \"#utility.yul\":16483:16614   */\n      tag_469\n      jump\t// in\n    tag_538:\n        /* \"#utility.yul\":16475:16614   */\n      swap1\n      pop\n        /* \"#utility.yul\":16202:16621   */\n      swap2\n      swap1\n      pop\n      jump\t// out\n        /* \"#utility.yul\":16627:17046   */\n    tag_257:\n        /* \"#utility.yul\":16793:16797   */\n      0x00\n        /* \"#utility.yul\":16831:16833   */\n      0x20\n        /* \"#utility.yul\":16820:16829   */\n      dup3\n        /* \"#utility.yul\":16816:16834   */\n      add\n        /* \"#utility.yul\":16808:16834   */\n      swap1\n      pop\n        /* \"#utility.yul\":16880:16889   */\n      dup2\n        /* \"#utility.yul\":16874:16878   */\n      dup2\n        /* \"#utility.yul\":16870:16890   */\n      sub\n        /* \"#utility.yul\":16866:16867   */\n      0x00\n        /* \"#utility.yul\":16855:16864   */\n      dup4\n        /* \"#utility.yul\":16851:16868   */\n      add\n        /* \"#utility.yul\":16844:16891   */\n      mstore\n        /* \"#utility.yul\":16908:17039   */\n      tag_540\n        /* \"#utility.yul\":17034:17038   */\n      dup2\n        /* \"#utility.yul\":16908:17039   */\n      tag_474\n      jump\t// in\n    tag_540:\n        /* \"#utility.yul\":16900:17039   */\n      swap1\n      pop\n        /* \"#utility.yul\":16627:17046   */\n      swap2\n      swap1\n      pop\n      jump\t// out\n        /* \"#utility.yul\":17052:17471   */\n    tag_171:\n        /* \"#utility.yul\":17218:17222   */\n      0x00\n        /* \"#utility.yul\":17256:17258   */\n      0x20\n        /* \"#utility.yul\":17245:17254   */\n      dup3\n        /* \"#utility.yul\":17241:17259   */\n      add\n        /* \"#utility.yul\":17233:17259   */\n      swap1\n      pop\n        /* \"#utility.yul\":17305:17314   */\n      dup2\n        /* \"#utility.yul\":17299:17303   */\n      dup2\n        /* \"#utility.yul\":17295:17315   */\n      sub\n        /* \"#utility.yul\":17291:17292   */\n      0x00\n        /* \"#utility.yul\":17280:17289   */\n      dup4\n        /* \"#utility.yul\":17276:17293   */\n      add\n        /* \"#utility.yul\":17269:17316   */\n      mstore\n        /* \"#utility.yul\":17333:17464   */\n      tag_542\n        /* \"#utility.yul\":17459:17463   */\n      dup2\n        /* \"#utility.yul\":17333:17464   */\n      tag_479\n      jump\t// in\n    tag_542:\n        /* \"#utility.yul\":17325:17464   */\n      swap1\n      pop\n        /* \"#utility.yul\":17052:17471   */\n      swap2\n      swap1\n      pop\n      jump\t// out\n        /* \"#utility.yul\":17477:17896   */\n    tag_140:\n        /* \"#utility.yul\":17643:17647   */\n      0x00\n        /* \"#utility.yul\":17681:17683   */\n      0x20\n        /* \"#utility.yul\":17670:17679   */\n      dup3\n        /* \"#utility.yul\":17666:17684   */\n      add\n        /* \"#utility.yul\":17658:17684   */\n      swap1\n      pop\n        /* \"#utility.yul\":17730:17739   */\n      dup2\n        /* \"#utility.yul\":17724:17728   */\n      dup2\n        /* \"#utility.yul\":17720:17740   */\n      sub\n        /* \"#utility.yul\":17716:17717   */\n      0x00\n        /* \"#utility.yul\":17705:17714   */\n      dup4\n        /* \"#utility.yul\":17701:17718   */\n      add\n        /* \"#utility.yul\":17694:17741   */\n      mstore\n        /* \"#utility.yul\":17758:17889   */\n      tag_544\n        /* \"#utility.yul\":17884:17888   */\n      dup2\n        /* \"#utility.yul\":17758:17889   */\n      tag_484\n      jump\t// in\n    tag_544:\n        /* \"#utility.yul\":17750:17889   */\n      swap1\n      pop\n        /* \"#utility.yul\":17477:17896   */\n      swap2\n      swap1\n      pop\n      jump\t// out\n        /* \"#utility.yul\":17902:18321   */\n    tag_300:\n        /* \"#utility.yul\":18068:18072   */\n      0x00\n        /* \"#utility.yul\":18106:18108   */\n      0x20\n        /* \"#utility.yul\":18095:18104   */\n      dup3\n        /* \"#utility.yul\":18091:18109   */\n      add\n        /* \"#utility.yul\":18083:18109   */\n      swap1\n      pop\n        /* \"#utility.yul\":18155:18164   */\n      dup2\n        /* \"#utility.yul\":18149:18153   */\n      dup2\n        /* \"#utility.yul\":18145:18165   */\n      sub\n        /* \"#utility.yul\":18141:18142   */\n      0x00\n        /* \"#utility.yul\":18130:18139   */\n      dup4\n        /* \"#utility.yul\":18126:18143   */\n      add\n        /* \"#utility.yul\":18119:18166   */\n      mstore\n        /* \"#utility.yul\":18183:18314   */\n      tag_546\n        /* \"#utility.yul\":18309:18313   */\n      dup2\n        /* \"#utility.yul\":18183:18314   */\n      tag_489\n      jump\t// in\n    tag_546:\n        /* \"#utility.yul\":18175:18314   */\n      swap1\n      pop\n        /* \"#utility.yul\":17902:18321   */\n      swap2\n      swap1\n      pop\n      jump\t// out\n        /* \"#utility.yul\":18327:18746   */\n    tag_218:\n        /* \"#utility.yul\":18493:18497   */\n      0x00\n        /* \"#utility.yul\":18531:18533   */\n      0x20\n        /* \"#utility.yul\":18520:18529   */\n      dup3\n        /* \"#utility.yul\":18516:18534   */\n      add\n        /* \"#utility.yul\":18508:18534   */\n      swap1\n      pop\n        /* \"#utility.yul\":18580:18589   */\n      dup2\n        /* \"#utility.yul\":18574:18578   */\n      dup2\n        /* \"#utility.yul\":18570:18590   */\n      sub\n        /* \"#utility.yul\":18566:18567   */\n      0x00\n        /* \"#utility.yul\":18555:18564   */\n      dup4\n        /* \"#utility.yul\":18551:18568   */\n      add\n        /* \"#utility.yul\":18544:18591   */\n      mstore\n        /* \"#utility.yul\":18608:18739   */\n      tag_548\n        /* \"#utility.yul\":18734:18738   */\n      dup2\n        /* \"#utility.yul\":18608:18739   */\n      tag_494\n      jump\t// in\n    tag_548:\n        /* \"#utility.yul\":18600:18739   */\n      swap1\n      pop\n        /* \"#utility.yul\":18327:18746   */\n      swap2\n      swap1\n      pop\n      jump\t// out\n        /* \"#utility.yul\":18752:19171   */\n    tag_162:\n        /* \"#utility.yul\":18918:18922   */\n      0x00\n        /* \"#utility.yul\":18956:18958   */\n      0x20\n        /* \"#utility.yul\":18945:18954   */\n      dup3\n        /* \"#utility.yul\":18941:18959   */\n      add\n        /* \"#utility.yul\":18933:18959   */\n      swap1\n      pop\n        /* \"#utility.yul\":19005:19014   */\n      dup2\n        /* \"#utility.yul\":18999:19003   */\n      dup2\n        /* \"#utility.yul\":18995:19015   */\n      sub\n        /* \"#utility.yul\":18991:18992   */\n      0x00\n        /* \"#utility.yul\":18980:18989   */\n      dup4\n        /* \"#utility.yul\":18976:18993   */\n      add\n        /* \"#utility.yul\":18969:19016   */\n      mstore\n        /* \"#utility.yul\":19033:19164   */\n      tag_550\n        /* \"#utility.yul\":19159:19163   */\n      dup2\n        /* \"#utility.yul\":19033:19164   */\n      tag_499\n      jump\t// in\n    tag_550:\n        /* \"#utility.yul\":19025:19164   */\n      swap1\n      pop\n        /* \"#utility.yul\":18752:19171   */\n      swap2\n      swap1\n      pop\n      jump\t// out\n        /* \"#utility.yul\":19177:19596   */\n    tag_132:\n        /* \"#utility.yul\":19343:19347   */\n      0x00\n        /* \"#utility.yul\":19381:19383   */\n      0x20\n        /* \"#utility.yul\":19370:19379   */\n      dup3\n        /* \"#utility.yul\":19366:19384   */\n      add\n        /* \"#utility.yul\":19358:19384   */\n      swap1\n      pop\n        /* \"#utility.yul\":19430:19439   */\n      dup2\n        /* \"#utility.yul\":19424:19428   */\n      dup2\n        /* \"#utility.yul\":19420:19440   */\n      sub\n        /* \"#utility.yul\":19416:19417   */\n      0x00\n        /* \"#utility.yul\":19405:19414   */\n      dup4\n        /* \"#utility.yul\":19401:19418   */\n      add\n        /* \"#utility.yul\":19394:19441   */\n      mstore\n        /* \"#utility.yul\":19458:19589   */\n      tag_552\n        /* \"#utility.yul\":19584:19588   */\n      dup2\n        /* \"#utility.yul\":19458:19589   */\n      tag_504\n      jump\t// in\n    tag_552:\n        /* \"#utility.yul\":19450:19589   */\n      swap1\n      pop\n        /* \"#utility.yul\":19177:19596   */\n      swap2\n      swap1\n      pop\n      jump\t// out\n        /* \"#utility.yul\":19602:20021   */\n    tag_154:\n        /* \"#utility.yul\":19768:19772   */\n      0x00\n        /* \"#utility.yul\":19806:19808   */\n      0x20\n        /* \"#utility.yul\":19795:19804   */\n      dup3\n        /* \"#utility.yul\":19791:19809   */\n      add\n        /* \"#utility.yul\":19783:19809   */\n      swap1\n      pop\n        /* \"#utility.yul\":19855:19864   */\n      dup2\n        /* \"#utility.yul\":19849:19853   */\n      dup2\n        /* \"#utility.yul\":19845:19865   */\n      sub\n        /* \"#utility.yul\":19841:19842   */\n      0x00\n        /* \"#utility.yul\":19830:19839   */\n      dup4\n        /* \"#utility.yul\":19826:19843   */\n      add\n        /* \"#utility.yul\":19819:19866   */\n      mstore\n        /* \"#utility.yul\":19883:20014   */\n      tag_554\n        /* \"#utility.yul\":20009:20013   */\n      dup2\n        /* \"#utility.yul\":19883:20014   */\n      tag_509\n      jump\t// in\n    tag_554:\n        /* \"#utility.yul\":19875:20014   */\n      swap1\n      pop\n        /* \"#utility.yul\":19602:20021   */\n      swap2\n      swap1\n      pop\n      jump\t// out\n        /* \"#utility.yul\":20027:20249   */\n    tag_60:\n        /* \"#utility.yul\":20120:20124   */\n      0x00\n        /* \"#utility.yul\":20158:20160   */\n      0x20\n        /* \"#utility.yul\":20147:20156   */\n      dup3\n        /* \"#utility.yul\":20143:20161   */\n      add\n        /* \"#utility.yul\":20135:20161   */\n      swap1\n      pop\n        /* \"#utility.yul\":20171:20242   */\n      tag_556\n        /* \"#utility.yul\":20239:20240   */\n      0x00\n        /* \"#utility.yul\":20228:20237   */\n      dup4\n        /* \"#utility.yul\":20224:20241   */\n      add\n        /* \"#utility.yul\":20215:20221   */\n      dup5\n        /* \"#utility.yul\":20171:20242   */\n      tag_514\n      jump\t// in\n    tag_556:\n        /* \"#utility.yul\":20027:20249   */\n      swap3\n      swap2\n      pop\n      pop\n      jump\t// out\n        /* \"#utility.yul\":20255:20384   */\n    tag_325:\n        /* \"#utility.yul\":20289:20295   */\n      0x00\n        /* \"#utility.yul\":20316:20336   */\n      tag_558\n      tag_559\n      jump\t// in\n    tag_558:\n        /* \"#utility.yul\":20306:20336   */\n      swap1\n      pop\n        /* \"#utility.yul\":20345:20378   */\n      tag_560\n        /* \"#utility.yul\":20373:20377   */\n      dup3\n        /* \"#utility.yul\":20365:20371   */\n      dup3\n        /* \"#utility.yul\":20345:20378   */\n      tag_561\n      jump\t// in\n    tag_560:\n        /* \"#utility.yul\":20255:20384   */\n      swap2\n      swap1\n      pop\n      jump\t// out\n        /* \"#utility.yul\":20390:20465   */\n    tag_559:\n        /* \"#utility.yul\":20423:20429   */\n      0x00\n        /* \"#utility.yul\":20456:20458   */\n      0x40\n        /* \"#utility.yul\":20450:20459   */\n      mload\n        /* \"#utility.yul\":20440:20459   */\n      swap1\n      pop\n        /* \"#utility.yul\":20390:20465   */\n      swap1\n      jump\t// out\n        /* \"#utility.yul\":20471:20778   */\n    tag_324:\n        /* \"#utility.yul\":20532:20536   */\n      0x00\n        /* \"#utility.yul\":20622:20640   */\n      0xffffffffffffffff\n        /* \"#utility.yul\":20614:20620   */\n      dup3\n        /* \"#utility.yul\":20611:20641   */\n      gt\n        /* \"#utility.yul\":20608:20664   */\n      iszero\n      tag_564\n      jumpi\n        /* \"#utility.yul\":20644:20662   */\n      tag_565\n      tag_566\n      jump\t// in\n    tag_565:\n        /* \"#utility.yul\":20608:20664   */\n    tag_564:\n        /* \"#utility.yul\":20682:20711   */\n      tag_567\n        /* \"#utility.yul\":20704:20710   */\n      dup3\n        /* \"#utility.yul\":20682:20711   */\n      tag_440\n      jump\t// in\n    tag_567:\n        /* \"#utility.yul\":20674:20711   */\n      swap1\n      pop\n        /* \"#utility.yul\":20766:20770   */\n      0x20\n        /* \"#utility.yul\":20760:20764   */\n      dup2\n        /* \"#utility.yul\":20756:20771   */\n      add\n        /* \"#utility.yul\":20748:20771   */\n      swap1\n      pop\n        /* \"#utility.yul\":20471:20778   */\n      swap2\n      swap1\n      pop\n      jump\t// out\n        /* \"#utility.yul\":20784:21092   */\n    tag_335:\n        /* \"#utility.yul\":20846:20850   */\n      0x00\n        /* \"#utility.yul\":20936:20954   */\n      0xffffffffffffffff\n        /* \"#utility.yul\":20928:20934   */\n      dup3\n        /* \"#utility.yul\":20925:20955   */\n      gt\n        /* \"#utility.yul\":20922:20978   */\n      iszero\n      tag_569\n      jumpi\n        /* \"#utility.yul\":20958:20976   */\n      tag_570\n      tag_566\n      jump\t// in\n    tag_570:\n        /* \"#utility.yul\":20922:20978   */\n    tag_569:\n        /* \"#utility.yul\":20996:21025   */\n      tag_571\n        /* \"#utility.yul\":21018:21024   */\n      dup3\n        /* \"#utility.yul\":20996:21025   */\n      tag_440\n      jump\t// in\n    tag_571:\n        /* \"#utility.yul\":20988:21025   */\n      swap1\n      pop\n        /* \"#utility.yul\":21080:21084   */\n      0x20\n        /* \"#utility.yul\":21074:21078   */\n      dup2\n        /* \"#utility.yul\":21070:21085   */\n      add\n        /* \"#utility.yul\":21062:21085   */\n      swap1\n      pop\n        /* \"#utility.yul\":20784:21092   */\n      swap2\n      swap1\n      pop\n      jump\t// out\n        /* \"#utility.yul\":21098:21196   */\n    tag_434:\n        /* \"#utility.yul\":21149:21155   */\n      0x00\n        /* \"#utility.yul\":21183:21188   */\n      dup2\n        /* \"#utility.yul\":21177:21189   */\n      mload\n        /* \"#utility.yul\":21167:21189   */\n      swap1\n      pop\n        /* \"#utility.yul\":21098:21196   */\n      swap2\n      swap1\n      pop\n      jump\t// out\n        /* \"#utility.yul\":21202:21301   */\n    tag_444:\n        /* \"#utility.yul\":21254:21260   */\n      0x00\n        /* \"#utility.yul\":21288:21293   */\n      dup2\n        /* \"#utility.yul\":21282:21294   */\n      mload\n        /* \"#utility.yul\":21272:21294   */\n      swap1\n      pop\n        /* \"#utility.yul\":21202:21301   */\n      swap2\n      swap1\n      pop\n      jump\t// out\n        /* \"#utility.yul\":21307:21475   */\n    tag_436:\n        /* \"#utility.yul\":21390:21401   */\n      0x00\n        /* \"#utility.yul\":21424:21430   */\n      dup3\n        /* \"#utility.yul\":21419:21422   */\n      dup3\n        /* \"#utility.yul\":21412:21431   */\n      mstore\n        /* \"#utility.yul\":21464:21468   */\n      0x20\n        /* \"#utility.yul\":21459:21462   */\n      dup3\n        /* \"#utility.yul\":21455:21469   */\n      add\n        /* \"#utility.yul\":21440:21469   */\n      swap1\n      pop\n        /* \"#utility.yul\":21307:21475   */\n      swap3\n      swap2\n      pop\n      pop\n      jump\t// out\n        /* \"#utility.yul\":21481:21650   */\n    tag_446:\n        /* \"#utility.yul\":21565:21576   */\n      0x00\n        /* \"#utility.yul\":21599:21605   */\n      dup3\n        /* \"#utility.yul\":21594:21597   */\n      dup3\n        /* \"#utility.yul\":21587:21606   */\n      mstore\n        /* \"#utility.yul\":21639:21643   */\n      0x20\n        /* \"#utility.yul\":21634:21637   */\n      dup3\n        /* \"#utility.yul\":21630:21644   */\n      add\n        /* \"#utility.yul\":21615:21644   */\n      swap1\n      pop\n        /* \"#utility.yul\":21481:21650   */\n      swap3\n      swap2\n      pop\n      pop\n      jump\t// out\n        /* \"#utility.yul\":21656:21961   */\n    tag_250:\n        /* \"#utility.yul\":21696:21699   */\n      0x00\n        /* \"#utility.yul\":21715:21735   */\n      tag_577\n        /* \"#utility.yul\":21733:21734   */\n      dup3\n        /* \"#utility.yul\":21715:21735   */\n      tag_517\n      jump\t// in\n    tag_577:\n        /* \"#utility.yul\":21710:21735   */\n      swap2\n      pop\n        /* \"#utility.yul\":21749:21769   */\n      tag_578\n        /* \"#utility.yul\":21767:21768   */\n      dup4\n        /* \"#utility.yul\":21749:21769   */\n      tag_517\n      jump\t// in\n    tag_578:\n        /* \"#utility.yul\":21744:21769   */\n      swap3\n      pop\n        /* \"#utility.yul\":21903:21904   */\n      dup3\n        /* \"#utility.yul\":21835:21901   */\n      0xffffffffffffffffffffffffffffffffffffffffffffffffffffffffffffffff\n        /* \"#utility.yul\":21831:21905   */\n      sub\n        /* \"#utility.yul\":21828:21829   */\n      dup3\n        /* \"#utility.yul\":21825:21906   */\n      gt\n        /* \"#utility.yul\":21822:21929   */\n      iszero\n      tag_579\n      jumpi\n        /* \"#utility.yul\":21909:21927   */\n      tag_580\n      tag_581\n      jump\t// in\n    tag_580:\n        /* \"#utility.yul\":21822:21929   */\n    tag_579:\n        /* \"#utility.yul\":21953:21954   */\n      dup3\n        /* \"#utility.yul\":21950:21951   */\n      dup3\n        /* \"#utility.yul\":21946:21955   */\n      add\n        /* \"#utility.yul\":21939:21955   */\n      swap1\n      pop\n        /* \"#utility.yul\":21656:21961   */\n      swap3\n      swap2\n      pop\n      pop\n      jump\t// out\n        /* \"#utility.yul\":21967:22158   */\n    tag_248:\n        /* \"#utility.yul\":22007:22011   */\n      0x00\n        /* \"#utility.yul\":22027:22047   */\n      tag_583\n        /* \"#utility.yul\":22045:22046   */\n      dup3\n        /* \"#utility.yul\":22027:22047   */\n      tag_517\n      jump\t// in\n    tag_583:\n        /* \"#utility.yul\":22022:22047   */\n      swap2\n      pop\n        /* \"#utility.yul\":22061:22081   */\n      tag_584\n        /* \"#utility.yul\":22079:22080   */\n      dup4\n        /* \"#utility.yul\":22061:22081   */\n      tag_517\n      jump\t// in\n    tag_584:\n        /* \"#utility.yul\":22056:22081   */\n      swap3\n      pop\n        /* \"#utility.yul\":22100:22101   */\n      dup3\n        /* \"#utility.yul\":22097:22098   */\n      dup3\n        /* \"#utility.yul\":22094:22102   */\n      lt\n        /* \"#utility.yul\":22091:22125   */\n      iszero\n      tag_585\n      jumpi\n        /* \"#utility.yul\":22105:22123   */\n      tag_586\n      tag_581\n      jump\t// in\n    tag_586:\n        /* \"#utility.yul\":22091:22125   */\n    tag_585:\n        /* \"#utility.yul\":22150:22151   */\n      dup3\n        /* \"#utility.yul\":22147:22148   */\n      dup3\n        /* \"#utility.yul\":22143:22152   */\n      sub\n        /* \"#utility.yul\":22135:22152   */\n      swap1\n      pop\n        /* \"#utility.yul\":21967:22158   */\n      swap3\n      swap2\n      pop\n      pop\n      jump\t// out\n        /* \"#utility.yul\":22164:22260   */\n    tag_426:\n        /* \"#utility.yul\":22201:22208   */\n      0x00\n        /* \"#utility.yul\":22230:22254   */\n      tag_588\n        /* \"#utility.yul\":22248:22253   */\n      dup3\n        /* \"#utility.yul\":22230:22254   */\n      tag_589\n      jump\t// in\n    tag_588:\n        /* \"#utility.yul\":22219:22254   */\n      swap1\n      pop\n        /* \"#utility.yul\":22164:22260   */\n      swap2\n      swap1\n      pop\n      jump\t// out\n        /* \"#utility.yul\":22266:22356   */\n    tag_430:\n        /* \"#utility.yul\":22300:22307   */\n      0x00\n        /* \"#utility.yul\":22343:22348   */\n      dup2\n        /* \"#utility.yul\":22336:22349   */\n      iszero\n        /* \"#utility.yul\":22329:22350   */\n      iszero\n        /* \"#utility.yul\":22318:22350   */\n      swap1\n      pop\n        /* \"#utility.yul\":22266:22356   */\n      swap2\n      swap1\n      pop\n      jump\t// out\n        /* \"#utility.yul\":22362:22511   */\n    tag_591:\n        /* \"#utility.yul\":22398:22405   */\n      0x00\n        /* \"#utility.yul\":22438:22504   */\n      0xffffffff00000000000000000000000000000000000000000000000000000000\n        /* \"#utility.yul\":22431:22436   */\n      dup3\n        /* \"#utility.yul\":22427:22505   */\n      and\n        /* \"#utility.yul\":22416:22505   */\n      swap1\n      pop\n        /* \"#utility.yul\":22362:22511   */\n      swap2\n      swap1\n      pop\n      jump\t// out\n        /* \"#utility.yul\":22517:22643   */\n    tag_589:\n        /* \"#utility.yul\":22554:22561   */\n      0x00\n        /* \"#utility.yul\":22594:22636   */\n      0xffffffffffffffffffffffffffffffffffffffff\n        /* \"#utility.yul\":22587:22592   */\n      dup3\n        /* \"#utility.yul\":22583:22637   */\n      and\n        /* \"#utility.yul\":22572:22637   */\n      swap1\n      pop\n        /* \"#utility.yul\":22517:22643   */\n      swap2\n      swap1\n      pop\n      jump\t// out\n        /* \"#utility.yul\":22649:22726   */\n    tag_517:\n        /* \"#utility.yul\":22686:22693   */\n      0x00\n        /* \"#utility.yul\":22715:22720   */\n      dup2\n        /* \"#utility.yul\":22704:22720   */\n      swap1\n      pop\n        /* \"#utility.yul\":22649:22726   */\n      swap2\n      swap1\n      pop\n      jump\t// out\n        /* \"#utility.yul\":22732:22886   */\n    tag_330:\n        /* \"#utility.yul\":22816:22822   */\n      dup3\n        /* \"#utility.yul\":22811:22814   */\n      dup2\n        /* \"#utility.yul\":22806:22809   */\n      dup4\n        /* \"#utility.yul\":22793:22823   */\n      calldatacopy\n        /* \"#utility.yul\":22878:22879   */\n      0x00\n        /* \"#utility.yul\":22869:22875   */\n      dup4\n        /* \"#utility.yul\":22864:22867   */\n      dup4\n        /* \"#utility.yul\":22860:22876   */\n      add\n        /* \"#utility.yul\":22853:22880   */\n      mstore\n        /* \"#utility.yul\":22732:22886   */\n      pop\n      pop\n      pop\n      jump\t// out\n        /* \"#utility.yul\":22892:23199   */\n    tag_438:\n        /* \"#utility.yul\":22960:22961   */\n      0x00\n        /* \"#utility.yul\":22970:23083   */\n    tag_597:\n        /* \"#utility.yul\":22984:22990   */\n      dup4\n        /* \"#utility.yul\":22981:22982   */\n      dup2\n        /* \"#utility.yul\":22978:22991   */\n      lt\n        /* \"#utility.yul\":22970:23083   */\n      iszero\n      tag_599\n      jumpi\n        /* \"#utility.yul\":23069:23070   */\n      dup1\n        /* \"#utility.yul\":23064:23067   */\n      dup3\n        /* \"#utility.yul\":23060:23071   */\n      add\n        /* \"#utility.yul\":23054:23072   */\n      mload\n        /* \"#utility.yul\":23050:23051   */\n      dup2\n        /* \"#utility.yul\":23045:23048   */\n      dup5\n        /* \"#utility.yul\":23041:23052   */\n      add\n        /* \"#utility.yul\":23034:23073   */\n      mstore\n        /* \"#utility.yul\":23006:23008   */\n      0x20\n        /* \"#utility.yul\":23003:23004   */\n      dup2\n        /* \"#utility.yul\":22999:23009   */\n      add\n        /* \"#utility.yul\":22994:23009   */\n      swap1\n      pop\n        /* \"#utility.yul\":22970:23083   */\n      jump(tag_597)\n    tag_599:\n        /* \"#utility.yul\":23101:23107   */\n      dup4\n        /* \"#utility.yul\":23098:23099   */\n      dup2\n        /* \"#utility.yul\":23095:23108   */\n      gt\n        /* \"#utility.yul\":23092:23193   */\n      iszero\n      tag_600\n      jumpi\n        /* \"#utility.yul\":23181:23182   */\n      0x00\n        /* \"#utility.yul\":23172:23178   */\n      dup5\n        /* \"#utility.yul\":23167:23170   */\n      dup5\n        /* \"#utility.yul\":23163:23179   */\n      add\n        /* \"#utility.yul\":23156:23183   */\n      mstore\n        /* \"#utility.yul\":23092:23193   */\n    tag_600:\n        /* \"#utility.yul\":22941:23199   */\n      pop\n        /* \"#utility.yul\":22892:23199   */\n      pop\n      pop\n      pop\n      jump\t// out\n        /* \"#utility.yul\":23205:23525   */\n    tag_120:\n        /* \"#utility.yul\":23249:23255   */\n      0x00\n        /* \"#utility.yul\":23286:23287   */\n      0x02\n        /* \"#utility.yul\":23280:23284   */\n      dup3\n        /* \"#utility.yul\":23276:23288   */\n      div\n        /* \"#utility.yul\":23266:23288   */\n      swap1\n      pop\n        /* \"#utility.yul\":23333:23334   */\n      0x01\n        /* \"#utility.yul\":23327:23331   */\n      dup3\n        /* \"#utility.yul\":23323:23335   */\n      and\n        /* \"#utility.yul\":23354:23372   */\n      dup1\n        /* \"#utility.yul\":23344:23425   */\n      tag_602\n      jumpi\n        /* \"#utility.yul\":23410:23414   */\n      0x7f\n        /* \"#utility.yul\":23402:23408   */\n      dup3\n        /* \"#utility.yul\":23398:23415   */\n      and\n        /* \"#utility.yul\":23388:23415   */\n      swap2\n      pop\n        /* \"#utility.yul\":23344:23425   */\n    tag_602:\n        /* \"#utility.yul\":23472:23474   */\n      0x20\n        /* \"#utility.yul\":23464:23470   */\n      dup3\n        /* \"#utility.yul\":23461:23475   */\n      lt\n        /* \"#utility.yul\":23441:23459   */\n      dup2\n        /* \"#utility.yul\":23438:23476   */\n      eq\n        /* \"#utility.yul\":23435:23519   */\n      iszero\n      tag_603\n      jumpi\n        /* \"#utility.yul\":23491:23509   */\n      tag_604\n      tag_605\n      jump\t// in\n    tag_604:\n        /* \"#utility.yul\":23435:23519   */\n    tag_603:\n        /* \"#utility.yul\":23256:23525   */\n      pop\n        /* \"#utility.yul\":23205:23525   */\n      swap2\n      swap1\n      pop\n      jump\t// out\n        /* \"#utility.yul\":23531:23812   */\n    tag_561:\n        /* \"#utility.yul\":23614:23641   */\n      tag_607\n        /* \"#utility.yul\":23636:23640   */\n      dup3\n        /* \"#utility.yul\":23614:23641   */\n      tag_440\n      jump\t// in\n    tag_607:\n        /* \"#utility.yul\":23606:23612   */\n      dup2\n        /* \"#utility.yul\":23602:23642   */\n      add\n        /* \"#utility.yul\":23744:23750   */\n      dup2\n        /* \"#utility.yul\":23732:23742   */\n      dup2\n        /* \"#utility.yul\":23729:23751   */\n      lt\n        /* \"#utility.yul\":23708:23726   */\n      0xffffffffffffffff\n        /* \"#utility.yul\":23696:23706   */\n      dup3\n        /* \"#utility.yul\":23693:23727   */\n      gt\n        /* \"#utility.yul\":23690:23752   */\n      or\n        /* \"#utility.yul\":23687:23775   */\n      iszero\n      tag_608\n      jumpi\n        /* \"#utility.yul\":23755:23773   */\n      tag_609\n      tag_566\n      jump\t// in\n    tag_609:\n        /* \"#utility.yul\":23687:23775   */\n    tag_608:\n        /* \"#utility.yul\":23795:23805   */\n      dup1\n        /* \"#utility.yul\":23791:23793   */\n      0x40\n        /* \"#utility.yul\":23784:23806   */\n      mstore\n        /* \"#utility.yul\":23574:23812   */\n      pop\n        /* \"#utility.yul\":23531:23812   */\n      pop\n      pop\n      jump\t// out\n        /* \"#utility.yul\":23818:24051   */\n    tag_147:\n        /* \"#utility.yul\":23857:23860   */\n      0x00\n        /* \"#utility.yul\":23880:23904   */\n      tag_611\n        /* \"#utility.yul\":23898:23903   */\n      dup3\n        /* \"#utility.yul\":23880:23904   */\n      tag_517\n      jump\t// in\n    tag_611:\n        /* \"#utility.yul\":23871:23904   */\n      swap2\n      pop\n        /* \"#utility.yul\":23926:23992   */\n      0xffffffffffffffffffffffffffffffffffffffffffffffffffffffffffffffff\n        /* \"#utility.yul\":23919:23924   */\n      dup3\n        /* \"#utility.yul\":23916:23993   */\n      eq\n        /* \"#utility.yul\":23913:24016   */\n      iszero\n      tag_612\n      jumpi\n        /* \"#utility.yul\":23996:24014   */\n      tag_613\n      tag_581\n      jump\t// in\n    tag_613:\n        /* \"#utility.yul\":23913:24016   */\n    tag_612:\n        /* \"#utility.yul\":24043:24044   */\n      0x01\n        /* \"#utility.yul\":24036:24041   */\n      dup3\n        /* \"#utility.yul\":24032:24045   */\n      add\n        /* \"#utility.yul\":24025:24045   */\n      swap1\n      pop\n        /* \"#utility.yul\":23818:24051   */\n      swap2\n      swap1\n      pop\n      jump\t// out\n        /* \"#utility.yul\":24057:24237   */\n    tag_581:\n        /* \"#utility.yul\":24105:24182   */\n      0x4e487b7100000000000000000000000000000000000000000000000000000000\n        /* \"#utility.yul\":24102:24103   */\n      0x00\n        /* \"#utility.yul\":24095:24183   */\n      mstore\n        /* \"#utility.yul\":24202:24206   */\n      0x11\n        /* \"#utility.yul\":24199:24200   */\n      0x04\n        /* \"#utility.yul\":24192:24207   */\n      mstore\n        /* \"#utility.yul\":24226:24230   */\n      0x24\n        /* \"#utility.yul\":24223:24224   */\n      0x00\n        /* \"#utility.yul\":24216:24231   */\n      revert\n        /* \"#utility.yul\":24243:24423   */\n    tag_605:\n        /* \"#utility.yul\":24291:24368   */\n      0x4e487b7100000000000000000000000000000000000000000000000000000000\n        /* \"#utility.yul\":24288:24289   */\n      0x00\n        /* \"#utility.yul\":24281:24369   */\n      mstore\n        /* \"#utility.yul\":24388:24392   */\n      0x22\n        /* \"#utility.yul\":24385:24386   */\n      0x04\n        /* \"#utility.yul\":24378:24393   */\n      mstore\n        /* \"#utility.yul\":24412:24416   */\n      0x24\n        /* \"#utility.yul\":24409:24410   */\n      0x00\n        /* \"#utility.yul\":24402:24417   */\n      revert\n        /* \"#utility.yul\":24429:24609   */\n    tag_566:\n        /* \"#utility.yul\":24477:24554   */\n      0x4e487b7100000000000000000000000000000000000000000000000000000000\n        /* \"#utility.yul\":24474:24475   */\n      0x00\n        /* \"#utility.yul\":24467:24555   */\n      mstore\n        /* \"#utility.yul\":24574:24578   */\n      0x41\n        /* \"#utility.yul\":24571:24572   */\n      0x04\n        /* \"#utility.yul\":24564:24579   */\n      mstore\n        /* \"#utility.yul\":24598:24602   */\n      0x24\n        /* \"#utility.yul\":24595:24596   */\n      0x00\n        /* \"#utility.yul\":24588:24603   */\n      revert\n        /* \"#utility.yul\":24615:24732   */\n    tag_358:\n        /* \"#utility.yul\":24724:24725   */\n      0x00\n        /* \"#utility.yul\":24721:24722   */\n      dup1\n        /* \"#utility.yul\":24714:24726   */\n      revert\n        /* \"#utility.yul\":24738:24855   */\n    tag_328:\n        /* \"#utility.yul\":24847:24848   */\n      0x00\n        /* \"#utility.yul\":24844:24845   */\n      dup1\n        /* \"#utility.yul\":24837:24849   */\n      revert\n        /* \"#utility.yul\":24861:24978   */\n    tag_393:\n        /* \"#utility.yul\":24970:24971   */\n      0x00\n        /* \"#utility.yul\":24967:24968   */\n      dup1\n        /* \"#utility.yul\":24960:24972   */\n      revert\n        /* \"#utility.yul\":24984:25101   */\n    tag_372:\n        /* \"#utility.yul\":25093:25094   */\n      0x00\n        /* \"#utility.yul\":25090:25091   */\n      dup1\n        /* \"#utility.yul\":25083:25095   */\n      revert\n        /* \"#utility.yul\":25107:25209   */\n    tag_440:\n        /* \"#utility.yul\":25148:25154   */\n      0x00\n        /* \"#utility.yul\":25199:25201   */\n      0x1f\n        /* \"#utility.yul\":25195:25202   */\n      not\n        /* \"#utility.yul\":25190:25192   */\n      0x1f\n        /* \"#utility.yul\":25183:25188   */\n      dup4\n        /* \"#utility.yul\":25179:25193   */\n      add\n        /* \"#utility.yul\":25175:25203   */\n      and\n        /* \"#utility.yul\":25165:25203   */\n      swap1\n      pop\n        /* \"#utility.yul\":25107:25209   */\n      swap2\n      swap1\n      pop\n      jump\t// out\n        /* \"#utility.yul\":25215:25452   */\n    tag_453:\n        /* \"#utility.yul\":25355:25389   */\n      0x4552433732313a207472616e7366657220746f206e6f6e204552433732315265\n        /* \"#utility.yul\":25351:25352   */\n      0x00\n        /* \"#utility.yul\":25343:25349   */\n      dup3\n        /* \"#utility.yul\":25339:25353   */\n      add\n        /* \"#utility.yul\":25332:25390   */\n      mstore\n        /* \"#utility.yul\":25424:25444   */\n      0x63656976657220696d706c656d656e7465720000000000000000000000000000\n        /* \"#utility.yul\":25419:25421   */\n      0x20\n        /* \"#utility.yul\":25411:25417   */\n      dup3\n        /* \"#utility.yul\":25407:25422   */\n      add\n        /* \"#utility.yul\":25400:25445   */\n      mstore\n        /* \"#utility.yul\":25215:25452   */\n      pop\n      jump\t// out\n        /* \"#utility.yul\":25458:25683   */\n    tag_458:\n        /* \"#utility.yul\":25598:25632   */\n      0x4f776e61626c653a206e6577206f776e657220697320746865207a65726f2061\n        /* \"#utility.yul\":25594:25595   */\n      0x00\n        /* \"#utility.yul\":25586:25592   */\n      dup3\n        /* \"#utility.yul\":25582:25596   */\n      add\n        /* \"#utility.yul\":25575:25633   */\n      mstore\n        /* \"#utility.yul\":25667:25675   */\n      0x6464726573730000000000000000000000000000000000000000000000000000\n        /* \"#utility.yul\":25662:25664   */\n      0x20\n        /* \"#utility.yul\":25654:25660   */\n      dup3\n        /* \"#utility.yul\":25650:25665   */\n      add\n        /* \"#utility.yul\":25643:25676   */\n      mstore\n        /* \"#utility.yul\":25458:25683   */\n      pop\n      jump\t// out\n        /* \"#utility.yul\":25689:25913   */\n    tag_463:\n        /* \"#utility.yul\":25829:25863   */\n      0x4552433732313a207472616e736665722066726f6d20696e636f727265637420\n        /* \"#utility.yul\":25825:25826   */\n      0x00\n        /* \"#utility.yul\":25817:25823   */\n      dup3\n        /* \"#utility.yul\":25813:25827   */\n      add\n        /* \"#utility.yul\":25806:25864   */\n      mstore\n        /* \"#utility.yul\":25898:25905   */\n      0x6f776e6572000000000000000000000000000000000000000000000000000000\n        /* \"#utility.yul\":25893:25895   */\n      0x20\n        /* \"#utility.yul\":25885:25891   */\n      dup3\n        /* \"#utility.yul\":25881:25896   */\n      add\n        /* \"#utility.yul\":25874:25906   */\n      mstore\n        /* \"#utility.yul\":25689:25913   */\n      pop\n      jump\t// out\n        /* \"#utility.yul\":25919:26097   */\n    tag_468:\n        /* \"#utility.yul\":26059:26089   */\n      0x4552433732313a20746f6b656e20616c7265616479206d696e74656400000000\n        /* \"#utility.yul\":26055:26056   */\n      0x00\n        /* \"#utility.yul\":26047:26053   */\n      dup3\n        /* \"#utility.yul\":26043:26057   */\n      add\n        /* \"#utility.yul\":26036:26090   */\n      mstore\n        /* \"#utility.yul\":25919:26097   */\n      pop\n      jump\t// out\n        /* \"#utility.yul\":26103:26326   */\n    tag_473:\n        /* \"#utility.yul\":26243:26277   */\n      0x4552433732313a207472616e7366657220746f20746865207a65726f20616464\n        /* \"#utility.yul\":26239:26240   */\n      0x00\n        /* \"#utility.yul\":26231:26237   */\n      dup3\n        /* \"#utility.yul\":26227:26241   */\n      add\n        /* \"#utility.yul\":26220:26278   */\n      mstore\n        /* \"#utility.yul\":26312:26318   */\n      0x7265737300000000000000000000000000000000000000000000000000000000\n        /* \"#utility.yul\":26307:26309   */\n      0x20\n        /* \"#utility.yul\":26299:26305   */\n      dup3\n        /* \"#utility.yul\":26295:26310   */\n      add\n        /* \"#utility.yul\":26288:26319   */\n      mstore\n        /* \"#utility.yul\":26103:26326   */\n      pop\n      jump\t// out\n        /* \"#utility.yul\":26332:26507   */\n    tag_478:\n        /* \"#utility.yul\":26472:26499   */\n      0x4552433732313a20617070726f766520746f2063616c6c657200000000000000\n        /* \"#utility.yul\":26468:26469   */\n      0x00\n        /* \"#utility.yul\":26460:26466   */\n      dup3\n        /* \"#utility.yul\":26456:26470   */\n      add\n        /* \"#utility.yul\":26449:26500   */\n      mstore\n        /* \"#utility.yul\":26332:26507   */\n      pop\n      jump\t// out\n        /* \"#utility.yul\":26513:26741   */\n    tag_483:\n        /* \"#utility.yul\":26653:26687   */\n      0x4552433732313a2061646472657373207a65726f206973206e6f742061207661\n        /* \"#utility.yul\":26649:26650   */\n      0x00\n        /* \"#utility.yul\":26641:26647   */\n      dup3\n        /* \"#utility.yul\":26637:26651   */\n      add\n        /* \"#utility.yul\":26630:26688   */\n      mstore\n        /* \"#utility.yul\":26722:26733   */\n      0x6c6964206f776e65720000000000000000000000000000000000000000000000\n        /* \"#utility.yul\":26717:26719   */\n      0x20\n        /* \"#utility.yul\":26709:26715   */\n      dup3\n        /* \"#utility.yul\":26705:26720   */\n      add\n        /* \"#utility.yul\":26698:26734   */\n      mstore\n        /* \"#utility.yul\":26513:26741   */\n      pop\n      jump\t// out\n        /* \"#utility.yul\":26747:26996   */\n    tag_488:\n        /* \"#utility.yul\":26887:26921   */\n      0x4552433732313a20617070726f76652063616c6c6572206973206e6f7420746f\n        /* \"#utility.yul\":26883:26884   */\n      0x00\n        /* \"#utility.yul\":26875:26881   */\n      dup3\n        /* \"#utility.yul\":26871:26885   */\n      add\n        /* \"#utility.yul\":26864:26922   */\n      mstore\n        /* \"#utility.yul\":26956:26988   */\n      0x6b656e206f776e6572206e6f7220617070726f76656420666f7220616c6c0000\n        /* \"#utility.yul\":26951:26953   */\n      0x20\n        /* \"#utility.yul\":26943:26949   */\n      dup3\n        /* \"#utility.yul\":26939:26954   */\n      add\n        /* \"#utility.yul\":26932:26989   */\n      mstore\n        /* \"#utility.yul\":26747:26996   */\n      pop\n      jump\t// out\n        /* \"#utility.yul\":27002:27184   */\n    tag_493:\n        /* \"#utility.yul\":27142:27176   */\n      0x4552433732313a206d696e7420746f20746865207a65726f2061646472657373\n        /* \"#utility.yul\":27138:27139   */\n      0x00\n        /* \"#utility.yul\":27130:27136   */\n      dup3\n        /* \"#utility.yul\":27126:27140   */\n      add\n        /* \"#utility.yul\":27119:27177   */\n      mstore\n        /* \"#utility.yul\":27002:27184   */\n      pop\n      jump\t// out\n        /* \"#utility.yul\":27190:27372   */\n    tag_498:\n        /* \"#utility.yul\":27330:27364   */\n      0x4f776e61626c653a2063616c6c6572206973206e6f7420746865206f776e6572\n        /* \"#utility.yul\":27326:27327   */\n      0x00\n        /* \"#utility.yul\":27318:27324   */\n      dup3\n        /* \"#utility.yul\":27314:27328   */\n      add\n        /* \"#utility.yul\":27307:27365   */\n      mstore\n        /* \"#utility.yul\":27190:27372   */\n      pop\n      jump\t// out\n        /* \"#utility.yul\":27378:27552   */\n    tag_503:\n        /* \"#utility.yul\":27518:27544   */\n      0x4552433732313a20696e76616c696420746f6b656e2049440000000000000000\n        /* \"#utility.yul\":27514:27515   */\n      0x00\n        /* \"#utility.yul\":27506:27512   */\n      dup3\n        /* \"#utility.yul\":27502:27516   */\n      add\n        /* \"#utility.yul\":27495:27545   */\n      mstore\n        /* \"#utility.yul\":27378:27552   */\n      pop\n      jump\t// out\n        /* \"#utility.yul\":27558:27778   */\n    tag_508:\n        /* \"#utility.yul\":27698:27732   */\n      0x4552433732313a20617070726f76616c20746f2063757272656e74206f776e65\n        /* \"#utility.yul\":27694:27695   */\n      0x00\n        /* \"#utility.yul\":27686:27692   */\n      dup3\n        /* \"#utility.yul\":27682:27696   */\n      add\n        /* \"#utility.yul\":27675:27733   */\n      mstore\n        /* \"#utility.yul\":27767:27770   */\n      0x7200000000000000000000000000000000000000000000000000000000000000\n        /* \"#utility.yul\":27762:27764   */\n      0x20\n        /* \"#utility.yul\":27754:27760   */\n      dup3\n        /* \"#utility.yul\":27750:27765   */\n      add\n        /* \"#utility.yul\":27743:27771   */\n      mstore\n        /* \"#utility.yul\":27558:27778   */\n      pop\n      jump\t// out\n        /* \"#utility.yul\":27784:28017   */\n    tag_513:\n        /* \"#utility.yul\":27924:27958   */\n      0x4552433732313a2063616c6c6572206973206e6f7420746f6b656e206f776e65\n        /* \"#utility.yul\":27920:27921   */\n      0x00\n        /* \"#utility.yul\":27912:27918   */\n      dup3\n        /* \"#utility.yul\":27908:27922   */\n      add\n        /* \"#utility.yul\":27901:27959   */\n      mstore\n        /* \"#utility.yul\":27993:28009   */\n      0x72206e6f7220617070726f766564000000000000000000000000000000000000\n        /* \"#utility.yul\":27988:27990   */\n      0x20\n        /* \"#utility.yul\":27980:27986   */\n      dup3\n        /* \"#utility.yul\":27976:27991   */\n      add\n        /* \"#utility.yul\":27969:28010   */\n      mstore\n        /* \"#utility.yul\":27784:28017   */\n      pop\n      jump\t// out\n        /* \"#utility.yul\":28023:28145   */\n    tag_342:\n        /* \"#utility.yul\":28096:28120   */\n      tag_636\n        /* \"#utility.yul\":28114:28119   */\n      dup2\n        /* \"#utility.yul\":28096:28120   */\n      tag_426\n      jump\t// in\n    tag_636:\n        /* \"#utility.yul\":28089:28094   */\n      dup2\n        /* \"#utility.yul\":28086:28121   */\n      eq\n        /* \"#utility.yul\":28076:28139   */\n      tag_637\n      jumpi\n        /* \"#utility.yul\":28135:28136   */\n      0x00\n        /* \"#utility.yul\":28132:28133   */\n      dup1\n        /* \"#utility.yul\":28125:28137   */\n      revert\n        /* \"#utility.yul\":28076:28139   */\n    tag_637:\n        /* \"#utility.yul\":28023:28145   */\n      pop\n      jump\t// out\n        /* \"#utility.yul\":28151:28267   */\n    tag_346:\n        /* \"#utility.yul\":28221:28242   */\n      tag_639\n        /* \"#utility.yul\":28236:28241   */\n      dup2\n        /* \"#utility.yul\":28221:28242   */\n      tag_430\n      jump\t// in\n    tag_639:\n        /* \"#utility.yul\":28214:28219   */\n      dup2\n        /* \"#utility.yul\":28211:28243   */\n      eq\n        /* \"#utility.yul\":28201:28261   */\n      tag_640\n      jumpi\n        /* \"#utility.yul\":28257:28258   */\n      0x00\n        /* \"#utility.yul\":28254:28255   */\n      dup1\n        /* \"#utility.yul\":28247:28259   */\n      revert\n        /* \"#utility.yul\":28201:28261   */\n    tag_640:\n        /* \"#utility.yul\":28151:28267   */\n      pop\n      jump\t// out\n        /* \"#utility.yul\":28273:28393   */\n    tag_350:\n        /* \"#utility.yul\":28345:28368   */\n      tag_642\n        /* \"#utility.yul\":28362:28367   */\n      dup2\n        /* \"#utility.yul\":28345:28368   */\n      tag_591\n      jump\t// in\n    tag_642:\n        /* \"#utility.yul\":28338:28343   */\n      dup2\n        /* \"#utility.yul\":28335:28369   */\n      eq\n        /* \"#utility.yul\":28325:28387   */\n      tag_643\n      jumpi\n        /* \"#utility.yul\":28383:28384   */\n      0x00\n        /* \"#utility.yul\":28380:28381   */\n      dup1\n        /* \"#utility.yul\":28373:28385   */\n      revert\n        /* \"#utility.yul\":28325:28387   */\n    tag_643:\n        /* \"#utility.yul\":28273:28393   */\n      pop\n      jump\t// out\n        /* \"#utility.yul\":28399:28521   */\n    tag_368:\n        /* \"#utility.yul\":28472:28496   */\n      tag_645\n        /* \"#utility.yul\":28490:28495   */\n      dup2\n        /* \"#utility.yul\":28472:28496   */\n      tag_517\n      jump\t// in\n    tag_645:\n        /* \"#utility.yul\":28465:28470   */\n      dup2\n        /* \"#utility.yul\":28462:28497   */\n      eq\n        /* \"#utility.yul\":28452:28515   */\n      tag_646\n      jumpi\n        /* \"#utility.yul\":28511:28512   */\n      0x00\n        /* \"#utility.yul\":28508:28509   */\n      dup1\n        /* \"#utility.yul\":28501:28513   */\n      revert\n        /* \"#utility.yul\":28452:28515   */\n    tag_646:\n        /* \"#utility.yul\":28399:28521   */\n      pop\n      jump\t// out\n\n    auxdata: 0xa2646970667358221220d7b1bddc133ba34e0bf7582a860ae44c6bd31ffbcf139642c10eebe51eb7aef264736f6c63430008070033\n}\n",
				"bytecode": {
					"linkReferences": {},
					"object": "60806040526040518060400160405280600781526020017f697066733a2f2f000000000000000000000000000000000000000000000000008152506007908051906020019062000051929190620001f4565b503480156200005f57600080fd5b506040518060400160405280600a81526020017f526963682773204e4654000000000000000000000000000000000000000000008152506040518060400160405280600481526020017f52696368000000000000000000000000000000000000000000000000000000008152508160009080519060200190620000e4929190620001f4565b508060019080519060200190620000fd929190620001f4565b50505062000120620001146200012660201b60201c565b6200012e60201b60201c565b62000309565b600033905090565b6000600660009054906101000a900473ffffffffffffffffffffffffffffffffffffffff16905081600660006101000a81548173ffffffffffffffffffffffffffffffffffffffff021916908373ffffffffffffffffffffffffffffffffffffffff1602179055508173ffffffffffffffffffffffffffffffffffffffff168173ffffffffffffffffffffffffffffffffffffffff167f8be0079c531659141344cd1fd0a4f28419497f9722a3daafe3b4186f6b6457e060405160405180910390a35050565b8280546200020290620002a4565b90600052602060002090601f01602090048101928262000226576000855562000272565b82601f106200024157805160ff191683800117855562000272565b8280016001018555821562000272579182015b828111156200027157825182559160200191906001019062000254565b5b50905062000281919062000285565b5090565b5b80821115620002a057600081600090555060010162000286565b5090565b60006002820490506001821680620002bd57607f821691505b60208210811415620002d457620002d3620002da565b5b50919050565b7f4e487b7100000000000000000000000000000000000000000000000000000000600052602260045260246000fd5b61290380620003196000396000f3fe608060405234801561001057600080fd5b50600436106101375760003560e01c80636c0360eb116100b8578063a14481941161007c578063a144819414610316578063a22cb46514610332578063b88d4fde1461034e578063c87b56dd1461036a578063e985e9c51461039a578063f2fde38b146103ca57610137565b80636c0360eb1461028257806370a08231146102a0578063715018a6146102d05780638da5cb5b146102da57806395d89b41146102f857610137565b80631249c58b116100ff5780631249c58b146101f257806323b872dd146101fc578063248225141461021857806342842e0e146102365780636352211e1461025257610137565b806301ffc9a71461013c57806302fe53051461016c57806306fdde0314610188578063081812fc146101a6578063095ea7b3146101d6575b600080fd5b61015660048036038101906101519190611c3a565b6103e6565b6040516101639190611fd7565b60405180910390f35b61018660048036038101906101819190611c94565b6104c8565b005b6101906104ea565b60405161019d9190611ff2565b60405180910390f35b6101c060048036038101906101bb9190611cdd565b61057c565b6040516101cd9190611f70565b60405180910390f35b6101f060048036038101906101eb9190611bfa565b6105c2565b005b6101fa6106da565b005b61021660048036038101906102119190611ae4565b610700565b005b610220610760565b60405161022d91906121b4565b60405180910390f35b610250600480360381019061024b9190611ae4565b610766565b005b61026c60048036038101906102679190611cdd565b610786565b6040516102799190611f70565b60405180910390f35b61028a610838565b6040516102979190611ff2565b60405180910390f35b6102ba60048036038101906102b59190611a77565b6108c6565b6040516102c791906121b4565b60405180910390f35b6102d861097e565b005b6102e2610992565b6040516102ef9190611f70565b60405180910390f35b6103006109bc565b60405161030d9190611ff2565b60405180910390f35b610330600480360381019061032b9190611bfa565b610a4e565b005b61034c60048036038101906103479190611bba565b610a5c565b005b61036860048036038101906103639190611b37565b610a72565b005b610384600480360381019061037f9190611cdd565b610ad4565b6040516103919190611ff2565b60405180910390f35b6103b460048036038101906103af9190611aa4565b610b71565b6040516103c19190611fd7565b60405180910390f35b6103e460048036038101906103df9190611a77565b610c05565b005b60007f80ac58cd000000000000000000000000000000000000000000000000000000007bffffffffffffffffffffffffffffffffffffffffffffffffffffffff1916827bffffffffffffffffffffffffffffffffffffffffffffffffffffffff191614806104b157507f5b5e139f000000000000000000000000000000000000000000000000000000007bffffffffffffffffffffffffffffffffffffffffffffffffffffffff1916827bffffffffffffffffffffffffffffffffffffffffffffffffffffffff1916145b806104c157506104c082610c89565b5b9050919050565b6104d0610cf3565b80600790805190602001906104e692919061188b565b5050565b6060600080546104f9906123ce565b80601f0160208091040260200160405190810160405280929190818152602001828054610525906123ce565b80156105725780601f1061054757610100808354040283529160200191610572565b820191906000526020600020905b81548152906001019060200180831161055557829003601f168201915b5050505050905090565b600061058782610d71565b6004600083815260200190815260200160002060009054906101000a900473ffffffffffffffffffffffffffffffffffffffff169050919050565b60006105cd82610786565b90508073ffffffffffffffffffffffffffffffffffffffff168373ffffffffffffffffffffffffffffffffffffffff16141561063e576040517f08c379a000000000000000000000000000000000000000000000000000000000815260040161063590612174565b60405180910390fd5b8073ffffffffffffffffffffffffffffffffffffffff1661065d610dbc565b73ffffffffffffffffffffffffffffffffffffffff16148061068c575061068b81610686610dbc565b610b71565b5b6106cb576040517f08c379a00000000000000000000000000000000000000000000000000000000081526004016106c2906120f4565b60405180910390fd5b6106d58383610dc4565b505050565b6106e633600854610e7d565b600860008154809291906106f990612431565b9190505550565b61071161070b610dbc565b82610e9b565b610750576040517f08c379a000000000000000000000000000000000000000000000000000000000815260040161074790612194565b60405180910390fd5b61075b838383610f30565b505050565b60085481565b61078183838360405180602001604052806000815250610a72565b505050565b6000806002600084815260200190815260200160002060009054906101000a900473ffffffffffffffffffffffffffffffffffffffff169050600073ffffffffffffffffffffffffffffffffffffffff168173ffffffffffffffffffffffffffffffffffffffff16141561082f576040517f08c379a000000000000000000000000000000000000000000000000000000000815260040161082690612154565b60405180910390fd5b80915050919050565b60078054610845906123ce565b80601f0160208091040260200160405190810160405280929190818152602001828054610871906123ce565b80156108be5780601f10610893576101008083540402835291602001916108be565b820191906000526020600020905b8154815290600101906020018083116108a157829003601f168201915b505050505081565b60008073ffffffffffffffffffffffffffffffffffffffff168273ffffffffffffffffffffffffffffffffffffffff161415610937576040517f08c379a000000000000000000000000000000000000000000000000000000000815260040161092e906120d4565b60405180910390fd5b600360008373ffffffffffffffffffffffffffffffffffffffff1673ffffffffffffffffffffffffffffffffffffffff168152602001908152602001600020549050919050565b610986610cf3565b6109906000611197565b565b6000600660009054906101000a900473ffffffffffffffffffffffffffffffffffffffff16905090565b6060600180546109cb906123ce565b80601f01602080910402602001604051908101604052809291908181526020018280546109f7906123ce565b8015610a445780601f10610a1957610100808354040283529160200191610a44565b820191906000526020600020905b815481529060010190602001808311610a2757829003601f168201915b5050505050905090565b610a588282610e7d565b5050565b610a6e610a67610dbc565b838361125d565b5050565b610a83610a7d610dbc565b83610e9b565b610ac2576040517f08c379a0000000000000000000000000000000000000000000000000000000008152600401610ab990612194565b60405180910390fd5b610ace848484846113ca565b50505050565b6060610adf82610d71565b60078054610aec906123ce565b80601f0160208091040260200160405190810160405280929190818152602001828054610b18906123ce565b8015610b655780601f10610b3a57610100808354040283529160200191610b65565b820191906000526020600020905b815481529060010190602001808311610b4857829003601f168201915b50505050509050919050565b6000600560008473ffffffffffffffffffffffffffffffffffffffff1673ffffffffffffffffffffffffffffffffffffffff16815260200190815260200160002060008373ffffffffffffffffffffffffffffffffffffffff1673ffffffffffffffffffffffffffffffffffffffff16815260200190815260200160002060009054906101000a900460ff16905092915050565b610c0d610cf3565b600073ffffffffffffffffffffffffffffffffffffffff168173ffffffffffffffffffffffffffffffffffffffff161415610c7d576040517f08c379a0000000000000000000000000000000000000000000000000000000008152600401610c7490612034565b60405180910390fd5b610c8681611197565b50565b60007f01ffc9a7000000000000000000000000000000000000000000000000000000007bffffffffffffffffffffffffffffffffffffffffffffffffffffffff1916827bffffffffffffffffffffffffffffffffffffffffffffffffffffffff1916149050919050565b610cfb610dbc565b73ffffffffffffffffffffffffffffffffffffffff16610d19610992565b73ffffffffffffffffffffffffffffffffffffffff1614610d6f576040517f08c379a0000000000000000000000000000000000000000000000000000000008152600401610d6690612134565b60405180910390fd5b565b610d7a81611426565b610db9576040517f08c379a0000000000000000000000000000000000000000000000000000000008152600401610db090612154565b60405180910390fd5b50565b600033905090565b816004600083815260200190815260200160002060006101000a81548173ffffffffffffffffffffffffffffffffffffffff021916908373ffffffffffffffffffffffffffffffffffffffff160217905550808273ffffffffffffffffffffffffffffffffffffffff16610e3783610786565b73ffffffffffffffffffffffffffffffffffffffff167f8c5be1e5ebec7d5bd14f71427d1e84f3dd0314c0f7b2291e5b200ac8c7c3b92560405160405180910390a45050565b610e97828260405180602001604052806000815250611492565b5050565b600080610ea783610786565b90508073ffffffffffffffffffffffffffffffffffffffff168473ffffffffffffffffffffffffffffffffffffffff161480610ee95750610ee88185610b71565b5b80610f2757508373ffffffffffffffffffffffffffffffffffffffff16610f0f8461057c565b73ffffffffffffffffffffffffffffffffffffffff16145b91505092915050565b8273ffffffffffffffffffffffffffffffffffffffff16610f5082610786565b73ffffffffffffffffffffffffffffffffffffffff1614610fa6576040517f08c379a0000000000000000000000000000000000000000000000000000000008152600401610f9d90612054565b60405180910390fd5b600073ffffffffffffffffffffffffffffffffffffffff168273ffffffffffffffffffffffffffffffffffffffff161415611016576040517f08c379a000000000000000000000000000000000000000000000000000000000815260040161100d90612094565b60405180910390fd5b6110218383836114ed565b61102c600082610dc4565b6001600360008573ffffffffffffffffffffffffffffffffffffffff1673ffffffffffffffffffffffffffffffffffffffff168152602001908152602001600020600082825461107c91906122e4565b925050819055506001600360008473ffffffffffffffffffffffffffffffffffffffff1673ffffffffffffffffffffffffffffffffffffffff16815260200190815260200160002060008282546110d3919061228e565b92505081905550816002600083815260200190815260200160002060006101000a81548173ffffffffffffffffffffffffffffffffffffffff021916908373ffffffffffffffffffffffffffffffffffffffff160217905550808273ffffffffffffffffffffffffffffffffffffffff168473ffffffffffffffffffffffffffffffffffffffff167fddf252ad1be2c89b69c2b068fc378daa952ba7f163c4a11628f55a4df523b3ef60405160405180910390a46111928383836114f2565b505050565b6000600660009054906101000a900473ffffffffffffffffffffffffffffffffffffffff16905081600660006101000a81548173ffffffffffffffffffffffffffffffffffffffff021916908373ffffffffffffffffffffffffffffffffffffffff1602179055508173ffffffffffffffffffffffffffffffffffffffff168173ffffffffffffffffffffffffffffffffffffffff167f8be0079c531659141344cd1fd0a4f28419497f9722a3daafe3b4186f6b6457e060405160405180910390a35050565b8173ffffffffffffffffffffffffffffffffffffffff168373ffffffffffffffffffffffffffffffffffffffff1614156112cc576040517f08c379a00000000000000000000000000000000000000000000000000000000081526004016112c3906120b4565b60405180910390fd5b80600560008573ffffffffffffffffffffffffffffffffffffffff1673ffffffffffffffffffffffffffffffffffffffff16815260200190815260200160002060008473ffffffffffffffffffffffffffffffffffffffff1673ffffffffffffffffffffffffffffffffffffffff16815260200190815260200160002060006101000a81548160ff0219169083151502179055508173ffffffffffffffffffffffffffffffffffffffff168373ffffffffffffffffffffffffffffffffffffffff167f17307eab39ab6107e8899845ad3d59bd9653f200f220920489ca2b5937696c31836040516113bd9190611fd7565b60405180910390a3505050565b6113d5848484610f30565b6113e1848484846114f7565b611420576040517f08c379a000000000000000000000000000000000000000000000000000000000815260040161141790612014565b60405180910390fd5b50505050565b60008073ffffffffffffffffffffffffffffffffffffffff166002600084815260200190815260200160002060009054906101000a900473ffffffffffffffffffffffffffffffffffffffff1673ffffffffffffffffffffffffffffffffffffffff1614159050919050565b61149c838361168e565b6114a960008484846114f7565b6114e8576040517f08c379a00000000000000000000000000000000000000000000000000000000081526004016114df90612014565b60405180910390fd5b505050565b505050565b505050565b60006115188473ffffffffffffffffffffffffffffffffffffffff16611868565b15611681578373ffffffffffffffffffffffffffffffffffffffff1663150b7a02611541610dbc565b8786866040518563ffffffff1660e01b81526004016115639493929190611f8b565b602060405180830381600087803b15801561157d57600080fd5b505af19250505080156115ae57506040513d601f19601f820116820180604052508101906115ab9190611c67565b60015b611631573d80600081146115de576040519150601f19603f3d011682016040523d82523d6000602084013e6115e3565b606091505b50600081511415611629576040517f08c379a000000000000000000000000000000000000000000000000000000000815260040161162090612014565b60405180910390fd5b805181602001fd5b63150b7a0260e01b7bffffffffffffffffffffffffffffffffffffffffffffffffffffffff1916817bffffffffffffffffffffffffffffffffffffffffffffffffffffffff191614915050611686565b600190505b949350505050565b600073ffffffffffffffffffffffffffffffffffffffff168273ffffffffffffffffffffffffffffffffffffffff1614156116fe576040517f08c379a00000000000000000000000000000000000000000000000000000000081526004016116f590612114565b60405180910390fd5b61170781611426565b15611747576040517f08c379a000000000000000000000000000000000000000000000000000000000815260040161173e90612074565b60405180910390fd5b611753600083836114ed565b6001600360008473ffffffffffffffffffffffffffffffffffffffff1673ffffffffffffffffffffffffffffffffffffffff16815260200190815260200160002060008282546117a3919061228e565b92505081905550816002600083815260200190815260200160002060006101000a81548173ffffffffffffffffffffffffffffffffffffffff021916908373ffffffffffffffffffffffffffffffffffffffff160217905550808273ffffffffffffffffffffffffffffffffffffffff16600073ffffffffffffffffffffffffffffffffffffffff167fddf252ad1be2c89b69c2b068fc378daa952ba7f163c4a11628f55a4df523b3ef60405160405180910390a4611864600083836114f2565b5050565b6000808273ffffffffffffffffffffffffffffffffffffffff163b119050919050565b828054611897906123ce565b90600052602060002090601f0160209004810192826118b95760008555611900565b82601f106118d257805160ff1916838001178555611900565b82800160010185558215611900579182015b828111156118ff5782518255916020019190600101906118e4565b5b50905061190d9190611911565b5090565b5b8082111561192a576000816000905550600101611912565b5090565b600061194161193c846121f4565b6121cf565b90508281526020810184848401111561195d5761195c61250c565b5b61196884828561238c565b509392505050565b600061198361197e84612225565b6121cf565b90508281526020810184848401111561199f5761199e61250c565b5b6119aa84828561238c565b509392505050565b6000813590506119c181612871565b92915050565b6000813590506119d681612888565b92915050565b6000813590506119eb8161289f565b92915050565b600081519050611a008161289f565b92915050565b600082601f830112611a1b57611a1a612507565b5b8135611a2b84826020860161192e565b91505092915050565b600082601f830112611a4957611a48612507565b5b8135611a59848260208601611970565b91505092915050565b600081359050611a71816128b6565b92915050565b600060208284031215611a8d57611a8c612516565b5b6000611a9b848285016119b2565b91505092915050565b60008060408385031215611abb57611aba612516565b5b6000611ac9858286016119b2565b9250506020611ada858286016119b2565b9150509250929050565b600080600060608486031215611afd57611afc612516565b5b6000611b0b868287016119b2565b9350506020611b1c868287016119b2565b9250506040611b2d86828701611a62565b9150509250925092565b60008060008060808587031215611b5157611b50612516565b5b6000611b5f878288016119b2565b9450506020611b70878288016119b2565b9350506040611b8187828801611a62565b925050606085013567ffffffffffffffff811115611ba257611ba1612511565b5b611bae87828801611a06565b91505092959194509250565b60008060408385031215611bd157611bd0612516565b5b6000611bdf858286016119b2565b9250506020611bf0858286016119c7565b9150509250929050565b60008060408385031215611c1157611c10612516565b5b6000611c1f858286016119b2565b9250506020611c3085828601611a62565b9150509250929050565b600060208284031215611c5057611c4f612516565b5b6000611c5e848285016119dc565b91505092915050565b600060208284031215611c7d57611c7c612516565b5b6000611c8b848285016119f1565b91505092915050565b600060208284031215611caa57611ca9612516565b5b600082013567ffffffffffffffff811115611cc857611cc7612511565b5b611cd484828501611a34565b91505092915050565b600060208284031215611cf357611cf2612516565b5b6000611d0184828501611a62565b91505092915050565b611d1381612318565b82525050565b611d228161232a565b82525050565b6000611d3382612256565b611d3d818561226c565b9350611d4d81856020860161239b565b611d568161251b565b840191505092915050565b6000611d6c82612261565b611d76818561227d565b9350611d8681856020860161239b565b611d8f8161251b565b840191505092915050565b6000611da760328361227d565b9150611db28261252c565b604082019050919050565b6000611dca60268361227d565b9150611dd58261257b565b604082019050919050565b6000611ded60258361227d565b9150611df8826125ca565b604082019050919050565b6000611e10601c8361227d565b9150611e1b82612619565b602082019050919050565b6000611e3360248361227d565b9150611e3e82612642565b604082019050919050565b6000611e5660198361227d565b9150611e6182612691565b602082019050919050565b6000611e7960298361227d565b9150611e84826126ba565b604082019050919050565b6000611e9c603e8361227d565b9150611ea782612709565b604082019050919050565b6000611ebf60208361227d565b9150611eca82612758565b602082019050919050565b6000611ee260208361227d565b9150611eed82612781565b602082019050919050565b6000611f0560188361227d565b9150611f10826127aa565b602082019050919050565b6000611f2860218361227d565b9150611f33826127d3565b604082019050919050565b6000611f4b602e8361227d565b9150611f5682612822565b604082019050919050565b611f6a81612382565b82525050565b6000602082019050611f856000830184611d0a565b92915050565b6000608082019050611fa06000830187611d0a565b611fad6020830186611d0a565b611fba6040830185611f61565b8181036060830152611fcc8184611d28565b905095945050505050565b6000602082019050611fec6000830184611d19565b92915050565b6000602082019050818103600083015261200c8184611d61565b905092915050565b6000602082019050818103600083015261202d81611d9a565b9050919050565b6000602082019050818103600083015261204d81611dbd565b9050919050565b6000602082019050818103600083015261206d81611de0565b9050919050565b6000602082019050818103600083015261208d81611e03565b9050919050565b600060208201905081810360008301526120ad81611e26565b9050919050565b600060208201905081810360008301526120cd81611e49565b9050919050565b600060208201905081810360008301526120ed81611e6c565b9050919050565b6000602082019050818103600083015261210d81611e8f565b9050919050565b6000602082019050818103600083015261212d81611eb2565b9050919050565b6000602082019050818103600083015261214d81611ed5565b9050919050565b6000602082019050818103600083015261216d81611ef8565b9050919050565b6000602082019050818103600083015261218d81611f1b565b9050919050565b600060208201905081810360008301526121ad81611f3e565b9050919050565b60006020820190506121c96000830184611f61565b92915050565b60006121d96121ea565b90506121e58282612400565b919050565b6000604051905090565b600067ffffffffffffffff82111561220f5761220e6124d8565b5b6122188261251b565b9050602081019050919050565b600067ffffffffffffffff8211156122405761223f6124d8565b5b6122498261251b565b9050602081019050919050565b600081519050919050565b600081519050919050565b600082825260208201905092915050565b600082825260208201905092915050565b600061229982612382565b91506122a483612382565b9250827fffffffffffffffffffffffffffffffffffffffffffffffffffffffffffffffff038211156122d9576122d861247a565b5b828201905092915050565b60006122ef82612382565b91506122fa83612382565b92508282101561230d5761230c61247a565b5b828203905092915050565b600061232382612362565b9050919050565b60008115159050919050565b60007fffffffff0000000000000000000000000000000000000000000000000000000082169050919050565b600073ffffffffffffffffffffffffffffffffffffffff82169050919050565b6000819050919050565b82818337600083830152505050565b60005b838110156123b957808201518184015260208101905061239e565b838111156123c8576000848401525b50505050565b600060028204905060018216806123e657607f821691505b602082108114156123fa576123f96124a9565b5b50919050565b6124098261251b565b810181811067ffffffffffffffff82111715612428576124276124d8565b5b80604052505050565b600061243c82612382565b91507fffffffffffffffffffffffffffffffffffffffffffffffffffffffffffffffff82141561246f5761246e61247a565b5b600182019050919050565b7f4e487b7100000000000000000000000000000000000000000000000000000000600052601160045260246000fd5b7f4e487b7100000000000000000000000000000000000000000000000000000000600052602260045260246000fd5b7f4e487b7100000000000000000000000000000000000000000000000000000000600052604160045260246000fd5b600080fd5b600080fd5b600080fd5b600080fd5b6000601f19601f8301169050919050565b7f4552433732313a207472616e7366657220746f206e6f6e20455243373231526560008201527f63656976657220696d706c656d656e7465720000000000000000000000000000602082015250565b7f4f776e61626c653a206e6577206f776e657220697320746865207a65726f206160008201527f6464726573730000000000000000000000000000000000000000000000000000602082015250565b7f4552433732313a207472616e736665722066726f6d20696e636f72726563742060008201527f6f776e6572000000000000000000000000000000000000000000000000000000602082015250565b7f4552433732313a20746f6b656e20616c7265616479206d696e74656400000000600082015250565b7f4552433732313a207472616e7366657220746f20746865207a65726f2061646460008201527f7265737300000000000000000000000000000000000000000000000000000000602082015250565b7f4552433732313a20617070726f766520746f2063616c6c657200000000000000600082015250565b7f4552433732313a2061646472657373207a65726f206973206e6f74206120766160008201527f6c6964206f776e65720000000000000000000000000000000000000000000000602082015250565b7f4552433732313a20617070726f76652063616c6c6572206973206e6f7420746f60008201527f6b656e206f776e6572206e6f7220617070726f76656420666f7220616c6c0000602082015250565b7f4552433732313a206d696e7420746f20746865207a65726f2061646472657373600082015250565b7f4f776e61626c653a2063616c6c6572206973206e6f7420746865206f776e6572600082015250565b7f4552433732313a20696e76616c696420746f6b656e2049440000000000000000600082015250565b7f4552433732313a20617070726f76616c20746f2063757272656e74206f776e6560008201527f7200000000000000000000000000000000000000000000000000000000000000602082015250565b7f4552433732313a2063616c6c6572206973206e6f7420746f6b656e206f776e6560008201527f72206e6f7220617070726f766564000000000000000000000000000000000000602082015250565b61287a81612318565b811461288557600080fd5b50565b6128918161232a565b811461289c57600080fd5b50565b6128a881612336565b81146128b357600080fd5b50565b6128bf81612382565b81146128ca57600080fd5b5056fea2646970667358221220d7b1bddc133ba34e0bf7582a860ae44c6bd31ffbcf139642c10eebe51eb7aef264736f6c63430008070033",
					"opcodes": "PUSH1 0x80 PUSH1 0x40 MSTORE PUSH1 0x40 MLOAD DUP1 PUSH1 0x40 ADD PUSH1 0x40 MSTORE DUP1 PUSH1 0x7 DUP2 MSTORE PUSH1 0x20 ADD PUSH32 0x697066733A2F2F00000000000000000000000000000000000000000000000000 DUP2 MSTORE POP PUSH1 0x7 SWAP1 DUP1 MLOAD SWAP1 PUSH1 0x20 ADD SWAP1 PUSH3 0x51 SWAP3 SWAP2 SWAP1 PUSH3 0x1F4 JUMP JUMPDEST POP CALLVALUE DUP1 ISZERO PUSH3 0x5F JUMPI PUSH1 0x0 DUP1 REVERT JUMPDEST POP PUSH1 0x40 MLOAD DUP1 PUSH1 0x40 ADD PUSH1 0x40 MSTORE DUP1 PUSH1 0xA DUP2 MSTORE PUSH1 0x20 ADD PUSH32 0x526963682773204E465400000000000000000000000000000000000000000000 DUP2 MSTORE POP PUSH1 0x40 MLOAD DUP1 PUSH1 0x40 ADD PUSH1 0x40 MSTORE DUP1 PUSH1 0x4 DUP2 MSTORE PUSH1 0x20 ADD PUSH32 0x5269636800000000000000000000000000000000000000000000000000000000 DUP2 MSTORE POP DUP2 PUSH1 0x0 SWAP1 DUP1 MLOAD SWAP1 PUSH1 0x20 ADD SWAP1 PUSH3 0xE4 SWAP3 SWAP2 SWAP1 PUSH3 0x1F4 JUMP JUMPDEST POP DUP1 PUSH1 0x1 SWAP1 DUP1 MLOAD SWAP1 PUSH1 0x20 ADD SWAP1 PUSH3 0xFD SWAP3 SWAP2 SWAP1 PUSH3 0x1F4 JUMP JUMPDEST POP POP POP PUSH3 0x120 PUSH3 0x114 PUSH3 0x126 PUSH1 0x20 SHL PUSH1 0x20 SHR JUMP JUMPDEST PUSH3 0x12E PUSH1 0x20 SHL PUSH1 0x20 SHR JUMP JUMPDEST PUSH3 0x309 JUMP JUMPDEST PUSH1 0x0 CALLER SWAP1 POP SWAP1 JUMP JUMPDEST PUSH1 0x0 PUSH1 0x6 PUSH1 0x0 SWAP1 SLOAD SWAP1 PUSH2 0x100 EXP SWAP1 DIV PUSH20 0xFFFFFFFFFFFFFFFFFFFFFFFFFFFFFFFFFFFFFFFF AND SWAP1 POP DUP2 PUSH1 0x6 PUSH1 0x0 PUSH2 0x100 EXP DUP2 SLOAD DUP2 PUSH20 0xFFFFFFFFFFFFFFFFFFFFFFFFFFFFFFFFFFFFFFFF MUL NOT AND SWAP1 DUP4 PUSH20 0xFFFFFFFFFFFFFFFFFFFFFFFFFFFFFFFFFFFFFFFF AND MUL OR SWAP1 SSTORE POP DUP2 PUSH20 0xFFFFFFFFFFFFFFFFFFFFFFFFFFFFFFFFFFFFFFFF AND DUP2 PUSH20 0xFFFFFFFFFFFFFFFFFFFFFFFFFFFFFFFFFFFFFFFF AND PUSH32 0x8BE0079C531659141344CD1FD0A4F28419497F9722A3DAAFE3B4186F6B6457E0 PUSH1 0x40 MLOAD PUSH1 0x40 MLOAD DUP1 SWAP2 SUB SWAP1 LOG3 POP POP JUMP JUMPDEST DUP3 DUP1 SLOAD PUSH3 0x202 SWAP1 PUSH3 0x2A4 JUMP JUMPDEST SWAP1 PUSH1 0x0 MSTORE PUSH1 0x20 PUSH1 0x0 KECCAK256 SWAP1 PUSH1 0x1F ADD PUSH1 0x20 SWAP1 DIV DUP2 ADD SWAP3 DUP3 PUSH3 0x226 JUMPI PUSH1 0x0 DUP6 SSTORE PUSH3 0x272 JUMP JUMPDEST DUP3 PUSH1 0x1F LT PUSH3 0x241 JUMPI DUP1 MLOAD PUSH1 0xFF NOT AND DUP4 DUP1 ADD OR DUP6 SSTORE PUSH3 0x272 JUMP JUMPDEST DUP3 DUP1 ADD PUSH1 0x1 ADD DUP6 SSTORE DUP3 ISZERO PUSH3 0x272 JUMPI SWAP2 DUP3 ADD JUMPDEST DUP3 DUP2 GT ISZERO PUSH3 0x271 JUMPI DUP3 MLOAD DUP3 SSTORE SWAP2 PUSH1 0x20 ADD SWAP2 SWAP1 PUSH1 0x1 ADD SWAP1 PUSH3 0x254 JUMP JUMPDEST JUMPDEST POP SWAP1 POP PUSH3 0x281 SWAP2 SWAP1 PUSH3 0x285 JUMP JUMPDEST POP SWAP1 JUMP JUMPDEST JUMPDEST DUP1 DUP3 GT ISZERO PUSH3 0x2A0 JUMPI PUSH1 0x0 DUP2 PUSH1 0x0 SWAP1 SSTORE POP PUSH1 0x1 ADD PUSH3 0x286 JUMP JUMPDEST POP SWAP1 JUMP JUMPDEST PUSH1 0x0 PUSH1 0x2 DUP3 DIV SWAP1 POP PUSH1 0x1 DUP3 AND DUP1 PUSH3 0x2BD JUMPI PUSH1 0x7F DUP3 AND SWAP2 POP JUMPDEST PUSH1 0x20 DUP3 LT DUP2 EQ ISZERO PUSH3 0x2D4 JUMPI PUSH3 0x2D3 PUSH3 0x2DA JUMP JUMPDEST JUMPDEST POP SWAP2 SWAP1 POP JUMP JUMPDEST PUSH32 0x4E487B7100000000000000000000000000000000000000000000000000000000 PUSH1 0x0 MSTORE PUSH1 0x22 PUSH1 0x4 MSTORE PUSH1 0x24 PUSH1 0x0 REVERT JUMPDEST PUSH2 0x2903 DUP1 PUSH3 0x319 PUSH1 0x0 CODECOPY PUSH1 0x0 RETURN INVALID PUSH1 0x80 PUSH1 0x40 MSTORE CALLVALUE DUP1 ISZERO PUSH2 0x10 JUMPI PUSH1 0x0 DUP1 REVERT JUMPDEST POP PUSH1 0x4 CALLDATASIZE LT PUSH2 0x137 JUMPI PUSH1 0x0 CALLDATALOAD PUSH1 0xE0 SHR DUP1 PUSH4 0x6C0360EB GT PUSH2 0xB8 JUMPI DUP1 PUSH4 0xA1448194 GT PUSH2 0x7C JUMPI DUP1 PUSH4 0xA1448194 EQ PUSH2 0x316 JUMPI DUP1 PUSH4 0xA22CB465 EQ PUSH2 0x332 JUMPI DUP1 PUSH4 0xB88D4FDE EQ PUSH2 0x34E JUMPI DUP1 PUSH4 0xC87B56DD EQ PUSH2 0x36A JUMPI DUP1 PUSH4 0xE985E9C5 EQ PUSH2 0x39A JUMPI DUP1 PUSH4 0xF2FDE38B EQ PUSH2 0x3CA JUMPI PUSH2 0x137 JUMP JUMPDEST DUP1 PUSH4 0x6C0360EB EQ PUSH2 0x282 JUMPI DUP1 PUSH4 0x70A08231 EQ PUSH2 0x2A0 JUMPI DUP1 PUSH4 0x715018A6 EQ PUSH2 0x2D0 JUMPI DUP1 PUSH4 0x8DA5CB5B EQ PUSH2 0x2DA JUMPI DUP1 PUSH4 0x95D89B41 EQ PUSH2 0x2F8 JUMPI PUSH2 0x137 JUMP JUMPDEST DUP1 PUSH4 0x1249C58B GT PUSH2 0xFF JUMPI DUP1 PUSH4 0x1249C58B EQ PUSH2 0x1F2 JUMPI DUP1 PUSH4 0x23B872DD EQ PUSH2 0x1FC JUMPI DUP1 PUSH4 0x24822514 EQ PUSH2 0x218 JUMPI DUP1 PUSH4 0x42842E0E EQ PUSH2 0x236 JUMPI DUP1 PUSH4 0x6352211E EQ PUSH2 0x252 JUMPI PUSH2 0x137 JUMP JUMPDEST DUP1 PUSH4 0x1FFC9A7 EQ PUSH2 0x13C JUMPI DUP1 PUSH4 0x2FE5305 EQ PUSH2 0x16C JUMPI DUP1 PUSH4 0x6FDDE03 EQ PUSH2 0x188 JUMPI DUP1 PUSH4 0x81812FC EQ PUSH2 0x1A6 JUMPI DUP1 PUSH4 0x95EA7B3 EQ PUSH2 0x1D6 JUMPI JUMPDEST PUSH1 0x0 DUP1 REVERT JUMPDEST PUSH2 0x156 PUSH1 0x4 DUP1 CALLDATASIZE SUB DUP2 ADD SWAP1 PUSH2 0x151 SWAP2 SWAP1 PUSH2 0x1C3A JUMP JUMPDEST PUSH2 0x3E6 JUMP JUMPDEST PUSH1 0x40 MLOAD PUSH2 0x163 SWAP2 SWAP1 PUSH2 0x1FD7 JUMP JUMPDEST PUSH1 0x40 MLOAD DUP1 SWAP2 SUB SWAP1 RETURN JUMPDEST PUSH2 0x186 PUSH1 0x4 DUP1 CALLDATASIZE SUB DUP2 ADD SWAP1 PUSH2 0x181 SWAP2 SWAP1 PUSH2 0x1C94 JUMP JUMPDEST PUSH2 0x4C8 JUMP JUMPDEST STOP JUMPDEST PUSH2 0x190 PUSH2 0x4EA JUMP JUMPDEST PUSH1 0x40 MLOAD PUSH2 0x19D SWAP2 SWAP1 PUSH2 0x1FF2 JUMP JUMPDEST PUSH1 0x40 MLOAD DUP1 SWAP2 SUB SWAP1 RETURN JUMPDEST PUSH2 0x1C0 PUSH1 0x4 DUP1 CALLDATASIZE SUB DUP2 ADD SWAP1 PUSH2 0x1BB SWAP2 SWAP1 PUSH2 0x1CDD JUMP JUMPDEST PUSH2 0x57C JUMP JUMPDEST PUSH1 0x40 MLOAD PUSH2 0x1CD SWAP2 SWAP1 PUSH2 0x1F70 JUMP JUMPDEST PUSH1 0x40 MLOAD DUP1 SWAP2 SUB SWAP1 RETURN JUMPDEST PUSH2 0x1F0 PUSH1 0x4 DUP1 CALLDATASIZE SUB DUP2 ADD SWAP1 PUSH2 0x1EB SWAP2 SWAP1 PUSH2 0x1BFA JUMP JUMPDEST PUSH2 0x5C2 JUMP JUMPDEST STOP JUMPDEST PUSH2 0x1FA PUSH2 0x6DA JUMP JUMPDEST STOP JUMPDEST PUSH2 0x216 PUSH1 0x4 DUP1 CALLDATASIZE SUB DUP2 ADD SWAP1 PUSH2 0x211 SWAP2 SWAP1 PUSH2 0x1AE4 JUMP JUMPDEST PUSH2 0x700 JUMP JUMPDEST STOP JUMPDEST PUSH2 0x220 PUSH2 0x760 JUMP JUMPDEST PUSH1 0x40 MLOAD PUSH2 0x22D SWAP2 SWAP1 PUSH2 0x21B4 JUMP JUMPDEST PUSH1 0x40 MLOAD DUP1 SWAP2 SUB SWAP1 RETURN JUMPDEST PUSH2 0x250 PUSH1 0x4 DUP1 CALLDATASIZE SUB DUP2 ADD SWAP1 PUSH2 0x24B SWAP2 SWAP1 PUSH2 0x1AE4 JUMP JUMPDEST PUSH2 0x766 JUMP JUMPDEST STOP JUMPDEST PUSH2 0x26C PUSH1 0x4 DUP1 CALLDATASIZE SUB DUP2 ADD SWAP1 PUSH2 0x267 SWAP2 SWAP1 PUSH2 0x1CDD JUMP JUMPDEST PUSH2 0x786 JUMP JUMPDEST PUSH1 0x40 MLOAD PUSH2 0x279 SWAP2 SWAP1 PUSH2 0x1F70 JUMP JUMPDEST PUSH1 0x40 MLOAD DUP1 SWAP2 SUB SWAP1 RETURN JUMPDEST PUSH2 0x28A PUSH2 0x838 JUMP JUMPDEST PUSH1 0x40 MLOAD PUSH2 0x297 SWAP2 SWAP1 PUSH2 0x1FF2 JUMP JUMPDEST PUSH1 0x40 MLOAD DUP1 SWAP2 SUB SWAP1 RETURN JUMPDEST PUSH2 0x2BA PUSH1 0x4 DUP1 CALLDATASIZE SUB DUP2 ADD SWAP1 PUSH2 0x2B5 SWAP2 SWAP1 PUSH2 0x1A77 JUMP JUMPDEST PUSH2 0x8C6 JUMP JUMPDEST PUSH1 0x40 MLOAD PUSH2 0x2C7 SWAP2 SWAP1 PUSH2 0x21B4 JUMP JUMPDEST PUSH1 0x40 MLOAD DUP1 SWAP2 SUB SWAP1 RETURN JUMPDEST PUSH2 0x2D8 PUSH2 0x97E JUMP JUMPDEST STOP JUMPDEST PUSH2 0x2E2 PUSH2 0x992 JUMP JUMPDEST PUSH1 0x40 MLOAD PUSH2 0x2EF SWAP2 SWAP1 PUSH2 0x1F70 JUMP JUMPDEST PUSH1 0x40 MLOAD DUP1 SWAP2 SUB SWAP1 RETURN JUMPDEST PUSH2 0x300 PUSH2 0x9BC JUMP JUMPDEST PUSH1 0x40 MLOAD PUSH2 0x30D SWAP2 SWAP1 PUSH2 0x1FF2 JUMP JUMPDEST PUSH1 0x40 MLOAD DUP1 SWAP2 SUB SWAP1 RETURN JUMPDEST PUSH2 0x330 PUSH1 0x4 DUP1 CALLDATASIZE SUB DUP2 ADD SWAP1 PUSH2 0x32B SWAP2 SWAP1 PUSH2 0x1BFA JUMP JUMPDEST PUSH2 0xA4E JUMP JUMPDEST STOP JUMPDEST PUSH2 0x34C PUSH1 0x4 DUP1 CALLDATASIZE SUB DUP2 ADD SWAP1 PUSH2 0x347 SWAP2 SWAP1 PUSH2 0x1BBA JUMP JUMPDEST PUSH2 0xA5C JUMP JUMPDEST STOP JUMPDEST PUSH2 0x368 PUSH1 0x4 DUP1 CALLDATASIZE SUB DUP2 ADD SWAP1 PUSH2 0x363 SWAP2 SWAP1 PUSH2 0x1B37 JUMP JUMPDEST PUSH2 0xA72 JUMP JUMPDEST STOP JUMPDEST PUSH2 0x384 PUSH1 0x4 DUP1 CALLDATASIZE SUB DUP2 ADD SWAP1 PUSH2 0x37F SWAP2 SWAP1 PUSH2 0x1CDD JUMP JUMPDEST PUSH2 0xAD4 JUMP JUMPDEST PUSH1 0x40 MLOAD PUSH2 0x391 SWAP2 SWAP1 PUSH2 0x1FF2 JUMP JUMPDEST PUSH1 0x40 MLOAD DUP1 SWAP2 SUB SWAP1 RETURN JUMPDEST PUSH2 0x3B4 PUSH1 0x4 DUP1 CALLDATASIZE SUB DUP2 ADD SWAP1 PUSH2 0x3AF SWAP2 SWAP1 PUSH2 0x1AA4 JUMP JUMPDEST PUSH2 0xB71 JUMP JUMPDEST PUSH1 0x40 MLOAD PUSH2 0x3C1 SWAP2 SWAP1 PUSH2 0x1FD7 JUMP JUMPDEST PUSH1 0x40 MLOAD DUP1 SWAP2 SUB SWAP1 RETURN JUMPDEST PUSH2 0x3E4 PUSH1 0x4 DUP1 CALLDATASIZE SUB DUP2 ADD SWAP1 PUSH2 0x3DF SWAP2 SWAP1 PUSH2 0x1A77 JUMP JUMPDEST PUSH2 0xC05 JUMP JUMPDEST STOP JUMPDEST PUSH1 0x0 PUSH32 0x80AC58CD00000000000000000000000000000000000000000000000000000000 PUSH28 0xFFFFFFFFFFFFFFFFFFFFFFFFFFFFFFFFFFFFFFFFFFFFFFFFFFFFFFFF NOT AND DUP3 PUSH28 0xFFFFFFFFFFFFFFFFFFFFFFFFFFFFFFFFFFFFFFFFFFFFFFFFFFFFFFFF NOT AND EQ DUP1 PUSH2 0x4B1 JUMPI POP PUSH32 0x5B5E139F00000000000000000000000000000000000000000000000000000000 PUSH28 0xFFFFFFFFFFFFFFFFFFFFFFFFFFFFFFFFFFFFFFFFFFFFFFFFFFFFFFFF NOT AND DUP3 PUSH28 0xFFFFFFFFFFFFFFFFFFFFFFFFFFFFFFFFFFFFFFFFFFFFFFFFFFFFFFFF NOT AND EQ JUMPDEST DUP1 PUSH2 0x4C1 JUMPI POP PUSH2 0x4C0 DUP3 PUSH2 0xC89 JUMP JUMPDEST JUMPDEST SWAP1 POP SWAP2 SWAP1 POP JUMP JUMPDEST PUSH2 0x4D0 PUSH2 0xCF3 JUMP JUMPDEST DUP1 PUSH1 0x7 SWAP1 DUP1 MLOAD SWAP1 PUSH1 0x20 ADD SWAP1 PUSH2 0x4E6 SWAP3 SWAP2 SWAP1 PUSH2 0x188B JUMP JUMPDEST POP POP JUMP JUMPDEST PUSH1 0x60 PUSH1 0x0 DUP1 SLOAD PUSH2 0x4F9 SWAP1 PUSH2 0x23CE JUMP JUMPDEST DUP1 PUSH1 0x1F ADD PUSH1 0x20 DUP1 SWAP2 DIV MUL PUSH1 0x20 ADD PUSH1 0x40 MLOAD SWAP1 DUP2 ADD PUSH1 0x40 MSTORE DUP1 SWAP3 SWAP2 SWAP1 DUP2 DUP2 MSTORE PUSH1 0x20 ADD DUP3 DUP1 SLOAD PUSH2 0x525 SWAP1 PUSH2 0x23CE JUMP JUMPDEST DUP1 ISZERO PUSH2 0x572 JUMPI DUP1 PUSH1 0x1F LT PUSH2 0x547 JUMPI PUSH2 0x100 DUP1 DUP4 SLOAD DIV MUL DUP4 MSTORE SWAP2 PUSH1 0x20 ADD SWAP2 PUSH2 0x572 JUMP JUMPDEST DUP3 ADD SWAP2 SWAP1 PUSH1 0x0 MSTORE PUSH1 0x20 PUSH1 0x0 KECCAK256 SWAP1 JUMPDEST DUP2 SLOAD DUP2 MSTORE SWAP1 PUSH1 0x1 ADD SWAP1 PUSH1 0x20 ADD DUP1 DUP4 GT PUSH2 0x555 JUMPI DUP3 SWAP1 SUB PUSH1 0x1F AND DUP3 ADD SWAP2 JUMPDEST POP POP POP POP POP SWAP1 POP SWAP1 JUMP JUMPDEST PUSH1 0x0 PUSH2 0x587 DUP3 PUSH2 0xD71 JUMP JUMPDEST PUSH1 0x4 PUSH1 0x0 DUP4 DUP2 MSTORE PUSH1 0x20 ADD SWAP1 DUP2 MSTORE PUSH1 0x20 ADD PUSH1 0x0 KECCAK256 PUSH1 0x0 SWAP1 SLOAD SWAP1 PUSH2 0x100 EXP SWAP1 DIV PUSH20 0xFFFFFFFFFFFFFFFFFFFFFFFFFFFFFFFFFFFFFFFF AND SWAP1 POP SWAP2 SWAP1 POP JUMP JUMPDEST PUSH1 0x0 PUSH2 0x5CD DUP3 PUSH2 0x786 JUMP JUMPDEST SWAP1 POP DUP1 PUSH20 0xFFFFFFFFFFFFFFFFFFFFFFFFFFFFFFFFFFFFFFFF AND DUP4 PUSH20 0xFFFFFFFFFFFFFFFFFFFFFFFFFFFFFFFFFFFFFFFF AND EQ ISZERO PUSH2 0x63E JUMPI PUSH1 0x40 MLOAD PUSH32 0x8C379A000000000000000000000000000000000000000000000000000000000 DUP2 MSTORE PUSH1 0x4 ADD PUSH2 0x635 SWAP1 PUSH2 0x2174 JUMP JUMPDEST PUSH1 0x40 MLOAD DUP1 SWAP2 SUB SWAP1 REVERT JUMPDEST DUP1 PUSH20 0xFFFFFFFFFFFFFFFFFFFFFFFFFFFFFFFFFFFFFFFF AND PUSH2 0x65D PUSH2 0xDBC JUMP JUMPDEST PUSH20 0xFFFFFFFFFFFFFFFFFFFFFFFFFFFFFFFFFFFFFFFF AND EQ DUP1 PUSH2 0x68C JUMPI POP PUSH2 0x68B DUP2 PUSH2 0x686 PUSH2 0xDBC JUMP JUMPDEST PUSH2 0xB71 JUMP JUMPDEST JUMPDEST PUSH2 0x6CB JUMPI PUSH1 0x40 MLOAD PUSH32 0x8C379A000000000000000000000000000000000000000000000000000000000 DUP2 MSTORE PUSH1 0x4 ADD PUSH2 0x6C2 SWAP1 PUSH2 0x20F4 JUMP JUMPDEST PUSH1 0x40 MLOAD DUP1 SWAP2 SUB SWAP1 REVERT JUMPDEST PUSH2 0x6D5 DUP4 DUP4 PUSH2 0xDC4 JUMP JUMPDEST POP POP POP JUMP JUMPDEST PUSH2 0x6E6 CALLER PUSH1 0x8 SLOAD PUSH2 0xE7D JUMP JUMPDEST PUSH1 0x8 PUSH1 0x0 DUP2 SLOAD DUP1 SWAP3 SWAP2 SWAP1 PUSH2 0x6F9 SWAP1 PUSH2 0x2431 JUMP JUMPDEST SWAP2 SWAP1 POP SSTORE POP JUMP JUMPDEST PUSH2 0x711 PUSH2 0x70B PUSH2 0xDBC JUMP JUMPDEST DUP3 PUSH2 0xE9B JUMP JUMPDEST PUSH2 0x750 JUMPI PUSH1 0x40 MLOAD PUSH32 0x8C379A000000000000000000000000000000000000000000000000000000000 DUP2 MSTORE PUSH1 0x4 ADD PUSH2 0x747 SWAP1 PUSH2 0x2194 JUMP JUMPDEST PUSH1 0x40 MLOAD DUP1 SWAP2 SUB SWAP1 REVERT JUMPDEST PUSH2 0x75B DUP4 DUP4 DUP4 PUSH2 0xF30 JUMP JUMPDEST POP POP POP JUMP JUMPDEST PUSH1 0x8 SLOAD DUP2 JUMP JUMPDEST PUSH2 0x781 DUP4 DUP4 DUP4 PUSH1 0x40 MLOAD DUP1 PUSH1 0x20 ADD PUSH1 0x40 MSTORE DUP1 PUSH1 0x0 DUP2 MSTORE POP PUSH2 0xA72 JUMP JUMPDEST POP POP POP JUMP JUMPDEST PUSH1 0x0 DUP1 PUSH1 0x2 PUSH1 0x0 DUP5 DUP2 MSTORE PUSH1 0x20 ADD SWAP1 DUP2 MSTORE PUSH1 0x20 ADD PUSH1 0x0 KECCAK256 PUSH1 0x0 SWAP1 SLOAD SWAP1 PUSH2 0x100 EXP SWAP1 DIV PUSH20 0xFFFFFFFFFFFFFFFFFFFFFFFFFFFFFFFFFFFFFFFF AND SWAP1 POP PUSH1 0x0 PUSH20 0xFFFFFFFFFFFFFFFFFFFFFFFFFFFFFFFFFFFFFFFF AND DUP2 PUSH20 0xFFFFFFFFFFFFFFFFFFFFFFFFFFFFFFFFFFFFFFFF AND EQ ISZERO PUSH2 0x82F JUMPI PUSH1 0x40 MLOAD PUSH32 0x8C379A000000000000000000000000000000000000000000000000000000000 DUP2 MSTORE PUSH1 0x4 ADD PUSH2 0x826 SWAP1 PUSH2 0x2154 JUMP JUMPDEST PUSH1 0x40 MLOAD DUP1 SWAP2 SUB SWAP1 REVERT JUMPDEST DUP1 SWAP2 POP POP SWAP2 SWAP1 POP JUMP JUMPDEST PUSH1 0x7 DUP1 SLOAD PUSH2 0x845 SWAP1 PUSH2 0x23CE JUMP JUMPDEST DUP1 PUSH1 0x1F ADD PUSH1 0x20 DUP1 SWAP2 DIV MUL PUSH1 0x20 ADD PUSH1 0x40 MLOAD SWAP1 DUP2 ADD PUSH1 0x40 MSTORE DUP1 SWAP3 SWAP2 SWAP1 DUP2 DUP2 MSTORE PUSH1 0x20 ADD DUP3 DUP1 SLOAD PUSH2 0x871 SWAP1 PUSH2 0x23CE JUMP JUMPDEST DUP1 ISZERO PUSH2 0x8BE JUMPI DUP1 PUSH1 0x1F LT PUSH2 0x893 JUMPI PUSH2 0x100 DUP1 DUP4 SLOAD DIV MUL DUP4 MSTORE SWAP2 PUSH1 0x20 ADD SWAP2 PUSH2 0x8BE JUMP JUMPDEST DUP3 ADD SWAP2 SWAP1 PUSH1 0x0 MSTORE PUSH1 0x20 PUSH1 0x0 KECCAK256 SWAP1 JUMPDEST DUP2 SLOAD DUP2 MSTORE SWAP1 PUSH1 0x1 ADD SWAP1 PUSH1 0x20 ADD DUP1 DUP4 GT PUSH2 0x8A1 JUMPI DUP3 SWAP1 SUB PUSH1 0x1F AND DUP3 ADD SWAP2 JUMPDEST POP POP POP POP POP DUP2 JUMP JUMPDEST PUSH1 0x0 DUP1 PUSH20 0xFFFFFFFFFFFFFFFFFFFFFFFFFFFFFFFFFFFFFFFF AND DUP3 PUSH20 0xFFFFFFFFFFFFFFFFFFFFFFFFFFFFFFFFFFFFFFFF AND EQ ISZERO PUSH2 0x937 JUMPI PUSH1 0x40 MLOAD PUSH32 0x8C379A000000000000000000000000000000000000000000000000000000000 DUP2 MSTORE PUSH1 0x4 ADD PUSH2 0x92E SWAP1 PUSH2 0x20D4 JUMP JUMPDEST PUSH1 0x40 MLOAD DUP1 SWAP2 SUB SWAP1 REVERT JUMPDEST PUSH1 0x3 PUSH1 0x0 DUP4 PUSH20 0xFFFFFFFFFFFFFFFFFFFFFFFFFFFFFFFFFFFFFFFF AND PUSH20 0xFFFFFFFFFFFFFFFFFFFFFFFFFFFFFFFFFFFFFFFF AND DUP2 MSTORE PUSH1 0x20 ADD SWAP1 DUP2 MSTORE PUSH1 0x20 ADD PUSH1 0x0 KECCAK256 SLOAD SWAP1 POP SWAP2 SWAP1 POP JUMP JUMPDEST PUSH2 0x986 PUSH2 0xCF3 JUMP JUMPDEST PUSH2 0x990 PUSH1 0x0 PUSH2 0x1197 JUMP JUMPDEST JUMP JUMPDEST PUSH1 0x0 PUSH1 0x6 PUSH1 0x0 SWAP1 SLOAD SWAP1 PUSH2 0x100 EXP SWAP1 DIV PUSH20 0xFFFFFFFFFFFFFFFFFFFFFFFFFFFFFFFFFFFFFFFF AND SWAP1 POP SWAP1 JUMP JUMPDEST PUSH1 0x60 PUSH1 0x1 DUP1 SLOAD PUSH2 0x9CB SWAP1 PUSH2 0x23CE JUMP JUMPDEST DUP1 PUSH1 0x1F ADD PUSH1 0x20 DUP1 SWAP2 DIV MUL PUSH1 0x20 ADD PUSH1 0x40 MLOAD SWAP1 DUP2 ADD PUSH1 0x40 MSTORE DUP1 SWAP3 SWAP2 SWAP1 DUP2 DUP2 MSTORE PUSH1 0x20 ADD DUP3 DUP1 SLOAD PUSH2 0x9F7 SWAP1 PUSH2 0x23CE JUMP JUMPDEST DUP1 ISZERO PUSH2 0xA44 JUMPI DUP1 PUSH1 0x1F LT PUSH2 0xA19 JUMPI PUSH2 0x100 DUP1 DUP4 SLOAD DIV MUL DUP4 MSTORE SWAP2 PUSH1 0x20 ADD SWAP2 PUSH2 0xA44 JUMP JUMPDEST DUP3 ADD SWAP2 SWAP1 PUSH1 0x0 MSTORE PUSH1 0x20 PUSH1 0x0 KECCAK256 SWAP1 JUMPDEST DUP2 SLOAD DUP2 MSTORE SWAP1 PUSH1 0x1 ADD SWAP1 PUSH1 0x20 ADD DUP1 DUP4 GT PUSH2 0xA27 JUMPI DUP3 SWAP1 SUB PUSH1 0x1F AND DUP3 ADD SWAP2 JUMPDEST POP POP POP POP POP SWAP1 POP SWAP1 JUMP JUMPDEST PUSH2 0xA58 DUP3 DUP3 PUSH2 0xE7D JUMP JUMPDEST POP POP JUMP JUMPDEST PUSH2 0xA6E PUSH2 0xA67 PUSH2 0xDBC JUMP JUMPDEST DUP4 DUP4 PUSH2 0x125D JUMP JUMPDEST POP POP JUMP JUMPDEST PUSH2 0xA83 PUSH2 0xA7D PUSH2 0xDBC JUMP JUMPDEST DUP4 PUSH2 0xE9B JUMP JUMPDEST PUSH2 0xAC2 JUMPI PUSH1 0x40 MLOAD PUSH32 0x8C379A000000000000000000000000000000000000000000000000000000000 DUP2 MSTORE PUSH1 0x4 ADD PUSH2 0xAB9 SWAP1 PUSH2 0x2194 JUMP JUMPDEST PUSH1 0x40 MLOAD DUP1 SWAP2 SUB SWAP1 REVERT JUMPDEST PUSH2 0xACE DUP5 DUP5 DUP5 DUP5 PUSH2 0x13CA JUMP JUMPDEST POP POP POP POP JUMP JUMPDEST PUSH1 0x60 PUSH2 0xADF DUP3 PUSH2 0xD71 JUMP JUMPDEST PUSH1 0x7 DUP1 SLOAD PUSH2 0xAEC SWAP1 PUSH2 0x23CE JUMP JUMPDEST DUP1 PUSH1 0x1F ADD PUSH1 0x20 DUP1 SWAP2 DIV MUL PUSH1 0x20 ADD PUSH1 0x40 MLOAD SWAP1 DUP2 ADD PUSH1 0x40 MSTORE DUP1 SWAP3 SWAP2 SWAP1 DUP2 DUP2 MSTORE PUSH1 0x20 ADD DUP3 DUP1 SLOAD PUSH2 0xB18 SWAP1 PUSH2 0x23CE JUMP JUMPDEST DUP1 ISZERO PUSH2 0xB65 JUMPI DUP1 PUSH1 0x1F LT PUSH2 0xB3A JUMPI PUSH2 0x100 DUP1 DUP4 SLOAD DIV MUL DUP4 MSTORE SWAP2 PUSH1 0x20 ADD SWAP2 PUSH2 0xB65 JUMP JUMPDEST DUP3 ADD SWAP2 SWAP1 PUSH1 0x0 MSTORE PUSH1 0x20 PUSH1 0x0 KECCAK256 SWAP1 JUMPDEST DUP2 SLOAD DUP2 MSTORE SWAP1 PUSH1 0x1 ADD SWAP1 PUSH1 0x20 ADD DUP1 DUP4 GT PUSH2 0xB48 JUMPI DUP3 SWAP1 SUB PUSH1 0x1F AND DUP3 ADD SWAP2 JUMPDEST POP POP POP POP POP SWAP1 POP SWAP2 SWAP1 POP JUMP JUMPDEST PUSH1 0x0 PUSH1 0x5 PUSH1 0x0 DUP5 PUSH20 0xFFFFFFFFFFFFFFFFFFFFFFFFFFFFFFFFFFFFFFFF AND PUSH20 0xFFFFFFFFFFFFFFFFFFFFFFFFFFFFFFFFFFFFFFFF AND DUP2 MSTORE PUSH1 0x20 ADD SWAP1 DUP2 MSTORE PUSH1 0x20 ADD PUSH1 0x0 KECCAK256 PUSH1 0x0 DUP4 PUSH20 0xFFFFFFFFFFFFFFFFFFFFFFFFFFFFFFFFFFFFFFFF AND PUSH20 0xFFFFFFFFFFFFFFFFFFFFFFFFFFFFFFFFFFFFFFFF AND DUP2 MSTORE PUSH1 0x20 ADD SWAP1 DUP2 MSTORE PUSH1 0x20 ADD PUSH1 0x0 KECCAK256 PUSH1 0x0 SWAP1 SLOAD SWAP1 PUSH2 0x100 EXP SWAP1 DIV PUSH1 0xFF AND SWAP1 POP SWAP3 SWAP2 POP POP JUMP JUMPDEST PUSH2 0xC0D PUSH2 0xCF3 JUMP JUMPDEST PUSH1 0x0 PUSH20 0xFFFFFFFFFFFFFFFFFFFFFFFFFFFFFFFFFFFFFFFF AND DUP2 PUSH20 0xFFFFFFFFFFFFFFFFFFFFFFFFFFFFFFFFFFFFFFFF AND EQ ISZERO PUSH2 0xC7D JUMPI PUSH1 0x40 MLOAD PUSH32 0x8C379A000000000000000000000000000000000000000000000000000000000 DUP2 MSTORE PUSH1 0x4 ADD PUSH2 0xC74 SWAP1 PUSH2 0x2034 JUMP JUMPDEST PUSH1 0x40 MLOAD DUP1 SWAP2 SUB SWAP1 REVERT JUMPDEST PUSH2 0xC86 DUP2 PUSH2 0x1197 JUMP JUMPDEST POP JUMP JUMPDEST PUSH1 0x0 PUSH32 0x1FFC9A700000000000000000000000000000000000000000000000000000000 PUSH28 0xFFFFFFFFFFFFFFFFFFFFFFFFFFFFFFFFFFFFFFFFFFFFFFFFFFFFFFFF NOT AND DUP3 PUSH28 0xFFFFFFFFFFFFFFFFFFFFFFFFFFFFFFFFFFFFFFFFFFFFFFFFFFFFFFFF NOT AND EQ SWAP1 POP SWAP2 SWAP1 POP JUMP JUMPDEST PUSH2 0xCFB PUSH2 0xDBC JUMP JUMPDEST PUSH20 0xFFFFFFFFFFFFFFFFFFFFFFFFFFFFFFFFFFFFFFFF AND PUSH2 0xD19 PUSH2 0x992 JUMP JUMPDEST PUSH20 0xFFFFFFFFFFFFFFFFFFFFFFFFFFFFFFFFFFFFFFFF AND EQ PUSH2 0xD6F JUMPI PUSH1 0x40 MLOAD PUSH32 0x8C379A000000000000000000000000000000000000000000000000000000000 DUP2 MSTORE PUSH1 0x4 ADD PUSH2 0xD66 SWAP1 PUSH2 0x2134 JUMP JUMPDEST PUSH1 0x40 MLOAD DUP1 SWAP2 SUB SWAP1 REVERT JUMPDEST JUMP JUMPDEST PUSH2 0xD7A DUP2 PUSH2 0x1426 JUMP JUMPDEST PUSH2 0xDB9 JUMPI PUSH1 0x40 MLOAD PUSH32 0x8C379A000000000000000000000000000000000000000000000000000000000 DUP2 MSTORE PUSH1 0x4 ADD PUSH2 0xDB0 SWAP1 PUSH2 0x2154 JUMP JUMPDEST PUSH1 0x40 MLOAD DUP1 SWAP2 SUB SWAP1 REVERT JUMPDEST POP JUMP JUMPDEST PUSH1 0x0 CALLER SWAP1 POP SWAP1 JUMP JUMPDEST DUP2 PUSH1 0x4 PUSH1 0x0 DUP4 DUP2 MSTORE PUSH1 0x20 ADD SWAP1 DUP2 MSTORE PUSH1 0x20 ADD PUSH1 0x0 KECCAK256 PUSH1 0x0 PUSH2 0x100 EXP DUP2 SLOAD DUP2 PUSH20 0xFFFFFFFFFFFFFFFFFFFFFFFFFFFFFFFFFFFFFFFF MUL NOT AND SWAP1 DUP4 PUSH20 0xFFFFFFFFFFFFFFFFFFFFFFFFFFFFFFFFFFFFFFFF AND MUL OR SWAP1 SSTORE POP DUP1 DUP3 PUSH20 0xFFFFFFFFFFFFFFFFFFFFFFFFFFFFFFFFFFFFFFFF AND PUSH2 0xE37 DUP4 PUSH2 0x786 JUMP JUMPDEST PUSH20 0xFFFFFFFFFFFFFFFFFFFFFFFFFFFFFFFFFFFFFFFF AND PUSH32 0x8C5BE1E5EBEC7D5BD14F71427D1E84F3DD0314C0F7B2291E5B200AC8C7C3B925 PUSH1 0x40 MLOAD PUSH1 0x40 MLOAD DUP1 SWAP2 SUB SWAP1 LOG4 POP POP JUMP JUMPDEST PUSH2 0xE97 DUP3 DUP3 PUSH1 0x40 MLOAD DUP1 PUSH1 0x20 ADD PUSH1 0x40 MSTORE DUP1 PUSH1 0x0 DUP2 MSTORE POP PUSH2 0x1492 JUMP JUMPDEST POP POP JUMP JUMPDEST PUSH1 0x0 DUP1 PUSH2 0xEA7 DUP4 PUSH2 0x786 JUMP JUMPDEST SWAP1 POP DUP1 PUSH20 0xFFFFFFFFFFFFFFFFFFFFFFFFFFFFFFFFFFFFFFFF AND DUP5 PUSH20 0xFFFFFFFFFFFFFFFFFFFFFFFFFFFFFFFFFFFFFFFF AND EQ DUP1 PUSH2 0xEE9 JUMPI POP PUSH2 0xEE8 DUP2 DUP6 PUSH2 0xB71 JUMP JUMPDEST JUMPDEST DUP1 PUSH2 0xF27 JUMPI POP DUP4 PUSH20 0xFFFFFFFFFFFFFFFFFFFFFFFFFFFFFFFFFFFFFFFF AND PUSH2 0xF0F DUP5 PUSH2 0x57C JUMP JUMPDEST PUSH20 0xFFFFFFFFFFFFFFFFFFFFFFFFFFFFFFFFFFFFFFFF AND EQ JUMPDEST SWAP2 POP POP SWAP3 SWAP2 POP POP JUMP JUMPDEST DUP3 PUSH20 0xFFFFFFFFFFFFFFFFFFFFFFFFFFFFFFFFFFFFFFFF AND PUSH2 0xF50 DUP3 PUSH2 0x786 JUMP JUMPDEST PUSH20 0xFFFFFFFFFFFFFFFFFFFFFFFFFFFFFFFFFFFFFFFF AND EQ PUSH2 0xFA6 JUMPI PUSH1 0x40 MLOAD PUSH32 0x8C379A000000000000000000000000000000000000000000000000000000000 DUP2 MSTORE PUSH1 0x4 ADD PUSH2 0xF9D SWAP1 PUSH2 0x2054 JUMP JUMPDEST PUSH1 0x40 MLOAD DUP1 SWAP2 SUB SWAP1 REVERT JUMPDEST PUSH1 0x0 PUSH20 0xFFFFFFFFFFFFFFFFFFFFFFFFFFFFFFFFFFFFFFFF AND DUP3 PUSH20 0xFFFFFFFFFFFFFFFFFFFFFFFFFFFFFFFFFFFFFFFF AND EQ ISZERO PUSH2 0x1016 JUMPI PUSH1 0x40 MLOAD PUSH32 0x8C379A000000000000000000000000000000000000000000000000000000000 DUP2 MSTORE PUSH1 0x4 ADD PUSH2 0x100D SWAP1 PUSH2 0x2094 JUMP JUMPDEST PUSH1 0x40 MLOAD DUP1 SWAP2 SUB SWAP1 REVERT JUMPDEST PUSH2 0x1021 DUP4 DUP4 DUP4 PUSH2 0x14ED JUMP JUMPDEST PUSH2 0x102C PUSH1 0x0 DUP3 PUSH2 0xDC4 JUMP JUMPDEST PUSH1 0x1 PUSH1 0x3 PUSH1 0x0 DUP6 PUSH20 0xFFFFFFFFFFFFFFFFFFFFFFFFFFFFFFFFFFFFFFFF AND PUSH20 0xFFFFFFFFFFFFFFFFFFFFFFFFFFFFFFFFFFFFFFFF AND DUP2 MSTORE PUSH1 0x20 ADD SWAP1 DUP2 MSTORE PUSH1 0x20 ADD PUSH1 0x0 KECCAK256 PUSH1 0x0 DUP3 DUP3 SLOAD PUSH2 0x107C SWAP2 SWAP1 PUSH2 0x22E4 JUMP JUMPDEST SWAP3 POP POP DUP2 SWAP1 SSTORE POP PUSH1 0x1 PUSH1 0x3 PUSH1 0x0 DUP5 PUSH20 0xFFFFFFFFFFFFFFFFFFFFFFFFFFFFFFFFFFFFFFFF AND PUSH20 0xFFFFFFFFFFFFFFFFFFFFFFFFFFFFFFFFFFFFFFFF AND DUP2 MSTORE PUSH1 0x20 ADD SWAP1 DUP2 MSTORE PUSH1 0x20 ADD PUSH1 0x0 KECCAK256 PUSH1 0x0 DUP3 DUP3 SLOAD PUSH2 0x10D3 SWAP2 SWAP1 PUSH2 0x228E JUMP JUMPDEST SWAP3 POP POP DUP2 SWAP1 SSTORE POP DUP2 PUSH1 0x2 PUSH1 0x0 DUP4 DUP2 MSTORE PUSH1 0x20 ADD SWAP1 DUP2 MSTORE PUSH1 0x20 ADD PUSH1 0x0 KECCAK256 PUSH1 0x0 PUSH2 0x100 EXP DUP2 SLOAD DUP2 PUSH20 0xFFFFFFFFFFFFFFFFFFFFFFFFFFFFFFFFFFFFFFFF MUL NOT AND SWAP1 DUP4 PUSH20 0xFFFFFFFFFFFFFFFFFFFFFFFFFFFFFFFFFFFFFFFF AND MUL OR SWAP1 SSTORE POP DUP1 DUP3 PUSH20 0xFFFFFFFFFFFFFFFFFFFFFFFFFFFFFFFFFFFFFFFF AND DUP5 PUSH20 0xFFFFFFFFFFFFFFFFFFFFFFFFFFFFFFFFFFFFFFFF AND PUSH32 0xDDF252AD1BE2C89B69C2B068FC378DAA952BA7F163C4A11628F55A4DF523B3EF PUSH1 0x40 MLOAD PUSH1 0x40 MLOAD DUP1 SWAP2 SUB SWAP1 LOG4 PUSH2 0x1192 DUP4 DUP4 DUP4 PUSH2 0x14F2 JUMP JUMPDEST POP POP POP JUMP JUMPDEST PUSH1 0x0 PUSH1 0x6 PUSH1 0x0 SWAP1 SLOAD SWAP1 PUSH2 0x100 EXP SWAP1 DIV PUSH20 0xFFFFFFFFFFFFFFFFFFFFFFFFFFFFFFFFFFFFFFFF AND SWAP1 POP DUP2 PUSH1 0x6 PUSH1 0x0 PUSH2 0x100 EXP DUP2 SLOAD DUP2 PUSH20 0xFFFFFFFFFFFFFFFFFFFFFFFFFFFFFFFFFFFFFFFF MUL NOT AND SWAP1 DUP4 PUSH20 0xFFFFFFFFFFFFFFFFFFFFFFFFFFFFFFFFFFFFFFFF AND MUL OR SWAP1 SSTORE POP DUP2 PUSH20 0xFFFFFFFFFFFFFFFFFFFFFFFFFFFFFFFFFFFFFFFF AND DUP2 PUSH20 0xFFFFFFFFFFFFFFFFFFFFFFFFFFFFFFFFFFFFFFFF AND PUSH32 0x8BE0079C531659141344CD1FD0A4F28419497F9722A3DAAFE3B4186F6B6457E0 PUSH1 0x40 MLOAD PUSH1 0x40 MLOAD DUP1 SWAP2 SUB SWAP1 LOG3 POP POP JUMP JUMPDEST DUP2 PUSH20 0xFFFFFFFFFFFFFFFFFFFFFFFFFFFFFFFFFFFFFFFF AND DUP4 PUSH20 0xFFFFFFFFFFFFFFFFFFFFFFFFFFFFFFFFFFFFFFFF AND EQ ISZERO PUSH2 0x12CC JUMPI PUSH1 0x40 MLOAD PUSH32 0x8C379A000000000000000000000000000000000000000000000000000000000 DUP2 MSTORE PUSH1 0x4 ADD PUSH2 0x12C3 SWAP1 PUSH2 0x20B4 JUMP JUMPDEST PUSH1 0x40 MLOAD DUP1 SWAP2 SUB SWAP1 REVERT JUMPDEST DUP1 PUSH1 0x5 PUSH1 0x0 DUP6 PUSH20 0xFFFFFFFFFFFFFFFFFFFFFFFFFFFFFFFFFFFFFFFF AND PUSH20 0xFFFFFFFFFFFFFFFFFFFFFFFFFFFFFFFFFFFFFFFF AND DUP2 MSTORE PUSH1 0x20 ADD SWAP1 DUP2 MSTORE PUSH1 0x20 ADD PUSH1 0x0 KECCAK256 PUSH1 0x0 DUP5 PUSH20 0xFFFFFFFFFFFFFFFFFFFFFFFFFFFFFFFFFFFFFFFF AND PUSH20 0xFFFFFFFFFFFFFFFFFFFFFFFFFFFFFFFFFFFFFFFF AND DUP2 MSTORE PUSH1 0x20 ADD SWAP1 DUP2 MSTORE PUSH1 0x20 ADD PUSH1 0x0 KECCAK256 PUSH1 0x0 PUSH2 0x100 EXP DUP2 SLOAD DUP2 PUSH1 0xFF MUL NOT AND SWAP1 DUP4 ISZERO ISZERO MUL OR SWAP1 SSTORE POP DUP2 PUSH20 0xFFFFFFFFFFFFFFFFFFFFFFFFFFFFFFFFFFFFFFFF AND DUP4 PUSH20 0xFFFFFFFFFFFFFFFFFFFFFFFFFFFFFFFFFFFFFFFF AND PUSH32 0x17307EAB39AB6107E8899845AD3D59BD9653F200F220920489CA2B5937696C31 DUP4 PUSH1 0x40 MLOAD PUSH2 0x13BD SWAP2 SWAP1 PUSH2 0x1FD7 JUMP JUMPDEST PUSH1 0x40 MLOAD DUP1 SWAP2 SUB SWAP1 LOG3 POP POP POP JUMP JUMPDEST PUSH2 0x13D5 DUP5 DUP5 DUP5 PUSH2 0xF30 JUMP JUMPDEST PUSH2 0x13E1 DUP5 DUP5 DUP5 DUP5 PUSH2 0x14F7 JUMP JUMPDEST PUSH2 0x1420 JUMPI PUSH1 0x40 MLOAD PUSH32 0x8C379A000000000000000000000000000000000000000000000000000000000 DUP2 MSTORE PUSH1 0x4 ADD PUSH2 0x1417 SWAP1 PUSH2 0x2014 JUMP JUMPDEST PUSH1 0x40 MLOAD DUP1 SWAP2 SUB SWAP1 REVERT JUMPDEST POP POP POP POP JUMP JUMPDEST PUSH1 0x0 DUP1 PUSH20 0xFFFFFFFFFFFFFFFFFFFFFFFFFFFFFFFFFFFFFFFF AND PUSH1 0x2 PUSH1 0x0 DUP5 DUP2 MSTORE PUSH1 0x20 ADD SWAP1 DUP2 MSTORE PUSH1 0x20 ADD PUSH1 0x0 KECCAK256 PUSH1 0x0 SWAP1 SLOAD SWAP1 PUSH2 0x100 EXP SWAP1 DIV PUSH20 0xFFFFFFFFFFFFFFFFFFFFFFFFFFFFFFFFFFFFFFFF AND PUSH20 0xFFFFFFFFFFFFFFFFFFFFFFFFFFFFFFFFFFFFFFFF AND EQ ISZERO SWAP1 POP SWAP2 SWAP1 POP JUMP JUMPDEST PUSH2 0x149C DUP4 DUP4 PUSH2 0x168E JUMP JUMPDEST PUSH2 0x14A9 PUSH1 0x0 DUP5 DUP5 DUP5 PUSH2 0x14F7 JUMP JUMPDEST PUSH2 0x14E8 JUMPI PUSH1 0x40 MLOAD PUSH32 0x8C379A000000000000000000000000000000000000000000000000000000000 DUP2 MSTORE PUSH1 0x4 ADD PUSH2 0x14DF SWAP1 PUSH2 0x2014 JUMP JUMPDEST PUSH1 0x40 MLOAD DUP1 SWAP2 SUB SWAP1 REVERT JUMPDEST POP POP POP JUMP JUMPDEST POP POP POP JUMP JUMPDEST POP POP POP JUMP JUMPDEST PUSH1 0x0 PUSH2 0x1518 DUP5 PUSH20 0xFFFFFFFFFFFFFFFFFFFFFFFFFFFFFFFFFFFFFFFF AND PUSH2 0x1868 JUMP JUMPDEST ISZERO PUSH2 0x1681 JUMPI DUP4 PUSH20 0xFFFFFFFFFFFFFFFFFFFFFFFFFFFFFFFFFFFFFFFF AND PUSH4 0x150B7A02 PUSH2 0x1541 PUSH2 0xDBC JUMP JUMPDEST DUP8 DUP7 DUP7 PUSH1 0x40 MLOAD DUP6 PUSH4 0xFFFFFFFF AND PUSH1 0xE0 SHL DUP2 MSTORE PUSH1 0x4 ADD PUSH2 0x1563 SWAP5 SWAP4 SWAP3 SWAP2 SWAP1 PUSH2 0x1F8B JUMP JUMPDEST PUSH1 0x20 PUSH1 0x40 MLOAD DUP1 DUP4 SUB DUP2 PUSH1 0x0 DUP8 DUP1 EXTCODESIZE ISZERO DUP1 ISZERO PUSH2 0x157D JUMPI PUSH1 0x0 DUP1 REVERT JUMPDEST POP GAS CALL SWAP3 POP POP POP DUP1 ISZERO PUSH2 0x15AE JUMPI POP PUSH1 0x40 MLOAD RETURNDATASIZE PUSH1 0x1F NOT PUSH1 0x1F DUP3 ADD AND DUP3 ADD DUP1 PUSH1 0x40 MSTORE POP DUP2 ADD SWAP1 PUSH2 0x15AB SWAP2 SWAP1 PUSH2 0x1C67 JUMP JUMPDEST PUSH1 0x1 JUMPDEST PUSH2 0x1631 JUMPI RETURNDATASIZE DUP1 PUSH1 0x0 DUP2 EQ PUSH2 0x15DE JUMPI PUSH1 0x40 MLOAD SWAP2 POP PUSH1 0x1F NOT PUSH1 0x3F RETURNDATASIZE ADD AND DUP3 ADD PUSH1 0x40 MSTORE RETURNDATASIZE DUP3 MSTORE RETURNDATASIZE PUSH1 0x0 PUSH1 0x20 DUP5 ADD RETURNDATACOPY PUSH2 0x15E3 JUMP JUMPDEST PUSH1 0x60 SWAP2 POP JUMPDEST POP PUSH1 0x0 DUP2 MLOAD EQ ISZERO PUSH2 0x1629 JUMPI PUSH1 0x40 MLOAD PUSH32 0x8C379A000000000000000000000000000000000000000000000000000000000 DUP2 MSTORE PUSH1 0x4 ADD PUSH2 0x1620 SWAP1 PUSH2 0x2014 JUMP JUMPDEST PUSH1 0x40 MLOAD DUP1 SWAP2 SUB SWAP1 REVERT JUMPDEST DUP1 MLOAD DUP2 PUSH1 0x20 ADD REVERT JUMPDEST PUSH4 0x150B7A02 PUSH1 0xE0 SHL PUSH28 0xFFFFFFFFFFFFFFFFFFFFFFFFFFFFFFFFFFFFFFFFFFFFFFFFFFFFFFFF NOT AND DUP2 PUSH28 0xFFFFFFFFFFFFFFFFFFFFFFFFFFFFFFFFFFFFFFFFFFFFFFFFFFFFFFFF NOT AND EQ SWAP2 POP POP PUSH2 0x1686 JUMP JUMPDEST PUSH1 0x1 SWAP1 POP JUMPDEST SWAP5 SWAP4 POP POP POP POP JUMP JUMPDEST PUSH1 0x0 PUSH20 0xFFFFFFFFFFFFFFFFFFFFFFFFFFFFFFFFFFFFFFFF AND DUP3 PUSH20 0xFFFFFFFFFFFFFFFFFFFFFFFFFFFFFFFFFFFFFFFF AND EQ ISZERO PUSH2 0x16FE JUMPI PUSH1 0x40 MLOAD PUSH32 0x8C379A000000000000000000000000000000000000000000000000000000000 DUP2 MSTORE PUSH1 0x4 ADD PUSH2 0x16F5 SWAP1 PUSH2 0x2114 JUMP JUMPDEST PUSH1 0x40 MLOAD DUP1 SWAP2 SUB SWAP1 REVERT JUMPDEST PUSH2 0x1707 DUP2 PUSH2 0x1426 JUMP JUMPDEST ISZERO PUSH2 0x1747 JUMPI PUSH1 0x40 MLOAD PUSH32 0x8C379A000000000000000000000000000000000000000000000000000000000 DUP2 MSTORE PUSH1 0x4 ADD PUSH2 0x173E SWAP1 PUSH2 0x2074 JUMP JUMPDEST PUSH1 0x40 MLOAD DUP1 SWAP2 SUB SWAP1 REVERT JUMPDEST PUSH2 0x1753 PUSH1 0x0 DUP4 DUP4 PUSH2 0x14ED JUMP JUMPDEST PUSH1 0x1 PUSH1 0x3 PUSH1 0x0 DUP5 PUSH20 0xFFFFFFFFFFFFFFFFFFFFFFFFFFFFFFFFFFFFFFFF AND PUSH20 0xFFFFFFFFFFFFFFFFFFFFFFFFFFFFFFFFFFFFFFFF AND DUP2 MSTORE PUSH1 0x20 ADD SWAP1 DUP2 MSTORE PUSH1 0x20 ADD PUSH1 0x0 KECCAK256 PUSH1 0x0 DUP3 DUP3 SLOAD PUSH2 0x17A3 SWAP2 SWAP1 PUSH2 0x228E JUMP JUMPDEST SWAP3 POP POP DUP2 SWAP1 SSTORE POP DUP2 PUSH1 0x2 PUSH1 0x0 DUP4 DUP2 MSTORE PUSH1 0x20 ADD SWAP1 DUP2 MSTORE PUSH1 0x20 ADD PUSH1 0x0 KECCAK256 PUSH1 0x0 PUSH2 0x100 EXP DUP2 SLOAD DUP2 PUSH20 0xFFFFFFFFFFFFFFFFFFFFFFFFFFFFFFFFFFFFFFFF MUL NOT AND SWAP1 DUP4 PUSH20 0xFFFFFFFFFFFFFFFFFFFFFFFFFFFFFFFFFFFFFFFF AND MUL OR SWAP1 SSTORE POP DUP1 DUP3 PUSH20 0xFFFFFFFFFFFFFFFFFFFFFFFFFFFFFFFFFFFFFFFF AND PUSH1 0x0 PUSH20 0xFFFFFFFFFFFFFFFFFFFFFFFFFFFFFFFFFFFFFFFF AND PUSH32 0xDDF252AD1BE2C89B69C2B068FC378DAA952BA7F163C4A11628F55A4DF523B3EF PUSH1 0x40 MLOAD PUSH1 0x40 MLOAD DUP1 SWAP2 SUB SWAP1 LOG4 PUSH2 0x1864 PUSH1 0x0 DUP4 DUP4 PUSH2 0x14F2 JUMP JUMPDEST POP POP JUMP JUMPDEST PUSH1 0x0 DUP1 DUP3 PUSH20 0xFFFFFFFFFFFFFFFFFFFFFFFFFFFFFFFFFFFFFFFF AND EXTCODESIZE GT SWAP1 POP SWAP2 SWAP1 POP JUMP JUMPDEST DUP3 DUP1 SLOAD PUSH2 0x1897 SWAP1 PUSH2 0x23CE JUMP JUMPDEST SWAP1 PUSH1 0x0 MSTORE PUSH1 0x20 PUSH1 0x0 KECCAK256 SWAP1 PUSH1 0x1F ADD PUSH1 0x20 SWAP1 DIV DUP2 ADD SWAP3 DUP3 PUSH2 0x18B9 JUMPI PUSH1 0x0 DUP6 SSTORE PUSH2 0x1900 JUMP JUMPDEST DUP3 PUSH1 0x1F LT PUSH2 0x18D2 JUMPI DUP1 MLOAD PUSH1 0xFF NOT AND DUP4 DUP1 ADD OR DUP6 SSTORE PUSH2 0x1900 JUMP JUMPDEST DUP3 DUP1 ADD PUSH1 0x1 ADD DUP6 SSTORE DUP3 ISZERO PUSH2 0x1900 JUMPI SWAP2 DUP3 ADD JUMPDEST DUP3 DUP2 GT ISZERO PUSH2 0x18FF JUMPI DUP3 MLOAD DUP3 SSTORE SWAP2 PUSH1 0x20 ADD SWAP2 SWAP1 PUSH1 0x1 ADD SWAP1 PUSH2 0x18E4 JUMP JUMPDEST JUMPDEST POP SWAP1 POP PUSH2 0x190D SWAP2 SWAP1 PUSH2 0x1911 JUMP JUMPDEST POP SWAP1 JUMP JUMPDEST JUMPDEST DUP1 DUP3 GT ISZERO PUSH2 0x192A JUMPI PUSH1 0x0 DUP2 PUSH1 0x0 SWAP1 SSTORE POP PUSH1 0x1 ADD PUSH2 0x1912 JUMP JUMPDEST POP SWAP1 JUMP JUMPDEST PUSH1 0x0 PUSH2 0x1941 PUSH2 0x193C DUP5 PUSH2 0x21F4 JUMP JUMPDEST PUSH2 0x21CF JUMP JUMPDEST SWAP1 POP DUP3 DUP2 MSTORE PUSH1 0x20 DUP2 ADD DUP5 DUP5 DUP5 ADD GT ISZERO PUSH2 0x195D JUMPI PUSH2 0x195C PUSH2 0x250C JUMP JUMPDEST JUMPDEST PUSH2 0x1968 DUP5 DUP3 DUP6 PUSH2 0x238C JUMP JUMPDEST POP SWAP4 SWAP3 POP POP POP JUMP JUMPDEST PUSH1 0x0 PUSH2 0x1983 PUSH2 0x197E DUP5 PUSH2 0x2225 JUMP JUMPDEST PUSH2 0x21CF JUMP JUMPDEST SWAP1 POP DUP3 DUP2 MSTORE PUSH1 0x20 DUP2 ADD DUP5 DUP5 DUP5 ADD GT ISZERO PUSH2 0x199F JUMPI PUSH2 0x199E PUSH2 0x250C JUMP JUMPDEST JUMPDEST PUSH2 0x19AA DUP5 DUP3 DUP6 PUSH2 0x238C JUMP JUMPDEST POP SWAP4 SWAP3 POP POP POP JUMP JUMPDEST PUSH1 0x0 DUP2 CALLDATALOAD SWAP1 POP PUSH2 0x19C1 DUP2 PUSH2 0x2871 JUMP JUMPDEST SWAP3 SWAP2 POP POP JUMP JUMPDEST PUSH1 0x0 DUP2 CALLDATALOAD SWAP1 POP PUSH2 0x19D6 DUP2 PUSH2 0x2888 JUMP JUMPDEST SWAP3 SWAP2 POP POP JUMP JUMPDEST PUSH1 0x0 DUP2 CALLDATALOAD SWAP1 POP PUSH2 0x19EB DUP2 PUSH2 0x289F JUMP JUMPDEST SWAP3 SWAP2 POP POP JUMP JUMPDEST PUSH1 0x0 DUP2 MLOAD SWAP1 POP PUSH2 0x1A00 DUP2 PUSH2 0x289F JUMP JUMPDEST SWAP3 SWAP2 POP POP JUMP JUMPDEST PUSH1 0x0 DUP3 PUSH1 0x1F DUP4 ADD SLT PUSH2 0x1A1B JUMPI PUSH2 0x1A1A PUSH2 0x2507 JUMP JUMPDEST JUMPDEST DUP2 CALLDATALOAD PUSH2 0x1A2B DUP5 DUP3 PUSH1 0x20 DUP7 ADD PUSH2 0x192E JUMP JUMPDEST SWAP2 POP POP SWAP3 SWAP2 POP POP JUMP JUMPDEST PUSH1 0x0 DUP3 PUSH1 0x1F DUP4 ADD SLT PUSH2 0x1A49 JUMPI PUSH2 0x1A48 PUSH2 0x2507 JUMP JUMPDEST JUMPDEST DUP2 CALLDATALOAD PUSH2 0x1A59 DUP5 DUP3 PUSH1 0x20 DUP7 ADD PUSH2 0x1970 JUMP JUMPDEST SWAP2 POP POP SWAP3 SWAP2 POP POP JUMP JUMPDEST PUSH1 0x0 DUP2 CALLDATALOAD SWAP1 POP PUSH2 0x1A71 DUP2 PUSH2 0x28B6 JUMP JUMPDEST SWAP3 SWAP2 POP POP JUMP JUMPDEST PUSH1 0x0 PUSH1 0x20 DUP3 DUP5 SUB SLT ISZERO PUSH2 0x1A8D JUMPI PUSH2 0x1A8C PUSH2 0x2516 JUMP JUMPDEST JUMPDEST PUSH1 0x0 PUSH2 0x1A9B DUP5 DUP3 DUP6 ADD PUSH2 0x19B2 JUMP JUMPDEST SWAP2 POP POP SWAP3 SWAP2 POP POP JUMP JUMPDEST PUSH1 0x0 DUP1 PUSH1 0x40 DUP4 DUP6 SUB SLT ISZERO PUSH2 0x1ABB JUMPI PUSH2 0x1ABA PUSH2 0x2516 JUMP JUMPDEST JUMPDEST PUSH1 0x0 PUSH2 0x1AC9 DUP6 DUP3 DUP7 ADD PUSH2 0x19B2 JUMP JUMPDEST SWAP3 POP POP PUSH1 0x20 PUSH2 0x1ADA DUP6 DUP3 DUP7 ADD PUSH2 0x19B2 JUMP JUMPDEST SWAP2 POP POP SWAP3 POP SWAP3 SWAP1 POP JUMP JUMPDEST PUSH1 0x0 DUP1 PUSH1 0x0 PUSH1 0x60 DUP5 DUP7 SUB SLT ISZERO PUSH2 0x1AFD JUMPI PUSH2 0x1AFC PUSH2 0x2516 JUMP JUMPDEST JUMPDEST PUSH1 0x0 PUSH2 0x1B0B DUP7 DUP3 DUP8 ADD PUSH2 0x19B2 JUMP JUMPDEST SWAP4 POP POP PUSH1 0x20 PUSH2 0x1B1C DUP7 DUP3 DUP8 ADD PUSH2 0x19B2 JUMP JUMPDEST SWAP3 POP POP PUSH1 0x40 PUSH2 0x1B2D DUP7 DUP3 DUP8 ADD PUSH2 0x1A62 JUMP JUMPDEST SWAP2 POP POP SWAP3 POP SWAP3 POP SWAP3 JUMP JUMPDEST PUSH1 0x0 DUP1 PUSH1 0x0 DUP1 PUSH1 0x80 DUP6 DUP8 SUB SLT ISZERO PUSH2 0x1B51 JUMPI PUSH2 0x1B50 PUSH2 0x2516 JUMP JUMPDEST JUMPDEST PUSH1 0x0 PUSH2 0x1B5F DUP8 DUP3 DUP9 ADD PUSH2 0x19B2 JUMP JUMPDEST SWAP5 POP POP PUSH1 0x20 PUSH2 0x1B70 DUP8 DUP3 DUP9 ADD PUSH2 0x19B2 JUMP JUMPDEST SWAP4 POP POP PUSH1 0x40 PUSH2 0x1B81 DUP8 DUP3 DUP9 ADD PUSH2 0x1A62 JUMP JUMPDEST SWAP3 POP POP PUSH1 0x60 DUP6 ADD CALLDATALOAD PUSH8 0xFFFFFFFFFFFFFFFF DUP2 GT ISZERO PUSH2 0x1BA2 JUMPI PUSH2 0x1BA1 PUSH2 0x2511 JUMP JUMPDEST JUMPDEST PUSH2 0x1BAE DUP8 DUP3 DUP9 ADD PUSH2 0x1A06 JUMP JUMPDEST SWAP2 POP POP SWAP3 SWAP6 SWAP2 SWAP5 POP SWAP3 POP JUMP JUMPDEST PUSH1 0x0 DUP1 PUSH1 0x40 DUP4 DUP6 SUB SLT ISZERO PUSH2 0x1BD1 JUMPI PUSH2 0x1BD0 PUSH2 0x2516 JUMP JUMPDEST JUMPDEST PUSH1 0x0 PUSH2 0x1BDF DUP6 DUP3 DUP7 ADD PUSH2 0x19B2 JUMP JUMPDEST SWAP3 POP POP PUSH1 0x20 PUSH2 0x1BF0 DUP6 DUP3 DUP7 ADD PUSH2 0x19C7 JUMP JUMPDEST SWAP2 POP POP SWAP3 POP SWAP3 SWAP1 POP JUMP JUMPDEST PUSH1 0x0 DUP1 PUSH1 0x40 DUP4 DUP6 SUB SLT ISZERO PUSH2 0x1C11 JUMPI PUSH2 0x1C10 PUSH2 0x2516 JUMP JUMPDEST JUMPDEST PUSH1 0x0 PUSH2 0x1C1F DUP6 DUP3 DUP7 ADD PUSH2 0x19B2 JUMP JUMPDEST SWAP3 POP POP PUSH1 0x20 PUSH2 0x1C30 DUP6 DUP3 DUP7 ADD PUSH2 0x1A62 JUMP JUMPDEST SWAP2 POP POP SWAP3 POP SWAP3 SWAP1 POP JUMP JUMPDEST PUSH1 0x0 PUSH1 0x20 DUP3 DUP5 SUB SLT ISZERO PUSH2 0x1C50 JUMPI PUSH2 0x1C4F PUSH2 0x2516 JUMP JUMPDEST JUMPDEST PUSH1 0x0 PUSH2 0x1C5E DUP5 DUP3 DUP6 ADD PUSH2 0x19DC JUMP JUMPDEST SWAP2 POP POP SWAP3 SWAP2 POP POP JUMP JUMPDEST PUSH1 0x0 PUSH1 0x20 DUP3 DUP5 SUB SLT ISZERO PUSH2 0x1C7D JUMPI PUSH2 0x1C7C PUSH2 0x2516 JUMP JUMPDEST JUMPDEST PUSH1 0x0 PUSH2 0x1C8B DUP5 DUP3 DUP6 ADD PUSH2 0x19F1 JUMP JUMPDEST SWAP2 POP POP SWAP3 SWAP2 POP POP JUMP JUMPDEST PUSH1 0x0 PUSH1 0x20 DUP3 DUP5 SUB SLT ISZERO PUSH2 0x1CAA JUMPI PUSH2 0x1CA9 PUSH2 0x2516 JUMP JUMPDEST JUMPDEST PUSH1 0x0 DUP3 ADD CALLDATALOAD PUSH8 0xFFFFFFFFFFFFFFFF DUP2 GT ISZERO PUSH2 0x1CC8 JUMPI PUSH2 0x1CC7 PUSH2 0x2511 JUMP JUMPDEST JUMPDEST PUSH2 0x1CD4 DUP5 DUP3 DUP6 ADD PUSH2 0x1A34 JUMP JUMPDEST SWAP2 POP POP SWAP3 SWAP2 POP POP JUMP JUMPDEST PUSH1 0x0 PUSH1 0x20 DUP3 DUP5 SUB SLT ISZERO PUSH2 0x1CF3 JUMPI PUSH2 0x1CF2 PUSH2 0x2516 JUMP JUMPDEST JUMPDEST PUSH1 0x0 PUSH2 0x1D01 DUP5 DUP3 DUP6 ADD PUSH2 0x1A62 JUMP JUMPDEST SWAP2 POP POP SWAP3 SWAP2 POP POP JUMP JUMPDEST PUSH2 0x1D13 DUP2 PUSH2 0x2318 JUMP JUMPDEST DUP3 MSTORE POP POP JUMP JUMPDEST PUSH2 0x1D22 DUP2 PUSH2 0x232A JUMP JUMPDEST DUP3 MSTORE POP POP JUMP JUMPDEST PUSH1 0x0 PUSH2 0x1D33 DUP3 PUSH2 0x2256 JUMP JUMPDEST PUSH2 0x1D3D DUP2 DUP6 PUSH2 0x226C JUMP JUMPDEST SWAP4 POP PUSH2 0x1D4D DUP2 DUP6 PUSH1 0x20 DUP7 ADD PUSH2 0x239B JUMP JUMPDEST PUSH2 0x1D56 DUP2 PUSH2 0x251B JUMP JUMPDEST DUP5 ADD SWAP2 POP POP SWAP3 SWAP2 POP POP JUMP JUMPDEST PUSH1 0x0 PUSH2 0x1D6C DUP3 PUSH2 0x2261 JUMP JUMPDEST PUSH2 0x1D76 DUP2 DUP6 PUSH2 0x227D JUMP JUMPDEST SWAP4 POP PUSH2 0x1D86 DUP2 DUP6 PUSH1 0x20 DUP7 ADD PUSH2 0x239B JUMP JUMPDEST PUSH2 0x1D8F DUP2 PUSH2 0x251B JUMP JUMPDEST DUP5 ADD SWAP2 POP POP SWAP3 SWAP2 POP POP JUMP JUMPDEST PUSH1 0x0 PUSH2 0x1DA7 PUSH1 0x32 DUP4 PUSH2 0x227D JUMP JUMPDEST SWAP2 POP PUSH2 0x1DB2 DUP3 PUSH2 0x252C JUMP JUMPDEST PUSH1 0x40 DUP3 ADD SWAP1 POP SWAP2 SWAP1 POP JUMP JUMPDEST PUSH1 0x0 PUSH2 0x1DCA PUSH1 0x26 DUP4 PUSH2 0x227D JUMP JUMPDEST SWAP2 POP PUSH2 0x1DD5 DUP3 PUSH2 0x257B JUMP JUMPDEST PUSH1 0x40 DUP3 ADD SWAP1 POP SWAP2 SWAP1 POP JUMP JUMPDEST PUSH1 0x0 PUSH2 0x1DED PUSH1 0x25 DUP4 PUSH2 0x227D JUMP JUMPDEST SWAP2 POP PUSH2 0x1DF8 DUP3 PUSH2 0x25CA JUMP JUMPDEST PUSH1 0x40 DUP3 ADD SWAP1 POP SWAP2 SWAP1 POP JUMP JUMPDEST PUSH1 0x0 PUSH2 0x1E10 PUSH1 0x1C DUP4 PUSH2 0x227D JUMP JUMPDEST SWAP2 POP PUSH2 0x1E1B DUP3 PUSH2 0x2619 JUMP JUMPDEST PUSH1 0x20 DUP3 ADD SWAP1 POP SWAP2 SWAP1 POP JUMP JUMPDEST PUSH1 0x0 PUSH2 0x1E33 PUSH1 0x24 DUP4 PUSH2 0x227D JUMP JUMPDEST SWAP2 POP PUSH2 0x1E3E DUP3 PUSH2 0x2642 JUMP JUMPDEST PUSH1 0x40 DUP3 ADD SWAP1 POP SWAP2 SWAP1 POP JUMP JUMPDEST PUSH1 0x0 PUSH2 0x1E56 PUSH1 0x19 DUP4 PUSH2 0x227D JUMP JUMPDEST SWAP2 POP PUSH2 0x1E61 DUP3 PUSH2 0x2691 JUMP JUMPDEST PUSH1 0x20 DUP3 ADD SWAP1 POP SWAP2 SWAP1 POP JUMP JUMPDEST PUSH1 0x0 PUSH2 0x1E79 PUSH1 0x29 DUP4 PUSH2 0x227D JUMP JUMPDEST SWAP2 POP PUSH2 0x1E84 DUP3 PUSH2 0x26BA JUMP JUMPDEST PUSH1 0x40 DUP3 ADD SWAP1 POP SWAP2 SWAP1 POP JUMP JUMPDEST PUSH1 0x0 PUSH2 0x1E9C PUSH1 0x3E DUP4 PUSH2 0x227D JUMP JUMPDEST SWAP2 POP PUSH2 0x1EA7 DUP3 PUSH2 0x2709 JUMP JUMPDEST PUSH1 0x40 DUP3 ADD SWAP1 POP SWAP2 SWAP1 POP JUMP JUMPDEST PUSH1 0x0 PUSH2 0x1EBF PUSH1 0x20 DUP4 PUSH2 0x227D JUMP JUMPDEST SWAP2 POP PUSH2 0x1ECA DUP3 PUSH2 0x2758 JUMP JUMPDEST PUSH1 0x20 DUP3 ADD SWAP1 POP SWAP2 SWAP1 POP JUMP JUMPDEST PUSH1 0x0 PUSH2 0x1EE2 PUSH1 0x20 DUP4 PUSH2 0x227D JUMP JUMPDEST SWAP2 POP PUSH2 0x1EED DUP3 PUSH2 0x2781 JUMP JUMPDEST PUSH1 0x20 DUP3 ADD SWAP1 POP SWAP2 SWAP1 POP JUMP JUMPDEST PUSH1 0x0 PUSH2 0x1F05 PUSH1 0x18 DUP4 PUSH2 0x227D JUMP JUMPDEST SWAP2 POP PUSH2 0x1F10 DUP3 PUSH2 0x27AA JUMP JUMPDEST PUSH1 0x20 DUP3 ADD SWAP1 POP SWAP2 SWAP1 POP JUMP JUMPDEST PUSH1 0x0 PUSH2 0x1F28 PUSH1 0x21 DUP4 PUSH2 0x227D JUMP JUMPDEST SWAP2 POP PUSH2 0x1F33 DUP3 PUSH2 0x27D3 JUMP JUMPDEST PUSH1 0x40 DUP3 ADD SWAP1 POP SWAP2 SWAP1 POP JUMP JUMPDEST PUSH1 0x0 PUSH2 0x1F4B PUSH1 0x2E DUP4 PUSH2 0x227D JUMP JUMPDEST SWAP2 POP PUSH2 0x1F56 DUP3 PUSH2 0x2822 JUMP JUMPDEST PUSH1 0x40 DUP3 ADD SWAP1 POP SWAP2 SWAP1 POP JUMP JUMPDEST PUSH2 0x1F6A DUP2 PUSH2 0x2382 JUMP JUMPDEST DUP3 MSTORE POP POP JUMP JUMPDEST PUSH1 0x0 PUSH1 0x20 DUP3 ADD SWAP1 POP PUSH2 0x1F85 PUSH1 0x0 DUP4 ADD DUP5 PUSH2 0x1D0A JUMP JUMPDEST SWAP3 SWAP2 POP POP JUMP JUMPDEST PUSH1 0x0 PUSH1 0x80 DUP3 ADD SWAP1 POP PUSH2 0x1FA0 PUSH1 0x0 DUP4 ADD DUP8 PUSH2 0x1D0A JUMP JUMPDEST PUSH2 0x1FAD PUSH1 0x20 DUP4 ADD DUP7 PUSH2 0x1D0A JUMP JUMPDEST PUSH2 0x1FBA PUSH1 0x40 DUP4 ADD DUP6 PUSH2 0x1F61 JUMP JUMPDEST DUP2 DUP2 SUB PUSH1 0x60 DUP4 ADD MSTORE PUSH2 0x1FCC DUP2 DUP5 PUSH2 0x1D28 JUMP JUMPDEST SWAP1 POP SWAP6 SWAP5 POP POP POP POP POP JUMP JUMPDEST PUSH1 0x0 PUSH1 0x20 DUP3 ADD SWAP1 POP PUSH2 0x1FEC PUSH1 0x0 DUP4 ADD DUP5 PUSH2 0x1D19 JUMP JUMPDEST SWAP3 SWAP2 POP POP JUMP JUMPDEST PUSH1 0x0 PUSH1 0x20 DUP3 ADD SWAP1 POP DUP2 DUP2 SUB PUSH1 0x0 DUP4 ADD MSTORE PUSH2 0x200C DUP2 DUP5 PUSH2 0x1D61 JUMP JUMPDEST SWAP1 POP SWAP3 SWAP2 POP POP JUMP JUMPDEST PUSH1 0x0 PUSH1 0x20 DUP3 ADD SWAP1 POP DUP2 DUP2 SUB PUSH1 0x0 DUP4 ADD MSTORE PUSH2 0x202D DUP2 PUSH2 0x1D9A JUMP JUMPDEST SWAP1 POP SWAP2 SWAP1 POP JUMP JUMPDEST PUSH1 0x0 PUSH1 0x20 DUP3 ADD SWAP1 POP DUP2 DUP2 SUB PUSH1 0x0 DUP4 ADD MSTORE PUSH2 0x204D DUP2 PUSH2 0x1DBD JUMP JUMPDEST SWAP1 POP SWAP2 SWAP1 POP JUMP JUMPDEST PUSH1 0x0 PUSH1 0x20 DUP3 ADD SWAP1 POP DUP2 DUP2 SUB PUSH1 0x0 DUP4 ADD MSTORE PUSH2 0x206D DUP2 PUSH2 0x1DE0 JUMP JUMPDEST SWAP1 POP SWAP2 SWAP1 POP JUMP JUMPDEST PUSH1 0x0 PUSH1 0x20 DUP3 ADD SWAP1 POP DUP2 DUP2 SUB PUSH1 0x0 DUP4 ADD MSTORE PUSH2 0x208D DUP2 PUSH2 0x1E03 JUMP JUMPDEST SWAP1 POP SWAP2 SWAP1 POP JUMP JUMPDEST PUSH1 0x0 PUSH1 0x20 DUP3 ADD SWAP1 POP DUP2 DUP2 SUB PUSH1 0x0 DUP4 ADD MSTORE PUSH2 0x20AD DUP2 PUSH2 0x1E26 JUMP JUMPDEST SWAP1 POP SWAP2 SWAP1 POP JUMP JUMPDEST PUSH1 0x0 PUSH1 0x20 DUP3 ADD SWAP1 POP DUP2 DUP2 SUB PUSH1 0x0 DUP4 ADD MSTORE PUSH2 0x20CD DUP2 PUSH2 0x1E49 JUMP JUMPDEST SWAP1 POP SWAP2 SWAP1 POP JUMP JUMPDEST PUSH1 0x0 PUSH1 0x20 DUP3 ADD SWAP1 POP DUP2 DUP2 SUB PUSH1 0x0 DUP4 ADD MSTORE PUSH2 0x20ED DUP2 PUSH2 0x1E6C JUMP JUMPDEST SWAP1 POP SWAP2 SWAP1 POP JUMP JUMPDEST PUSH1 0x0 PUSH1 0x20 DUP3 ADD SWAP1 POP DUP2 DUP2 SUB PUSH1 0x0 DUP4 ADD MSTORE PUSH2 0x210D DUP2 PUSH2 0x1E8F JUMP JUMPDEST SWAP1 POP SWAP2 SWAP1 POP JUMP JUMPDEST PUSH1 0x0 PUSH1 0x20 DUP3 ADD SWAP1 POP DUP2 DUP2 SUB PUSH1 0x0 DUP4 ADD MSTORE PUSH2 0x212D DUP2 PUSH2 0x1EB2 JUMP JUMPDEST SWAP1 POP SWAP2 SWAP1 POP JUMP JUMPDEST PUSH1 0x0 PUSH1 0x20 DUP3 ADD SWAP1 POP DUP2 DUP2 SUB PUSH1 0x0 DUP4 ADD MSTORE PUSH2 0x214D DUP2 PUSH2 0x1ED5 JUMP JUMPDEST SWAP1 POP SWAP2 SWAP1 POP JUMP JUMPDEST PUSH1 0x0 PUSH1 0x20 DUP3 ADD SWAP1 POP DUP2 DUP2 SUB PUSH1 0x0 DUP4 ADD MSTORE PUSH2 0x216D DUP2 PUSH2 0x1EF8 JUMP JUMPDEST SWAP1 POP SWAP2 SWAP1 POP JUMP JUMPDEST PUSH1 0x0 PUSH1 0x20 DUP3 ADD SWAP1 POP DUP2 DUP2 SUB PUSH1 0x0 DUP4 ADD MSTORE PUSH2 0x218D DUP2 PUSH2 0x1F1B JUMP JUMPDEST SWAP1 POP SWAP2 SWAP1 POP JUMP JUMPDEST PUSH1 0x0 PUSH1 0x20 DUP3 ADD SWAP1 POP DUP2 DUP2 SUB PUSH1 0x0 DUP4 ADD MSTORE PUSH2 0x21AD DUP2 PUSH2 0x1F3E JUMP JUMPDEST SWAP1 POP SWAP2 SWAP1 POP JUMP JUMPDEST PUSH1 0x0 PUSH1 0x20 DUP3 ADD SWAP1 POP PUSH2 0x21C9 PUSH1 0x0 DUP4 ADD DUP5 PUSH2 0x1F61 JUMP JUMPDEST SWAP3 SWAP2 POP POP JUMP JUMPDEST PUSH1 0x0 PUSH2 0x21D9 PUSH2 0x21EA JUMP JUMPDEST SWAP1 POP PUSH2 0x21E5 DUP3 DUP3 PUSH2 0x2400 JUMP JUMPDEST SWAP2 SWAP1 POP JUMP JUMPDEST PUSH1 0x0 PUSH1 0x40 MLOAD SWAP1 POP SWAP1 JUMP JUMPDEST PUSH1 0x0 PUSH8 0xFFFFFFFFFFFFFFFF DUP3 GT ISZERO PUSH2 0x220F JUMPI PUSH2 0x220E PUSH2 0x24D8 JUMP JUMPDEST JUMPDEST PUSH2 0x2218 DUP3 PUSH2 0x251B JUMP JUMPDEST SWAP1 POP PUSH1 0x20 DUP2 ADD SWAP1 POP SWAP2 SWAP1 POP JUMP JUMPDEST PUSH1 0x0 PUSH8 0xFFFFFFFFFFFFFFFF DUP3 GT ISZERO PUSH2 0x2240 JUMPI PUSH2 0x223F PUSH2 0x24D8 JUMP JUMPDEST JUMPDEST PUSH2 0x2249 DUP3 PUSH2 0x251B JUMP JUMPDEST SWAP1 POP PUSH1 0x20 DUP2 ADD SWAP1 POP SWAP2 SWAP1 POP JUMP JUMPDEST PUSH1 0x0 DUP2 MLOAD SWAP1 POP SWAP2 SWAP1 POP JUMP JUMPDEST PUSH1 0x0 DUP2 MLOAD SWAP1 POP SWAP2 SWAP1 POP JUMP JUMPDEST PUSH1 0x0 DUP3 DUP3 MSTORE PUSH1 0x20 DUP3 ADD SWAP1 POP SWAP3 SWAP2 POP POP JUMP JUMPDEST PUSH1 0x0 DUP3 DUP3 MSTORE PUSH1 0x20 DUP3 ADD SWAP1 POP SWAP3 SWAP2 POP POP JUMP JUMPDEST PUSH1 0x0 PUSH2 0x2299 DUP3 PUSH2 0x2382 JUMP JUMPDEST SWAP2 POP PUSH2 0x22A4 DUP4 PUSH2 0x2382 JUMP JUMPDEST SWAP3 POP DUP3 PUSH32 0xFFFFFFFFFFFFFFFFFFFFFFFFFFFFFFFFFFFFFFFFFFFFFFFFFFFFFFFFFFFFFFFF SUB DUP3 GT ISZERO PUSH2 0x22D9 JUMPI PUSH2 0x22D8 PUSH2 0x247A JUMP JUMPDEST JUMPDEST DUP3 DUP3 ADD SWAP1 POP SWAP3 SWAP2 POP POP JUMP JUMPDEST PUSH1 0x0 PUSH2 0x22EF DUP3 PUSH2 0x2382 JUMP JUMPDEST SWAP2 POP PUSH2 0x22FA DUP4 PUSH2 0x2382 JUMP JUMPDEST SWAP3 POP DUP3 DUP3 LT ISZERO PUSH2 0x230D JUMPI PUSH2 0x230C PUSH2 0x247A JUMP JUMPDEST JUMPDEST DUP3 DUP3 SUB SWAP1 POP SWAP3 SWAP2 POP POP JUMP JUMPDEST PUSH1 0x0 PUSH2 0x2323 DUP3 PUSH2 0x2362 JUMP JUMPDEST SWAP1 POP SWAP2 SWAP1 POP JUMP JUMPDEST PUSH1 0x0 DUP2 ISZERO ISZERO SWAP1 POP SWAP2 SWAP1 POP JUMP JUMPDEST PUSH1 0x0 PUSH32 0xFFFFFFFF00000000000000000000000000000000000000000000000000000000 DUP3 AND SWAP1 POP SWAP2 SWAP1 POP JUMP JUMPDEST PUSH1 0x0 PUSH20 0xFFFFFFFFFFFFFFFFFFFFFFFFFFFFFFFFFFFFFFFF DUP3 AND SWAP1 POP SWAP2 SWAP1 POP JUMP JUMPDEST PUSH1 0x0 DUP2 SWAP1 POP SWAP2 SWAP1 POP JUMP JUMPDEST DUP3 DUP2 DUP4 CALLDATACOPY PUSH1 0x0 DUP4 DUP4 ADD MSTORE POP POP POP JUMP JUMPDEST PUSH1 0x0 JUMPDEST DUP4 DUP2 LT ISZERO PUSH2 0x23B9 JUMPI DUP1 DUP3 ADD MLOAD DUP2 DUP5 ADD MSTORE PUSH1 0x20 DUP2 ADD SWAP1 POP PUSH2 0x239E JUMP JUMPDEST DUP4 DUP2 GT ISZERO PUSH2 0x23C8 JUMPI PUSH1 0x0 DUP5 DUP5 ADD MSTORE JUMPDEST POP POP POP POP JUMP JUMPDEST PUSH1 0x0 PUSH1 0x2 DUP3 DIV SWAP1 POP PUSH1 0x1 DUP3 AND DUP1 PUSH2 0x23E6 JUMPI PUSH1 0x7F DUP3 AND SWAP2 POP JUMPDEST PUSH1 0x20 DUP3 LT DUP2 EQ ISZERO PUSH2 0x23FA JUMPI PUSH2 0x23F9 PUSH2 0x24A9 JUMP JUMPDEST JUMPDEST POP SWAP2 SWAP1 POP JUMP JUMPDEST PUSH2 0x2409 DUP3 PUSH2 0x251B JUMP JUMPDEST DUP2 ADD DUP2 DUP2 LT PUSH8 0xFFFFFFFFFFFFFFFF DUP3 GT OR ISZERO PUSH2 0x2428 JUMPI PUSH2 0x2427 PUSH2 0x24D8 JUMP JUMPDEST JUMPDEST DUP1 PUSH1 0x40 MSTORE POP POP POP JUMP JUMPDEST PUSH1 0x0 PUSH2 0x243C DUP3 PUSH2 0x2382 JUMP JUMPDEST SWAP2 POP PUSH32 0xFFFFFFFFFFFFFFFFFFFFFFFFFFFFFFFFFFFFFFFFFFFFFFFFFFFFFFFFFFFFFFFF DUP3 EQ ISZERO PUSH2 0x246F JUMPI PUSH2 0x246E PUSH2 0x247A JUMP JUMPDEST JUMPDEST PUSH1 0x1 DUP3 ADD SWAP1 POP SWAP2 SWAP1 POP JUMP JUMPDEST PUSH32 0x4E487B7100000000000000000000000000000000000000000000000000000000 PUSH1 0x0 MSTORE PUSH1 0x11 PUSH1 0x4 MSTORE PUSH1 0x24 PUSH1 0x0 REVERT JUMPDEST PUSH32 0x4E487B7100000000000000000000000000000000000000000000000000000000 PUSH1 0x0 MSTORE PUSH1 0x22 PUSH1 0x4 MSTORE PUSH1 0x24 PUSH1 0x0 REVERT JUMPDEST PUSH32 0x4E487B7100000000000000000000000000000000000000000000000000000000 PUSH1 0x0 MSTORE PUSH1 0x41 PUSH1 0x4 MSTORE PUSH1 0x24 PUSH1 0x0 REVERT JUMPDEST PUSH1 0x0 DUP1 REVERT JUMPDEST PUSH1 0x0 DUP1 REVERT JUMPDEST PUSH1 0x0 DUP1 REVERT JUMPDEST PUSH1 0x0 DUP1 REVERT JUMPDEST PUSH1 0x0 PUSH1 0x1F NOT PUSH1 0x1F DUP4 ADD AND SWAP1 POP SWAP2 SWAP1 POP JUMP JUMPDEST PUSH32 0x4552433732313A207472616E7366657220746F206E6F6E204552433732315265 PUSH1 0x0 DUP3 ADD MSTORE PUSH32 0x63656976657220696D706C656D656E7465720000000000000000000000000000 PUSH1 0x20 DUP3 ADD MSTORE POP JUMP JUMPDEST PUSH32 0x4F776E61626C653A206E6577206F776E657220697320746865207A65726F2061 PUSH1 0x0 DUP3 ADD MSTORE PUSH32 0x6464726573730000000000000000000000000000000000000000000000000000 PUSH1 0x20 DUP3 ADD MSTORE POP JUMP JUMPDEST PUSH32 0x4552433732313A207472616E736665722066726F6D20696E636F727265637420 PUSH1 0x0 DUP3 ADD MSTORE PUSH32 0x6F776E6572000000000000000000000000000000000000000000000000000000 PUSH1 0x20 DUP3 ADD MSTORE POP JUMP JUMPDEST PUSH32 0x4552433732313A20746F6B656E20616C7265616479206D696E74656400000000 PUSH1 0x0 DUP3 ADD MSTORE POP JUMP JUMPDEST PUSH32 0x4552433732313A207472616E7366657220746F20746865207A65726F20616464 PUSH1 0x0 DUP3 ADD MSTORE PUSH32 0x7265737300000000000000000000000000000000000000000000000000000000 PUSH1 0x20 DUP3 ADD MSTORE POP JUMP JUMPDEST PUSH32 0x4552433732313A20617070726F766520746F2063616C6C657200000000000000 PUSH1 0x0 DUP3 ADD MSTORE POP JUMP JUMPDEST PUSH32 0x4552433732313A2061646472657373207A65726F206973206E6F742061207661 PUSH1 0x0 DUP3 ADD MSTORE PUSH32 0x6C6964206F776E65720000000000000000000000000000000000000000000000 PUSH1 0x20 DUP3 ADD MSTORE POP JUMP JUMPDEST PUSH32 0x4552433732313A20617070726F76652063616C6C6572206973206E6F7420746F PUSH1 0x0 DUP3 ADD MSTORE PUSH32 0x6B656E206F776E6572206E6F7220617070726F76656420666F7220616C6C0000 PUSH1 0x20 DUP3 ADD MSTORE POP JUMP JUMPDEST PUSH32 0x4552433732313A206D696E7420746F20746865207A65726F2061646472657373 PUSH1 0x0 DUP3 ADD MSTORE POP JUMP JUMPDEST PUSH32 0x4F776E61626C653A2063616C6C6572206973206E6F7420746865206F776E6572 PUSH1 0x0 DUP3 ADD MSTORE POP JUMP JUMPDEST PUSH32 0x4552433732313A20696E76616C696420746F6B656E2049440000000000000000 PUSH1 0x0 DUP3 ADD MSTORE POP JUMP JUMPDEST PUSH32 0x4552433732313A20617070726F76616C20746F2063757272656E74206F776E65 PUSH1 0x0 DUP3 ADD MSTORE PUSH32 0x7200000000000000000000000000000000000000000000000000000000000000 PUSH1 0x20 DUP3 ADD MSTORE POP JUMP JUMPDEST PUSH32 0x4552433732313A2063616C6C6572206973206E6F7420746F6B656E206F776E65 PUSH1 0x0 DUP3 ADD MSTORE PUSH32 0x72206E6F7220617070726F766564000000000000000000000000000000000000 PUSH1 0x20 DUP3 ADD MSTORE POP JUMP JUMPDEST PUSH2 0x287A DUP2 PUSH2 0x2318 JUMP JUMPDEST DUP2 EQ PUSH2 0x2885 JUMPI PUSH1 0x0 DUP1 REVERT JUMPDEST POP JUMP JUMPDEST PUSH2 0x2891 DUP2 PUSH2 0x232A JUMP JUMPDEST DUP2 EQ PUSH2 0x289C JUMPI PUSH1 0x0 DUP1 REVERT JUMPDEST POP JUMP JUMPDEST PUSH2 0x28A8 DUP2 PUSH2 0x2336 JUMP JUMPDEST DUP2 EQ PUSH2 0x28B3 JUMPI PUSH1 0x0 DUP1 REVERT JUMPDEST POP JUMP JUMPDEST PUSH2 0x28BF DUP2 PUSH2 0x2382 JUMP JUMPDEST DUP2 EQ PUSH2 0x28CA JUMPI PUSH1 0x0 DUP1 REVERT JUMPDEST POP JUMP INVALID LOG2 PUSH5 0x6970667358 0x22 SLT KECCAK256 0xD7 0xB1 0xBD 0xDC SGT EXTCODESIZE LOG3 0x4E SIGNEXTEND 0xF7 PC 0x2A DUP7 EXP 0xE4 0x4C PUSH12 0xD31FFBCF139642C10EEBE51E 0xB7 0xAE CALLCODE PUSH5 0x736F6C6343 STOP ADDMOD SMOD STOP CALLER "
				},
				"gasEstimates": {
					"creation": {
						"codeDepositCost": "2099800",
						"executionCost": "infinite",
						"totalCost": "infinite"
					},
					"external": {
						"_tokenId()": "2496",
						"approve(address,uint256)": "infinite",
						"balanceOf(address)": "2924",
						"baseURI()": "infinite",
						"getApproved(uint256)": "5279",
						"isApprovedForAll(address,address)": "infinite",
						"mint()": "infinite",
						"name()": "infinite",
						"owner()": "2611",
						"ownerOf(uint256)": "3070",
						"renounceOwnership()": "30465",
						"safeMint(address,uint256)": "infinite",
						"safeTransferFrom(address,address,uint256)": "infinite",
						"safeTransferFrom(address,address,uint256,bytes)": "infinite",
						"setApprovalForAll(address,bool)": "infinite",
						"setURI(string)": "infinite",
						"supportsInterface(bytes4)": "797",
						"symbol()": "infinite",
						"tokenURI(uint256)": "infinite",
						"transferFrom(address,address,uint256)": "infinite",
						"transferOwnership(address)": "30879"
					},
					"internal": {
						"_baseURI()": "infinite"
					}
				},
				"methodIdentifiers": {
					"_tokenId()": "24822514",
					"approve(address,uint256)": "095ea7b3",
					"balanceOf(address)": "70a08231",
					"baseURI()": "6c0360eb",
					"getApproved(uint256)": "081812fc",
					"isApprovedForAll(address,address)": "e985e9c5",
					"mint()": "1249c58b",
					"name()": "06fdde03",
					"owner()": "8da5cb5b",
					"ownerOf(uint256)": "6352211e",
					"renounceOwnership()": "715018a6",
					"safeMint(address,uint256)": "a1448194",
					"safeTransferFrom(address,address,uint256)": "42842e0e",
					"safeTransferFrom(address,address,uint256,bytes)": "b88d4fde",
					"setApprovalForAll(address,bool)": "a22cb465",
					"setURI(string)": "02fe5305",
					"supportsInterface(bytes4)": "01ffc9a7",
					"symbol()": "95d89b41",
					"tokenURI(uint256)": "c87b56dd",
					"transferFrom(address,address,uint256)": "23b872dd",
					"transferOwnership(address)": "f2fde38b"
				}
			},
			"storageLayout": {
				"storage": [
					{
						"astId": 138,
						"contract": "contracts/MyToken.sol:MyToken",
						"label": "_name",
						"offset": 0,
						"slot": "0",
						"type": "t_string_storage"
					},
					{
						"astId": 140,
						"contract": "contracts/MyToken.sol:MyToken",
						"label": "_symbol",
						"offset": 0,
						"slot": "1",
						"type": "t_string_storage"
					},
					{
						"astId": 144,
						"contract": "contracts/MyToken.sol:MyToken",
						"label": "_owners",
						"offset": 0,
						"slot": "2",
						"type": "t_mapping(t_uint256,t_address)"
					},
					{
						"astId": 148,
						"contract": "contracts/MyToken.sol:MyToken",
						"label": "_balances",
						"offset": 0,
						"slot": "3",
						"type": "t_mapping(t_address,t_uint256)"
					},
					{
						"astId": 152,
						"contract": "contracts/MyToken.sol:MyToken",
						"label": "_tokenApprovals",
						"offset": 0,
						"slot": "4",
						"type": "t_mapping(t_uint256,t_address)"
					},
					{
						"astId": 158,
						"contract": "contracts/MyToken.sol:MyToken",
						"label": "_operatorApprovals",
						"offset": 0,
						"slot": "5",
						"type": "t_mapping(t_address,t_mapping(t_address,t_bool))"
					},
					{
						"astId": 7,
						"contract": "contracts/MyToken.sol:MyToken",
						"label": "_owner",
						"offset": 0,
						"slot": "6",
						"type": "t_address"
					},
					{
						"astId": 1738,
						"contract": "contracts/MyToken.sol:MyToken",
						"label": "baseURI",
						"offset": 0,
						"slot": "7",
						"type": "t_string_storage"
					},
					{
						"astId": 1740,
						"contract": "contracts/MyToken.sol:MyToken",
						"label": "_tokenId",
						"offset": 0,
						"slot": "8",
						"type": "t_uint256"
					}
				],
				"types": {
					"t_address": {
						"encoding": "inplace",
						"label": "address",
						"numberOfBytes": "20"
					},
					"t_bool": {
						"encoding": "inplace",
						"label": "bool",
						"numberOfBytes": "1"
					},
					"t_mapping(t_address,t_bool)": {
						"encoding": "mapping",
						"key": "t_address",
						"label": "mapping(address => bool)",
						"numberOfBytes": "32",
						"value": "t_bool"
					},
					"t_mapping(t_address,t_mapping(t_address,t_bool))": {
						"encoding": "mapping",
						"key": "t_address",
						"label": "mapping(address => mapping(address => bool))",
						"numberOfBytes": "32",
						"value": "t_mapping(t_address,t_bool)"
					},
					"t_mapping(t_address,t_uint256)": {
						"encoding": "mapping",
						"key": "t_address",
						"label": "mapping(address => uint256)",
						"numberOfBytes": "32",
						"value": "t_uint256"
					},
					"t_mapping(t_uint256,t_address)": {
						"encoding": "mapping",
						"key": "t_uint256",
						"label": "mapping(uint256 => address)",
						"numberOfBytes": "32",
						"value": "t_address"
					},
					"t_string_storage": {
						"encoding": "bytes",
						"label": "string",
						"numberOfBytes": "32"
					},
					"t_uint256": {
						"encoding": "inplace",
						"label": "uint256",
						"numberOfBytes": "32"
					}
				}
			},
			"userdoc": {
				"kind": "user",
				"methods": {},
				"version": 1
			}
		}
	}
}